{
	"CriptoXMC/transfer.sol": {
		"MainXM": {
			"abi": [
				{
					"inputs": [
						{
							"internalType": "address",
							"name": "_token",
							"type": "address"
						}
					],
					"stateMutability": "nonpayable",
					"type": "constructor"
				},
				{
					"inputs": [
						{
							"internalType": "address",
							"name": "_sender",
							"type": "address"
						},
						{
							"internalType": "uint256",
							"name": "_amount",
							"type": "uint256"
						},
						{
							"internalType": "uint256",
							"name": "_idTrx",
							"type": "uint256"
						}
					],
					"name": "deposit",
					"outputs": [],
					"stateMutability": "nonpayable",
					"type": "function"
				},
				{
					"inputs": [],
					"name": "token",
					"outputs": [
						{
							"internalType": "contract IERC20",
							"name": "",
							"type": "address"
						}
					],
					"stateMutability": "view",
					"type": "function"
				},
				{
					"inputs": [
						{
							"internalType": "uint256",
							"name": "",
							"type": "uint256"
						}
					],
					"name": "transfers",
					"outputs": [
						{
							"internalType": "uint256",
							"name": "",
							"type": "uint256"
						}
					],
					"stateMutability": "view",
					"type": "function"
				}
			],
			"devdoc": {
				"kind": "dev",
				"methods": {},
				"version": 1
			},
			"evm": {
				"assembly": "    /* \"CriptoXMC/transfer.sol\":291:829  contract MainXM {... */\n  mstore(0x40, 0x80)\n    /* \"CriptoXMC/transfer.sol\":340:409  constructor(address _token) {... */\n  callvalue\n  dup1\n  iszero\n  tag_1\n  jumpi\n  0x00\n  dup1\n  revert\ntag_1:\n  pop\n  mload(0x40)\n  sub(codesize, bytecodeSize)\n  dup1\n  bytecodeSize\n  dup4\n  codecopy\n  dup2\n  dup2\n  add\n  0x40\n  mstore\n  dup2\n  add\n  swap1\n  tag_2\n  swap2\n  swap1\n  tag_3\n  jump\t// in\ntag_2:\n    /* \"CriptoXMC/transfer.sol\":394:400  _token */\n  dup1\n    /* \"CriptoXMC/transfer.sol\":379:384  token */\n  0x00\n  dup1\n    /* \"CriptoXMC/transfer.sol\":379:401  token = IERC20(_token) */\n  0x0100\n  exp\n  dup2\n  sload\n  dup2\n  0xffffffffffffffffffffffffffffffffffffffff\n  mul\n  not\n  and\n  swap1\n  dup4\n  0xffffffffffffffffffffffffffffffffffffffff\n  and\n  mul\n  or\n  swap1\n  sstore\n  pop\n    /* \"CriptoXMC/transfer.sol\":340:409  constructor(address _token) {... */\n  pop\n    /* \"CriptoXMC/transfer.sol\":291:829  contract MainXM {... */\n  jump(tag_6)\n    /* \"#utility.yul\":88:205   */\ntag_8:\n    /* \"#utility.yul\":197:198   */\n  0x00\n    /* \"#utility.yul\":194:195   */\n  dup1\n    /* \"#utility.yul\":187:199   */\n  revert\n    /* \"#utility.yul\":334:460   */\ntag_10:\n    /* \"#utility.yul\":371:378   */\n  0x00\n    /* \"#utility.yul\":411:453   */\n  0xffffffffffffffffffffffffffffffffffffffff\n    /* \"#utility.yul\":404:409   */\n  dup3\n    /* \"#utility.yul\":400:454   */\n  and\n    /* \"#utility.yul\":389:454   */\n  swap1\n  pop\n    /* \"#utility.yul\":334:460   */\n  swap2\n  swap1\n  pop\n  jump\t// out\n    /* \"#utility.yul\":466:562   */\ntag_11:\n    /* \"#utility.yul\":503:510   */\n  0x00\n    /* \"#utility.yul\":532:556   */\n  tag_20\n    /* \"#utility.yul\":550:555   */\n  dup3\n    /* \"#utility.yul\":532:556   */\n  tag_10\n  jump\t// in\ntag_20:\n    /* \"#utility.yul\":521:556   */\n  swap1\n  pop\n    /* \"#utility.yul\":466:562   */\n  swap2\n  swap1\n  pop\n  jump\t// out\n    /* \"#utility.yul\":568:690   */\ntag_12:\n    /* \"#utility.yul\":641:665   */\n  tag_22\n    /* \"#utility.yul\":659:664   */\n  dup2\n    /* \"#utility.yul\":641:665   */\n  tag_11\n  jump\t// in\ntag_22:\n    /* \"#utility.yul\":634:639   */\n  dup2\n    /* \"#utility.yul\":631:666   */\n  eq\n    /* \"#utility.yul\":621:684   */\n  tag_23\n  jumpi\n    /* \"#utility.yul\":680:681   */\n  0x00\n    /* \"#utility.yul\":677:678   */\n  dup1\n    /* \"#utility.yul\":670:682   */\n  revert\n    /* \"#utility.yul\":621:684   */\ntag_23:\n    /* \"#utility.yul\":568:690   */\n  pop\n  jump\t// out\n    /* \"#utility.yul\":696:839   */\ntag_13:\n    /* \"#utility.yul\":753:758   */\n  0x00\n    /* \"#utility.yul\":784:790   */\n  dup2\n    /* \"#utility.yul\":778:791   */\n  mload\n    /* \"#utility.yul\":769:791   */\n  swap1\n  pop\n    /* \"#utility.yul\":800:833   */\n  tag_25\n    /* \"#utility.yul\":827:832   */\n  dup2\n    /* \"#utility.yul\":800:833   */\n  tag_12\n  jump\t// in\ntag_25:\n    /* \"#utility.yul\":696:839   */\n  swap3\n  swap2\n  pop\n  pop\n  jump\t// out\n    /* \"#utility.yul\":845:1196   */\ntag_3:\n    /* \"#utility.yul\":915:921   */\n  0x00\n    /* \"#utility.yul\":964:966   */\n  0x20\n    /* \"#utility.yul\":952:961   */\n  dup3\n    /* \"#utility.yul\":943:950   */\n  dup5\n    /* \"#utility.yul\":939:962   */\n  sub\n    /* \"#utility.yul\":935:967   */\n  slt\n    /* \"#utility.yul\":932:1051   */\n  iszero\n  tag_27\n  jumpi\n    /* \"#utility.yul\":970:1049   */\n  tag_28\n  tag_8\n  jump\t// in\ntag_28:\n    /* \"#utility.yul\":932:1051   */\ntag_27:\n    /* \"#utility.yul\":1090:1091   */\n  0x00\n    /* \"#utility.yul\":1115:1179   */\n  tag_29\n    /* \"#utility.yul\":1171:1178   */\n  dup5\n    /* \"#utility.yul\":1162:1168   */\n  dup3\n    /* \"#utility.yul\":1151:1160   */\n  dup6\n    /* \"#utility.yul\":1147:1169   */\n  add\n    /* \"#utility.yul\":1115:1179   */\n  tag_13\n  jump\t// in\ntag_29:\n    /* \"#utility.yul\":1105:1179   */\n  swap2\n  pop\n    /* \"#utility.yul\":1061:1189   */\n  pop\n    /* \"#utility.yul\":845:1196   */\n  swap3\n  swap2\n  pop\n  pop\n  jump\t// out\n    /* \"CriptoXMC/transfer.sol\":291:829  contract MainXM {... */\ntag_6:\n  dataSize(sub_0)\n  dup1\n  dataOffset(sub_0)\n  0x00\n  codecopy\n  0x00\n  return\nstop\n\nsub_0: assembly {\n        /* \"CriptoXMC/transfer.sol\":291:829  contract MainXM {... */\n      mstore(0x40, 0x80)\n      callvalue\n      dup1\n      iszero\n      tag_1\n      jumpi\n      0x00\n      dup1\n      revert\n    tag_1:\n      pop\n      jumpi(tag_2, lt(calldatasize, 0x04))\n      shr(0xe0, calldataload(0x00))\n      dup1\n      0x0efe6a8b\n      eq\n      tag_3\n      jumpi\n      dup1\n      0x9377d711\n      eq\n      tag_4\n      jumpi\n      dup1\n      0xfc0c546a\n      eq\n      tag_5\n      jumpi\n    tag_2:\n      0x00\n      dup1\n      revert\n        /* \"CriptoXMC/transfer.sol\":469:826  function deposit(... */\n    tag_3:\n      tag_6\n      0x04\n      dup1\n      calldatasize\n      sub\n      dup2\n      add\n      swap1\n      tag_7\n      swap2\n      swap1\n      tag_8\n      jump\t// in\n    tag_7:\n      tag_9\n      jump\t// in\n    tag_6:\n      stop\n        /* \"CriptoXMC/transfer.sol\":417:462  mapping (uint256 => uint256) public transfers */\n    tag_4:\n      tag_10\n      0x04\n      dup1\n      calldatasize\n      sub\n      dup2\n      add\n      swap1\n      tag_11\n      swap2\n      swap1\n      tag_12\n      jump\t// in\n    tag_11:\n      tag_13\n      jump\t// in\n    tag_10:\n      mload(0x40)\n      tag_14\n      swap2\n      swap1\n      tag_15\n      jump\t// in\n    tag_14:\n      mload(0x40)\n      dup1\n      swap2\n      sub\n      swap1\n      return\n        /* \"CriptoXMC/transfer.sol\":314:333  IERC20 public token */\n    tag_5:\n      tag_16\n      tag_17\n      jump\t// in\n    tag_16:\n      mload(0x40)\n      tag_18\n      swap2\n      swap1\n      tag_19\n      jump\t// in\n    tag_18:\n      mload(0x40)\n      dup1\n      swap2\n      sub\n      swap1\n      return\n        /* \"CriptoXMC/transfer.sol\":469:826  function deposit(... */\n    tag_9:\n        /* \"CriptoXMC/transfer.sol\":590:610  bool transferSuccess */\n      0x00\n        /* \"CriptoXMC/transfer.sol\":613:618  token */\n      dup1\n      0x00\n      swap1\n      sload\n      swap1\n      0x0100\n      exp\n      swap1\n      div\n      0xffffffffffffffffffffffffffffffffffffffff\n      and\n        /* \"CriptoXMC/transfer.sol\":613:631  token.transferFrom */\n      0xffffffffffffffffffffffffffffffffffffffff\n      and\n      0x23b872dd\n        /* \"CriptoXMC/transfer.sol\":646:653  _sender */\n      dup6\n        /* \"CriptoXMC/transfer.sol\":676:680  this */\n      address\n        /* \"CriptoXMC/transfer.sol\":696:703  _amount */\n      dup7\n        /* \"CriptoXMC/transfer.sol\":613:714  token.transferFrom(... */\n      mload(0x40)\n      dup5\n      0xffffffff\n      and\n      0xe0\n      shl\n      dup2\n      mstore\n      0x04\n      add\n      tag_21\n      swap4\n      swap3\n      swap2\n      swap1\n      tag_22\n      jump\t// in\n    tag_21:\n      0x20\n      mload(0x40)\n      dup1\n      dup4\n      sub\n      dup2\n      0x00\n      dup8\n      gas\n      call\n      iszero\n      dup1\n      iszero\n      tag_24\n      jumpi\n      returndatasize\n      0x00\n      dup1\n      returndatacopy\n      revert(0x00, returndatasize)\n    tag_24:\n      pop\n      pop\n      pop\n      pop\n      mload(0x40)\n      returndatasize\n      not(0x1f)\n      0x1f\n      dup3\n      add\n      and\n      dup3\n      add\n      dup1\n      0x40\n      mstore\n      pop\n      dup2\n      add\n      swap1\n      tag_25\n      swap2\n      swap1\n      tag_26\n      jump\t// in\n    tag_25:\n        /* \"CriptoXMC/transfer.sol\":590:714  bool transferSuccess = token.transferFrom(... */\n      swap1\n      pop\n        /* \"CriptoXMC/transfer.sol\":745:752  _amount */\n      dup3\n        /* \"CriptoXMC/transfer.sol\":725:734  transfers */\n      0x01\n        /* \"CriptoXMC/transfer.sol\":725:742  transfers[_idTrx] */\n      0x00\n        /* \"CriptoXMC/transfer.sol\":735:741  _idTrx */\n      dup5\n        /* \"CriptoXMC/transfer.sol\":725:742  transfers[_idTrx] */\n      dup2\n      mstore\n      0x20\n      add\n      swap1\n      dup2\n      mstore\n      0x20\n      add\n      0x00\n      keccak256\n        /* \"CriptoXMC/transfer.sol\":725:752  transfers[_idTrx] = _amount */\n      dup2\n      swap1\n      sstore\n      pop\n        /* \"CriptoXMC/transfer.sol\":771:786  transferSuccess */\n      dup1\n        /* \"CriptoXMC/transfer.sol\":763:818  require(transferSuccess, \"Transfer to contract failed\") */\n      tag_27\n      jumpi\n      mload(0x40)\n      0x08c379a000000000000000000000000000000000000000000000000000000000\n      dup2\n      mstore\n      0x04\n      add\n      tag_28\n      swap1\n      tag_29\n      jump\t// in\n    tag_28:\n      mload(0x40)\n      dup1\n      swap2\n      sub\n      swap1\n      revert\n    tag_27:\n        /* \"CriptoXMC/transfer.sol\":579:826  {... */\n      pop\n        /* \"CriptoXMC/transfer.sol\":469:826  function deposit(... */\n      pop\n      pop\n      pop\n      jump\t// out\n        /* \"CriptoXMC/transfer.sol\":417:462  mapping (uint256 => uint256) public transfers */\n    tag_13:\n      mstore(0x20, 0x01)\n      dup1\n      0x00\n      mstore\n      keccak256(0x00, 0x40)\n      0x00\n      swap2\n      pop\n      swap1\n      pop\n      sload\n      dup2\n      jump\t// out\n        /* \"CriptoXMC/transfer.sol\":314:333  IERC20 public token */\n    tag_17:\n      0x00\n      dup1\n      sload\n      swap1\n      0x0100\n      exp\n      swap1\n      div\n      0xffffffffffffffffffffffffffffffffffffffff\n      and\n      dup2\n      jump\t// out\n        /* \"#utility.yul\":88:205   */\n    tag_31:\n        /* \"#utility.yul\":197:198   */\n      0x00\n        /* \"#utility.yul\":194:195   */\n      dup1\n        /* \"#utility.yul\":187:199   */\n      revert\n        /* \"#utility.yul\":334:460   */\n    tag_33:\n        /* \"#utility.yul\":371:378   */\n      0x00\n        /* \"#utility.yul\":411:453   */\n      0xffffffffffffffffffffffffffffffffffffffff\n        /* \"#utility.yul\":404:409   */\n      dup3\n        /* \"#utility.yul\":400:454   */\n      and\n        /* \"#utility.yul\":389:454   */\n      swap1\n      pop\n        /* \"#utility.yul\":334:460   */\n      swap2\n      swap1\n      pop\n      jump\t// out\n        /* \"#utility.yul\":466:562   */\n    tag_34:\n        /* \"#utility.yul\":503:510   */\n      0x00\n        /* \"#utility.yul\":532:556   */\n      tag_59\n        /* \"#utility.yul\":550:555   */\n      dup3\n        /* \"#utility.yul\":532:556   */\n      tag_33\n      jump\t// in\n    tag_59:\n        /* \"#utility.yul\":521:556   */\n      swap1\n      pop\n        /* \"#utility.yul\":466:562   */\n      swap2\n      swap1\n      pop\n      jump\t// out\n        /* \"#utility.yul\":568:690   */\n    tag_35:\n        /* \"#utility.yul\":641:665   */\n      tag_61\n        /* \"#utility.yul\":659:664   */\n      dup2\n        /* \"#utility.yul\":641:665   */\n      tag_34\n      jump\t// in\n    tag_61:\n        /* \"#utility.yul\":634:639   */\n      dup2\n        /* \"#utility.yul\":631:666   */\n      eq\n        /* \"#utility.yul\":621:684   */\n      tag_62\n      jumpi\n        /* \"#utility.yul\":680:681   */\n      0x00\n        /* \"#utility.yul\":677:678   */\n      dup1\n        /* \"#utility.yul\":670:682   */\n      revert\n        /* \"#utility.yul\":621:684   */\n    tag_62:\n        /* \"#utility.yul\":568:690   */\n      pop\n      jump\t// out\n        /* \"#utility.yul\":696:835   */\n    tag_36:\n        /* \"#utility.yul\":742:747   */\n      0x00\n        /* \"#utility.yul\":780:786   */\n      dup2\n        /* \"#utility.yul\":767:787   */\n      calldataload\n        /* \"#utility.yul\":758:787   */\n      swap1\n      pop\n        /* \"#utility.yul\":796:829   */\n      tag_64\n        /* \"#utility.yul\":823:828   */\n      dup2\n        /* \"#utility.yul\":796:829   */\n      tag_35\n      jump\t// in\n    tag_64:\n        /* \"#utility.yul\":696:835   */\n      swap3\n      swap2\n      pop\n      pop\n      jump\t// out\n        /* \"#utility.yul\":841:918   */\n    tag_37:\n        /* \"#utility.yul\":878:885   */\n      0x00\n        /* \"#utility.yul\":907:912   */\n      dup2\n        /* \"#utility.yul\":896:912   */\n      swap1\n      pop\n        /* \"#utility.yul\":841:918   */\n      swap2\n      swap1\n      pop\n      jump\t// out\n        /* \"#utility.yul\":924:1046   */\n    tag_38:\n        /* \"#utility.yul\":997:1021   */\n      tag_67\n        /* \"#utility.yul\":1015:1020   */\n      dup2\n        /* \"#utility.yul\":997:1021   */\n      tag_37\n      jump\t// in\n    tag_67:\n        /* \"#utility.yul\":990:995   */\n      dup2\n        /* \"#utility.yul\":987:1022   */\n      eq\n        /* \"#utility.yul\":977:1040   */\n      tag_68\n      jumpi\n        /* \"#utility.yul\":1036:1037   */\n      0x00\n        /* \"#utility.yul\":1033:1034   */\n      dup1\n        /* \"#utility.yul\":1026:1038   */\n      revert\n        /* \"#utility.yul\":977:1040   */\n    tag_68:\n        /* \"#utility.yul\":924:1046   */\n      pop\n      jump\t// out\n        /* \"#utility.yul\":1052:1191   */\n    tag_39:\n        /* \"#utility.yul\":1098:1103   */\n      0x00\n        /* \"#utility.yul\":1136:1142   */\n      dup2\n        /* \"#utility.yul\":1123:1143   */\n      calldataload\n        /* \"#utility.yul\":1114:1143   */\n      swap1\n      pop\n        /* \"#utility.yul\":1152:1185   */\n      tag_70\n        /* \"#utility.yul\":1179:1184   */\n      dup2\n        /* \"#utility.yul\":1152:1185   */\n      tag_38\n      jump\t// in\n    tag_70:\n        /* \"#utility.yul\":1052:1191   */\n      swap3\n      swap2\n      pop\n      pop\n      jump\t// out\n        /* \"#utility.yul\":1197:1816   */\n    tag_8:\n        /* \"#utility.yul\":1274:1280   */\n      0x00\n        /* \"#utility.yul\":1282:1288   */\n      dup1\n        /* \"#utility.yul\":1290:1296   */\n      0x00\n        /* \"#utility.yul\":1339:1341   */\n      0x60\n        /* \"#utility.yul\":1327:1336   */\n      dup5\n        /* \"#utility.yul\":1318:1325   */\n      dup7\n        /* \"#utility.yul\":1314:1337   */\n      sub\n        /* \"#utility.yul\":1310:1342   */\n      slt\n        /* \"#utility.yul\":1307:1426   */\n      iszero\n      tag_72\n      jumpi\n        /* \"#utility.yul\":1345:1424   */\n      tag_73\n      tag_31\n      jump\t// in\n    tag_73:\n        /* \"#utility.yul\":1307:1426   */\n    tag_72:\n        /* \"#utility.yul\":1465:1466   */\n      0x00\n        /* \"#utility.yul\":1490:1543   */\n      tag_74\n        /* \"#utility.yul\":1535:1542   */\n      dup7\n        /* \"#utility.yul\":1526:1532   */\n      dup3\n        /* \"#utility.yul\":1515:1524   */\n      dup8\n        /* \"#utility.yul\":1511:1533   */\n      add\n        /* \"#utility.yul\":1490:1543   */\n      tag_36\n      jump\t// in\n    tag_74:\n        /* \"#utility.yul\":1480:1543   */\n      swap4\n      pop\n        /* \"#utility.yul\":1436:1553   */\n      pop\n        /* \"#utility.yul\":1592:1594   */\n      0x20\n        /* \"#utility.yul\":1618:1671   */\n      tag_75\n        /* \"#utility.yul\":1663:1670   */\n      dup7\n        /* \"#utility.yul\":1654:1660   */\n      dup3\n        /* \"#utility.yul\":1643:1652   */\n      dup8\n        /* \"#utility.yul\":1639:1661   */\n      add\n        /* \"#utility.yul\":1618:1671   */\n      tag_39\n      jump\t// in\n    tag_75:\n        /* \"#utility.yul\":1608:1671   */\n      swap3\n      pop\n        /* \"#utility.yul\":1563:1681   */\n      pop\n        /* \"#utility.yul\":1720:1722   */\n      0x40\n        /* \"#utility.yul\":1746:1799   */\n      tag_76\n        /* \"#utility.yul\":1791:1798   */\n      dup7\n        /* \"#utility.yul\":1782:1788   */\n      dup3\n        /* \"#utility.yul\":1771:1780   */\n      dup8\n        /* \"#utility.yul\":1767:1789   */\n      add\n        /* \"#utility.yul\":1746:1799   */\n      tag_39\n      jump\t// in\n    tag_76:\n        /* \"#utility.yul\":1736:1799   */\n      swap2\n      pop\n        /* \"#utility.yul\":1691:1809   */\n      pop\n        /* \"#utility.yul\":1197:1816   */\n      swap3\n      pop\n      swap3\n      pop\n      swap3\n      jump\t// out\n        /* \"#utility.yul\":1822:2151   */\n    tag_12:\n        /* \"#utility.yul\":1881:1887   */\n      0x00\n        /* \"#utility.yul\":1930:1932   */\n      0x20\n        /* \"#utility.yul\":1918:1927   */\n      dup3\n        /* \"#utility.yul\":1909:1916   */\n      dup5\n        /* \"#utility.yul\":1905:1928   */\n      sub\n        /* \"#utility.yul\":1901:1933   */\n      slt\n        /* \"#utility.yul\":1898:2017   */\n      iszero\n      tag_78\n      jumpi\n        /* \"#utility.yul\":1936:2015   */\n      tag_79\n      tag_31\n      jump\t// in\n    tag_79:\n        /* \"#utility.yul\":1898:2017   */\n    tag_78:\n        /* \"#utility.yul\":2056:2057   */\n      0x00\n        /* \"#utility.yul\":2081:2134   */\n      tag_80\n        /* \"#utility.yul\":2126:2133   */\n      dup5\n        /* \"#utility.yul\":2117:2123   */\n      dup3\n        /* \"#utility.yul\":2106:2115   */\n      dup6\n        /* \"#utility.yul\":2102:2124   */\n      add\n        /* \"#utility.yul\":2081:2134   */\n      tag_39\n      jump\t// in\n    tag_80:\n        /* \"#utility.yul\":2071:2134   */\n      swap2\n      pop\n        /* \"#utility.yul\":2027:2144   */\n      pop\n        /* \"#utility.yul\":1822:2151   */\n      swap3\n      swap2\n      pop\n      pop\n      jump\t// out\n        /* \"#utility.yul\":2157:2275   */\n    tag_40:\n        /* \"#utility.yul\":2244:2268   */\n      tag_82\n        /* \"#utility.yul\":2262:2267   */\n      dup2\n        /* \"#utility.yul\":2244:2268   */\n      tag_37\n      jump\t// in\n    tag_82:\n        /* \"#utility.yul\":2239:2242   */\n      dup3\n        /* \"#utility.yul\":2232:2269   */\n      mstore\n        /* \"#utility.yul\":2157:2275   */\n      pop\n      pop\n      jump\t// out\n        /* \"#utility.yul\":2281:2503   */\n    tag_15:\n        /* \"#utility.yul\":2374:2378   */\n      0x00\n        /* \"#utility.yul\":2412:2414   */\n      0x20\n        /* \"#utility.yul\":2401:2410   */\n      dup3\n        /* \"#utility.yul\":2397:2415   */\n      add\n        /* \"#utility.yul\":2389:2415   */\n      swap1\n      pop\n        /* \"#utility.yul\":2425:2496   */\n      tag_84\n        /* \"#utility.yul\":2493:2494   */\n      0x00\n        /* \"#utility.yul\":2482:2491   */\n      dup4\n        /* \"#utility.yul\":2478:2495   */\n      add\n        /* \"#utility.yul\":2469:2475   */\n      dup5\n        /* \"#utility.yul\":2425:2496   */\n      tag_40\n      jump\t// in\n    tag_84:\n        /* \"#utility.yul\":2281:2503   */\n      swap3\n      swap2\n      pop\n      pop\n      jump\t// out\n        /* \"#utility.yul\":2509:2569   */\n    tag_41:\n        /* \"#utility.yul\":2537:2540   */\n      0x00\n        /* \"#utility.yul\":2558:2563   */\n      dup2\n        /* \"#utility.yul\":2551:2563   */\n      swap1\n      pop\n        /* \"#utility.yul\":2509:2569   */\n      swap2\n      swap1\n      pop\n      jump\t// out\n        /* \"#utility.yul\":2575:2717   */\n    tag_42:\n        /* \"#utility.yul\":2625:2634   */\n      0x00\n        /* \"#utility.yul\":2658:2711   */\n      tag_87\n        /* \"#utility.yul\":2676:2710   */\n      tag_88\n        /* \"#utility.yul\":2685:2709   */\n      tag_89\n        /* \"#utility.yul\":2703:2708   */\n      dup5\n        /* \"#utility.yul\":2685:2709   */\n      tag_33\n      jump\t// in\n    tag_89:\n        /* \"#utility.yul\":2676:2710   */\n      tag_41\n      jump\t// in\n    tag_88:\n        /* \"#utility.yul\":2658:2711   */\n      tag_33\n      jump\t// in\n    tag_87:\n        /* \"#utility.yul\":2645:2711   */\n      swap1\n      pop\n        /* \"#utility.yul\":2575:2717   */\n      swap2\n      swap1\n      pop\n      jump\t// out\n        /* \"#utility.yul\":2723:2849   */\n    tag_43:\n        /* \"#utility.yul\":2773:2782   */\n      0x00\n        /* \"#utility.yul\":2806:2843   */\n      tag_91\n        /* \"#utility.yul\":2837:2842   */\n      dup3\n        /* \"#utility.yul\":2806:2843   */\n      tag_42\n      jump\t// in\n    tag_91:\n        /* \"#utility.yul\":2793:2843   */\n      swap1\n      pop\n        /* \"#utility.yul\":2723:2849   */\n      swap2\n      swap1\n      pop\n      jump\t// out\n        /* \"#utility.yul\":2855:2994   */\n    tag_44:\n        /* \"#utility.yul\":2918:2927   */\n      0x00\n        /* \"#utility.yul\":2951:2988   */\n      tag_93\n        /* \"#utility.yul\":2982:2987   */\n      dup3\n        /* \"#utility.yul\":2951:2988   */\n      tag_43\n      jump\t// in\n    tag_93:\n        /* \"#utility.yul\":2938:2988   */\n      swap1\n      pop\n        /* \"#utility.yul\":2855:2994   */\n      swap2\n      swap1\n      pop\n      jump\t// out\n        /* \"#utility.yul\":3000:3157   */\n    tag_45:\n        /* \"#utility.yul\":3100:3150   */\n      tag_95\n        /* \"#utility.yul\":3144:3149   */\n      dup2\n        /* \"#utility.yul\":3100:3150   */\n      tag_44\n      jump\t// in\n    tag_95:\n        /* \"#utility.yul\":3095:3098   */\n      dup3\n        /* \"#utility.yul\":3088:3151   */\n      mstore\n        /* \"#utility.yul\":3000:3157   */\n      pop\n      pop\n      jump\t// out\n        /* \"#utility.yul\":3163:3411   */\n    tag_19:\n        /* \"#utility.yul\":3269:3273   */\n      0x00\n        /* \"#utility.yul\":3307:3309   */\n      0x20\n        /* \"#utility.yul\":3296:3305   */\n      dup3\n        /* \"#utility.yul\":3292:3310   */\n      add\n        /* \"#utility.yul\":3284:3310   */\n      swap1\n      pop\n        /* \"#utility.yul\":3320:3404   */\n      tag_97\n        /* \"#utility.yul\":3401:3402   */\n      0x00\n        /* \"#utility.yul\":3390:3399   */\n      dup4\n        /* \"#utility.yul\":3386:3403   */\n      add\n        /* \"#utility.yul\":3377:3383   */\n      dup5\n        /* \"#utility.yul\":3320:3404   */\n      tag_45\n      jump\t// in\n    tag_97:\n        /* \"#utility.yul\":3163:3411   */\n      swap3\n      swap2\n      pop\n      pop\n      jump\t// out\n        /* \"#utility.yul\":3417:3535   */\n    tag_46:\n        /* \"#utility.yul\":3504:3528   */\n      tag_99\n        /* \"#utility.yul\":3522:3527   */\n      dup2\n        /* \"#utility.yul\":3504:3528   */\n      tag_34\n      jump\t// in\n    tag_99:\n        /* \"#utility.yul\":3499:3502   */\n      dup3\n        /* \"#utility.yul\":3492:3529   */\n      mstore\n        /* \"#utility.yul\":3417:3535   */\n      pop\n      pop\n      jump\t// out\n        /* \"#utility.yul\":3541:3983   */\n    tag_22:\n        /* \"#utility.yul\":3690:3694   */\n      0x00\n        /* \"#utility.yul\":3728:3730   */\n      0x60\n        /* \"#utility.yul\":3717:3726   */\n      dup3\n        /* \"#utility.yul\":3713:3731   */\n      add\n        /* \"#utility.yul\":3705:3731   */\n      swap1\n      pop\n        /* \"#utility.yul\":3741:3812   */\n      tag_101\n        /* \"#utility.yul\":3809:3810   */\n      0x00\n        /* \"#utility.yul\":3798:3807   */\n      dup4\n        /* \"#utility.yul\":3794:3811   */\n      add\n        /* \"#utility.yul\":3785:3791   */\n      dup7\n        /* \"#utility.yul\":3741:3812   */\n      tag_46\n      jump\t// in\n    tag_101:\n        /* \"#utility.yul\":3822:3894   */\n      tag_102\n        /* \"#utility.yul\":3890:3892   */\n      0x20\n        /* \"#utility.yul\":3879:3888   */\n      dup4\n        /* \"#utility.yul\":3875:3893   */\n      add\n        /* \"#utility.yul\":3866:3872   */\n      dup6\n        /* \"#utility.yul\":3822:3894   */\n      tag_46\n      jump\t// in\n    tag_102:\n        /* \"#utility.yul\":3904:3976   */\n      tag_103\n        /* \"#utility.yul\":3972:3974   */\n      0x40\n        /* \"#utility.yul\":3961:3970   */\n      dup4\n        /* \"#utility.yul\":3957:3975   */\n      add\n        /* \"#utility.yul\":3948:3954   */\n      dup5\n        /* \"#utility.yul\":3904:3976   */\n      tag_40\n      jump\t// in\n    tag_103:\n        /* \"#utility.yul\":3541:3983   */\n      swap5\n      swap4\n      pop\n      pop\n      pop\n      pop\n      jump\t// out\n        /* \"#utility.yul\":3989:4079   */\n    tag_47:\n        /* \"#utility.yul\":4023:4030   */\n      0x00\n        /* \"#utility.yul\":4066:4071   */\n      dup2\n        /* \"#utility.yul\":4059:4072   */\n      iszero\n        /* \"#utility.yul\":4052:4073   */\n      iszero\n        /* \"#utility.yul\":4041:4073   */\n      swap1\n      pop\n        /* \"#utility.yul\":3989:4079   */\n      swap2\n      swap1\n      pop\n      jump\t// out\n        /* \"#utility.yul\":4085:4201   */\n    tag_48:\n        /* \"#utility.yul\":4155:4176   */\n      tag_106\n        /* \"#utility.yul\":4170:4175   */\n      dup2\n        /* \"#utility.yul\":4155:4176   */\n      tag_47\n      jump\t// in\n    tag_106:\n        /* \"#utility.yul\":4148:4153   */\n      dup2\n        /* \"#utility.yul\":4145:4177   */\n      eq\n        /* \"#utility.yul\":4135:4195   */\n      tag_107\n      jumpi\n        /* \"#utility.yul\":4191:4192   */\n      0x00\n        /* \"#utility.yul\":4188:4189   */\n      dup1\n        /* \"#utility.yul\":4181:4193   */\n      revert\n        /* \"#utility.yul\":4135:4195   */\n    tag_107:\n        /* \"#utility.yul\":4085:4201   */\n      pop\n      jump\t// out\n        /* \"#utility.yul\":4207:4344   */\n    tag_49:\n        /* \"#utility.yul\":4261:4266   */\n      0x00\n        /* \"#utility.yul\":4292:4298   */\n      dup2\n        /* \"#utility.yul\":4286:4299   */\n      mload\n        /* \"#utility.yul\":4277:4299   */\n      swap1\n      pop\n        /* \"#utility.yul\":4308:4338   */\n      tag_109\n        /* \"#utility.yul\":4332:4337   */\n      dup2\n        /* \"#utility.yul\":4308:4338   */\n      tag_48\n      jump\t// in\n    tag_109:\n        /* \"#utility.yul\":4207:4344   */\n      swap3\n      swap2\n      pop\n      pop\n      jump\t// out\n        /* \"#utility.yul\":4350:4695   */\n    tag_26:\n        /* \"#utility.yul\":4417:4423   */\n      0x00\n        /* \"#utility.yul\":4466:4468   */\n      0x20\n        /* \"#utility.yul\":4454:4463   */\n      dup3\n        /* \"#utility.yul\":4445:4452   */\n      dup5\n        /* \"#utility.yul\":4441:4464   */\n      sub\n        /* \"#utility.yul\":4437:4469   */\n      slt\n        /* \"#utility.yul\":4434:4553   */\n      iszero\n      tag_111\n      jumpi\n        /* \"#utility.yul\":4472:4551   */\n      tag_112\n      tag_31\n      jump\t// in\n    tag_112:\n        /* \"#utility.yul\":4434:4553   */\n    tag_111:\n        /* \"#utility.yul\":4592:4593   */\n      0x00\n        /* \"#utility.yul\":4617:4678   */\n      tag_113\n        /* \"#utility.yul\":4670:4677   */\n      dup5\n        /* \"#utility.yul\":4661:4667   */\n      dup3\n        /* \"#utility.yul\":4650:4659   */\n      dup6\n        /* \"#utility.yul\":4646:4668   */\n      add\n        /* \"#utility.yul\":4617:4678   */\n      tag_49\n      jump\t// in\n    tag_113:\n        /* \"#utility.yul\":4607:4678   */\n      swap2\n      pop\n        /* \"#utility.yul\":4563:4688   */\n      pop\n        /* \"#utility.yul\":4350:4695   */\n      swap3\n      swap2\n      pop\n      pop\n      jump\t// out\n        /* \"#utility.yul\":4701:4870   */\n    tag_50:\n        /* \"#utility.yul\":4785:4796   */\n      0x00\n        /* \"#utility.yul\":4819:4825   */\n      dup3\n        /* \"#utility.yul\":4814:4817   */\n      dup3\n        /* \"#utility.yul\":4807:4826   */\n      mstore\n        /* \"#utility.yul\":4859:4863   */\n      0x20\n        /* \"#utility.yul\":4854:4857   */\n      dup3\n        /* \"#utility.yul\":4850:4864   */\n      add\n        /* \"#utility.yul\":4835:4864   */\n      swap1\n      pop\n        /* \"#utility.yul\":4701:4870   */\n      swap3\n      swap2\n      pop\n      pop\n      jump\t// out\n        /* \"#utility.yul\":4876:5053   */\n    tag_51:\n        /* \"#utility.yul\":5016:5045   */\n      0x5472616e7366657220746f20636f6e7472616374206661696c65640000000000\n        /* \"#utility.yul\":5012:5013   */\n      0x00\n        /* \"#utility.yul\":5004:5010   */\n      dup3\n        /* \"#utility.yul\":5000:5014   */\n      add\n        /* \"#utility.yul\":4993:5046   */\n      mstore\n        /* \"#utility.yul\":4876:5053   */\n      pop\n      jump\t// out\n        /* \"#utility.yul\":5059:5425   */\n    tag_52:\n        /* \"#utility.yul\":5201:5204   */\n      0x00\n        /* \"#utility.yul\":5222:5289   */\n      tag_117\n        /* \"#utility.yul\":5286:5288   */\n      0x1b\n        /* \"#utility.yul\":5281:5284   */\n      dup4\n        /* \"#utility.yul\":5222:5289   */\n      tag_50\n      jump\t// in\n    tag_117:\n        /* \"#utility.yul\":5215:5289   */\n      swap2\n      pop\n        /* \"#utility.yul\":5298:5391   */\n      tag_118\n        /* \"#utility.yul\":5387:5390   */\n      dup3\n        /* \"#utility.yul\":5298:5391   */\n      tag_51\n      jump\t// in\n    tag_118:\n        /* \"#utility.yul\":5416:5418   */\n      0x20\n        /* \"#utility.yul\":5411:5414   */\n      dup3\n        /* \"#utility.yul\":5407:5419   */\n      add\n        /* \"#utility.yul\":5400:5419   */\n      swap1\n      pop\n        /* \"#utility.yul\":5059:5425   */\n      swap2\n      swap1\n      pop\n      jump\t// out\n        /* \"#utility.yul\":5431:5850   */\n    tag_29:\n        /* \"#utility.yul\":5597:5601   */\n      0x00\n        /* \"#utility.yul\":5635:5637   */\n      0x20\n        /* \"#utility.yul\":5624:5633   */\n      dup3\n        /* \"#utility.yul\":5620:5638   */\n      add\n        /* \"#utility.yul\":5612:5638   */\n      swap1\n      pop\n        /* \"#utility.yul\":5684:5693   */\n      dup2\n        /* \"#utility.yul\":5678:5682   */\n      dup2\n        /* \"#utility.yul\":5674:5694   */\n      sub\n        /* \"#utility.yul\":5670:5671   */\n      0x00\n        /* \"#utility.yul\":5659:5668   */\n      dup4\n        /* \"#utility.yul\":5655:5672   */\n      add\n        /* \"#utility.yul\":5648:5695   */\n      mstore\n        /* \"#utility.yul\":5712:5843   */\n      tag_120\n        /* \"#utility.yul\":5838:5842   */\n      dup2\n        /* \"#utility.yul\":5712:5843   */\n      tag_52\n      jump\t// in\n    tag_120:\n        /* \"#utility.yul\":5704:5843   */\n      swap1\n      pop\n        /* \"#utility.yul\":5431:5850   */\n      swap2\n      swap1\n      pop\n      jump\t// out\n\n    auxdata: 0xa2646970667358221220ba5d5e807d2667fcdea47c2d7d368261a205636ea98aa8126f3a069c084faedd64736f6c63430008140033\n}\n",
				"bytecode": {
					"linkReferences": {},
					"object": "608060405234801561000f575f80fd5b506040516105e73803806105e7833981810160405281019061003191906100d4565b805f806101000a81548173ffffffffffffffffffffffffffffffffffffffff021916908373ffffffffffffffffffffffffffffffffffffffff160217905550506100ff565b5f80fd5b5f73ffffffffffffffffffffffffffffffffffffffff82169050919050565b5f6100a38261007a565b9050919050565b6100b381610099565b81146100bd575f80fd5b50565b5f815190506100ce816100aa565b92915050565b5f602082840312156100e9576100e8610076565b5b5f6100f6848285016100c0565b91505092915050565b6104db8061010c5f395ff3fe608060405234801561000f575f80fd5b506004361061003f575f3560e01c80630efe6a8b146100435780639377d7111461005f578063fc0c546a1461008f575b5f80fd5b61005d60048036038101906100589190610272565b6100ad565b005b610079600480360381019061007491906102c2565b6101a9565b60405161008691906102fc565b60405180910390f35b6100976101be565b6040516100a49190610370565b60405180910390f35b5f805f9054906101000a900473ffffffffffffffffffffffffffffffffffffffff1673ffffffffffffffffffffffffffffffffffffffff166323b872dd8530866040518463ffffffff1660e01b815260040161010b93929190610398565b6020604051808303815f875af1158015610127573d5f803e3d5ffd5b505050506040513d601f19601f8201168201806040525081019061014b9190610402565b90508260015f8481526020019081526020015f2081905550806101a3576040517f08c379a000000000000000000000000000000000000000000000000000000000815260040161019a90610487565b60405180910390fd5b50505050565b6001602052805f5260405f205f915090505481565b5f8054906101000a900473ffffffffffffffffffffffffffffffffffffffff1681565b5f80fd5b5f73ffffffffffffffffffffffffffffffffffffffff82169050919050565b5f61020e826101e5565b9050919050565b61021e81610204565b8114610228575f80fd5b50565b5f8135905061023981610215565b92915050565b5f819050919050565b6102518161023f565b811461025b575f80fd5b50565b5f8135905061026c81610248565b92915050565b5f805f60608486031215610289576102886101e1565b5b5f6102968682870161022b565b93505060206102a78682870161025e565b92505060406102b88682870161025e565b9150509250925092565b5f602082840312156102d7576102d66101e1565b5b5f6102e48482850161025e565b91505092915050565b6102f68161023f565b82525050565b5f60208201905061030f5f8301846102ed565b92915050565b5f819050919050565b5f61033861033361032e846101e5565b610315565b6101e5565b9050919050565b5f6103498261031e565b9050919050565b5f61035a8261033f565b9050919050565b61036a81610350565b82525050565b5f6020820190506103835f830184610361565b92915050565b61039281610204565b82525050565b5f6060820190506103ab5f830186610389565b6103b86020830185610389565b6103c560408301846102ed565b949350505050565b5f8115159050919050565b6103e1816103cd565b81146103eb575f80fd5b50565b5f815190506103fc816103d8565b92915050565b5f60208284031215610417576104166101e1565b5b5f610424848285016103ee565b91505092915050565b5f82825260208201905092915050565b7f5472616e7366657220746f20636f6e7472616374206661696c656400000000005f82015250565b5f610471601b8361042d565b915061047c8261043d565b602082019050919050565b5f6020820190508181035f83015261049e81610465565b905091905056fea2646970667358221220ba5d5e807d2667fcdea47c2d7d368261a205636ea98aa8126f3a069c084faedd64736f6c63430008140033",
					"opcodes": "PUSH1 0x80 PUSH1 0x40 MSTORE CALLVALUE DUP1 ISZERO PUSH2 0xF JUMPI PUSH0 DUP1 REVERT JUMPDEST POP PUSH1 0x40 MLOAD PUSH2 0x5E7 CODESIZE SUB DUP1 PUSH2 0x5E7 DUP4 CODECOPY DUP2 DUP2 ADD PUSH1 0x40 MSTORE DUP2 ADD SWAP1 PUSH2 0x31 SWAP2 SWAP1 PUSH2 0xD4 JUMP JUMPDEST DUP1 PUSH0 DUP1 PUSH2 0x100 EXP DUP2 SLOAD DUP2 PUSH20 0xFFFFFFFFFFFFFFFFFFFFFFFFFFFFFFFFFFFFFFFF MUL NOT AND SWAP1 DUP4 PUSH20 0xFFFFFFFFFFFFFFFFFFFFFFFFFFFFFFFFFFFFFFFF AND MUL OR SWAP1 SSTORE POP POP PUSH2 0xFF JUMP JUMPDEST PUSH0 DUP1 REVERT JUMPDEST PUSH0 PUSH20 0xFFFFFFFFFFFFFFFFFFFFFFFFFFFFFFFFFFFFFFFF DUP3 AND SWAP1 POP SWAP2 SWAP1 POP JUMP JUMPDEST PUSH0 PUSH2 0xA3 DUP3 PUSH2 0x7A JUMP JUMPDEST SWAP1 POP SWAP2 SWAP1 POP JUMP JUMPDEST PUSH2 0xB3 DUP2 PUSH2 0x99 JUMP JUMPDEST DUP2 EQ PUSH2 0xBD JUMPI PUSH0 DUP1 REVERT JUMPDEST POP JUMP JUMPDEST PUSH0 DUP2 MLOAD SWAP1 POP PUSH2 0xCE DUP2 PUSH2 0xAA JUMP JUMPDEST SWAP3 SWAP2 POP POP JUMP JUMPDEST PUSH0 PUSH1 0x20 DUP3 DUP5 SUB SLT ISZERO PUSH2 0xE9 JUMPI PUSH2 0xE8 PUSH2 0x76 JUMP JUMPDEST JUMPDEST PUSH0 PUSH2 0xF6 DUP5 DUP3 DUP6 ADD PUSH2 0xC0 JUMP JUMPDEST SWAP2 POP POP SWAP3 SWAP2 POP POP JUMP JUMPDEST PUSH2 0x4DB DUP1 PUSH2 0x10C PUSH0 CODECOPY PUSH0 RETURN INVALID PUSH1 0x80 PUSH1 0x40 MSTORE CALLVALUE DUP1 ISZERO PUSH2 0xF JUMPI PUSH0 DUP1 REVERT JUMPDEST POP PUSH1 0x4 CALLDATASIZE LT PUSH2 0x3F JUMPI PUSH0 CALLDATALOAD PUSH1 0xE0 SHR DUP1 PUSH4 0xEFE6A8B EQ PUSH2 0x43 JUMPI DUP1 PUSH4 0x9377D711 EQ PUSH2 0x5F JUMPI DUP1 PUSH4 0xFC0C546A EQ PUSH2 0x8F JUMPI JUMPDEST PUSH0 DUP1 REVERT JUMPDEST PUSH2 0x5D PUSH1 0x4 DUP1 CALLDATASIZE SUB DUP2 ADD SWAP1 PUSH2 0x58 SWAP2 SWAP1 PUSH2 0x272 JUMP JUMPDEST PUSH2 0xAD JUMP JUMPDEST STOP JUMPDEST PUSH2 0x79 PUSH1 0x4 DUP1 CALLDATASIZE SUB DUP2 ADD SWAP1 PUSH2 0x74 SWAP2 SWAP1 PUSH2 0x2C2 JUMP JUMPDEST PUSH2 0x1A9 JUMP JUMPDEST PUSH1 0x40 MLOAD PUSH2 0x86 SWAP2 SWAP1 PUSH2 0x2FC JUMP JUMPDEST PUSH1 0x40 MLOAD DUP1 SWAP2 SUB SWAP1 RETURN JUMPDEST PUSH2 0x97 PUSH2 0x1BE JUMP JUMPDEST PUSH1 0x40 MLOAD PUSH2 0xA4 SWAP2 SWAP1 PUSH2 0x370 JUMP JUMPDEST PUSH1 0x40 MLOAD DUP1 SWAP2 SUB SWAP1 RETURN JUMPDEST PUSH0 DUP1 PUSH0 SWAP1 SLOAD SWAP1 PUSH2 0x100 EXP SWAP1 DIV PUSH20 0xFFFFFFFFFFFFFFFFFFFFFFFFFFFFFFFFFFFFFFFF AND PUSH20 0xFFFFFFFFFFFFFFFFFFFFFFFFFFFFFFFFFFFFFFFF AND PUSH4 0x23B872DD DUP6 ADDRESS DUP7 PUSH1 0x40 MLOAD DUP5 PUSH4 0xFFFFFFFF AND PUSH1 0xE0 SHL DUP2 MSTORE PUSH1 0x4 ADD PUSH2 0x10B SWAP4 SWAP3 SWAP2 SWAP1 PUSH2 0x398 JUMP JUMPDEST PUSH1 0x20 PUSH1 0x40 MLOAD DUP1 DUP4 SUB DUP2 PUSH0 DUP8 GAS CALL ISZERO DUP1 ISZERO PUSH2 0x127 JUMPI RETURNDATASIZE PUSH0 DUP1 RETURNDATACOPY RETURNDATASIZE PUSH0 REVERT JUMPDEST POP POP POP POP PUSH1 0x40 MLOAD RETURNDATASIZE PUSH1 0x1F NOT PUSH1 0x1F DUP3 ADD AND DUP3 ADD DUP1 PUSH1 0x40 MSTORE POP DUP2 ADD SWAP1 PUSH2 0x14B SWAP2 SWAP1 PUSH2 0x402 JUMP JUMPDEST SWAP1 POP DUP3 PUSH1 0x1 PUSH0 DUP5 DUP2 MSTORE PUSH1 0x20 ADD SWAP1 DUP2 MSTORE PUSH1 0x20 ADD PUSH0 KECCAK256 DUP2 SWAP1 SSTORE POP DUP1 PUSH2 0x1A3 JUMPI PUSH1 0x40 MLOAD PUSH32 0x8C379A000000000000000000000000000000000000000000000000000000000 DUP2 MSTORE PUSH1 0x4 ADD PUSH2 0x19A SWAP1 PUSH2 0x487 JUMP JUMPDEST PUSH1 0x40 MLOAD DUP1 SWAP2 SUB SWAP1 REVERT JUMPDEST POP POP POP POP JUMP JUMPDEST PUSH1 0x1 PUSH1 0x20 MSTORE DUP1 PUSH0 MSTORE PUSH1 0x40 PUSH0 KECCAK256 PUSH0 SWAP2 POP SWAP1 POP SLOAD DUP2 JUMP JUMPDEST PUSH0 DUP1 SLOAD SWAP1 PUSH2 0x100 EXP SWAP1 DIV PUSH20 0xFFFFFFFFFFFFFFFFFFFFFFFFFFFFFFFFFFFFFFFF AND DUP2 JUMP JUMPDEST PUSH0 DUP1 REVERT JUMPDEST PUSH0 PUSH20 0xFFFFFFFFFFFFFFFFFFFFFFFFFFFFFFFFFFFFFFFF DUP3 AND SWAP1 POP SWAP2 SWAP1 POP JUMP JUMPDEST PUSH0 PUSH2 0x20E DUP3 PUSH2 0x1E5 JUMP JUMPDEST SWAP1 POP SWAP2 SWAP1 POP JUMP JUMPDEST PUSH2 0x21E DUP2 PUSH2 0x204 JUMP JUMPDEST DUP2 EQ PUSH2 0x228 JUMPI PUSH0 DUP1 REVERT JUMPDEST POP JUMP JUMPDEST PUSH0 DUP2 CALLDATALOAD SWAP1 POP PUSH2 0x239 DUP2 PUSH2 0x215 JUMP JUMPDEST SWAP3 SWAP2 POP POP JUMP JUMPDEST PUSH0 DUP2 SWAP1 POP SWAP2 SWAP1 POP JUMP JUMPDEST PUSH2 0x251 DUP2 PUSH2 0x23F JUMP JUMPDEST DUP2 EQ PUSH2 0x25B JUMPI PUSH0 DUP1 REVERT JUMPDEST POP JUMP JUMPDEST PUSH0 DUP2 CALLDATALOAD SWAP1 POP PUSH2 0x26C DUP2 PUSH2 0x248 JUMP JUMPDEST SWAP3 SWAP2 POP POP JUMP JUMPDEST PUSH0 DUP1 PUSH0 PUSH1 0x60 DUP5 DUP7 SUB SLT ISZERO PUSH2 0x289 JUMPI PUSH2 0x288 PUSH2 0x1E1 JUMP JUMPDEST JUMPDEST PUSH0 PUSH2 0x296 DUP7 DUP3 DUP8 ADD PUSH2 0x22B JUMP JUMPDEST SWAP4 POP POP PUSH1 0x20 PUSH2 0x2A7 DUP7 DUP3 DUP8 ADD PUSH2 0x25E JUMP JUMPDEST SWAP3 POP POP PUSH1 0x40 PUSH2 0x2B8 DUP7 DUP3 DUP8 ADD PUSH2 0x25E JUMP JUMPDEST SWAP2 POP POP SWAP3 POP SWAP3 POP SWAP3 JUMP JUMPDEST PUSH0 PUSH1 0x20 DUP3 DUP5 SUB SLT ISZERO PUSH2 0x2D7 JUMPI PUSH2 0x2D6 PUSH2 0x1E1 JUMP JUMPDEST JUMPDEST PUSH0 PUSH2 0x2E4 DUP5 DUP3 DUP6 ADD PUSH2 0x25E JUMP JUMPDEST SWAP2 POP POP SWAP3 SWAP2 POP POP JUMP JUMPDEST PUSH2 0x2F6 DUP2 PUSH2 0x23F JUMP JUMPDEST DUP3 MSTORE POP POP JUMP JUMPDEST PUSH0 PUSH1 0x20 DUP3 ADD SWAP1 POP PUSH2 0x30F PUSH0 DUP4 ADD DUP5 PUSH2 0x2ED JUMP JUMPDEST SWAP3 SWAP2 POP POP JUMP JUMPDEST PUSH0 DUP2 SWAP1 POP SWAP2 SWAP1 POP JUMP JUMPDEST PUSH0 PUSH2 0x338 PUSH2 0x333 PUSH2 0x32E DUP5 PUSH2 0x1E5 JUMP JUMPDEST PUSH2 0x315 JUMP JUMPDEST PUSH2 0x1E5 JUMP JUMPDEST SWAP1 POP SWAP2 SWAP1 POP JUMP JUMPDEST PUSH0 PUSH2 0x349 DUP3 PUSH2 0x31E JUMP JUMPDEST SWAP1 POP SWAP2 SWAP1 POP JUMP JUMPDEST PUSH0 PUSH2 0x35A DUP3 PUSH2 0x33F JUMP JUMPDEST SWAP1 POP SWAP2 SWAP1 POP JUMP JUMPDEST PUSH2 0x36A DUP2 PUSH2 0x350 JUMP JUMPDEST DUP3 MSTORE POP POP JUMP JUMPDEST PUSH0 PUSH1 0x20 DUP3 ADD SWAP1 POP PUSH2 0x383 PUSH0 DUP4 ADD DUP5 PUSH2 0x361 JUMP JUMPDEST SWAP3 SWAP2 POP POP JUMP JUMPDEST PUSH2 0x392 DUP2 PUSH2 0x204 JUMP JUMPDEST DUP3 MSTORE POP POP JUMP JUMPDEST PUSH0 PUSH1 0x60 DUP3 ADD SWAP1 POP PUSH2 0x3AB PUSH0 DUP4 ADD DUP7 PUSH2 0x389 JUMP JUMPDEST PUSH2 0x3B8 PUSH1 0x20 DUP4 ADD DUP6 PUSH2 0x389 JUMP JUMPDEST PUSH2 0x3C5 PUSH1 0x40 DUP4 ADD DUP5 PUSH2 0x2ED JUMP JUMPDEST SWAP5 SWAP4 POP POP POP POP JUMP JUMPDEST PUSH0 DUP2 ISZERO ISZERO SWAP1 POP SWAP2 SWAP1 POP JUMP JUMPDEST PUSH2 0x3E1 DUP2 PUSH2 0x3CD JUMP JUMPDEST DUP2 EQ PUSH2 0x3EB JUMPI PUSH0 DUP1 REVERT JUMPDEST POP JUMP JUMPDEST PUSH0 DUP2 MLOAD SWAP1 POP PUSH2 0x3FC DUP2 PUSH2 0x3D8 JUMP JUMPDEST SWAP3 SWAP2 POP POP JUMP JUMPDEST PUSH0 PUSH1 0x20 DUP3 DUP5 SUB SLT ISZERO PUSH2 0x417 JUMPI PUSH2 0x416 PUSH2 0x1E1 JUMP JUMPDEST JUMPDEST PUSH0 PUSH2 0x424 DUP5 DUP3 DUP6 ADD PUSH2 0x3EE JUMP JUMPDEST SWAP2 POP POP SWAP3 SWAP2 POP POP JUMP JUMPDEST PUSH0 DUP3 DUP3 MSTORE PUSH1 0x20 DUP3 ADD SWAP1 POP SWAP3 SWAP2 POP POP JUMP JUMPDEST PUSH32 0x5472616E7366657220746F20636F6E7472616374206661696C65640000000000 PUSH0 DUP3 ADD MSTORE POP JUMP JUMPDEST PUSH0 PUSH2 0x471 PUSH1 0x1B DUP4 PUSH2 0x42D JUMP JUMPDEST SWAP2 POP PUSH2 0x47C DUP3 PUSH2 0x43D JUMP JUMPDEST PUSH1 0x20 DUP3 ADD SWAP1 POP SWAP2 SWAP1 POP JUMP JUMPDEST PUSH0 PUSH1 0x20 DUP3 ADD SWAP1 POP DUP2 DUP2 SUB PUSH0 DUP4 ADD MSTORE PUSH2 0x49E DUP2 PUSH2 0x465 JUMP JUMPDEST SWAP1 POP SWAP2 SWAP1 POP JUMP INVALID LOG2 PUSH5 0x6970667358 0x22 SLT KECCAK256 0xBA 0x5D 0x5E DUP1 PUSH30 0x2667FCDEA47C2D7D368261A205636EA98AA8126F3A069C084FAEDD64736F PUSH13 0x63430008140033000000000000 "
				},
				"gasEstimates": {
					"creation": {
						"codeDepositCost": "248600",
						"executionCost": "infinite",
						"totalCost": "infinite"
					},
					"external": {
						"deposit(address,uint256,uint256)": "infinite",
						"token()": "infinite",
						"transfers(uint256)": "infinite"
					}
				},
				"methodIdentifiers": {
					"deposit(address,uint256,uint256)": "0efe6a8b",
					"token()": "fc0c546a",
					"transfers(uint256)": "9377d711"
				}
			},
			"storageLayout": {
				"storage": [
					{
						"astId": 25,
						"contract": "CriptoXMC/transfer.sol:MainXM",
						"label": "token",
						"offset": 0,
						"slot": "0",
						"type": "t_contract(IERC20)22"
					},
					{
						"astId": 41,
						"contract": "CriptoXMC/transfer.sol:MainXM",
						"label": "transfers",
						"offset": 0,
						"slot": "1",
						"type": "t_mapping(t_uint256,t_uint256)"
					}
				],
				"types": {
					"t_contract(IERC20)22": {
						"encoding": "inplace",
						"label": "contract IERC20",
						"numberOfBytes": "20"
					},
					"t_mapping(t_uint256,t_uint256)": {
						"encoding": "mapping",
						"key": "t_uint256",
						"label": "mapping(uint256 => uint256)",
						"numberOfBytes": "32",
						"value": "t_uint256"
					},
					"t_uint256": {
						"encoding": "inplace",
						"label": "uint256",
						"numberOfBytes": "32"
					}
				}
			},
			"userdoc": {
				"kind": "user",
				"methods": {},
				"version": 1
			}
		}
	}
}