{
	"CriptoXMC/transfer.sol": {
		"MainXM": {
			"abi": [
				{
					"inputs": [
						{
							"internalType": "address",
							"name": "_token",
							"type": "address"
						},
						{
							"internalType": "address",
							"name": "initialOwner",
							"type": "address"
						},
						{
							"internalType": "address",
							"name": "withdrawalInitialOwner",
							"type": "address"
						}
					],
					"stateMutability": "nonpayable",
					"type": "constructor"
				},
				{
					"anonymous": false,
					"inputs": [
						{
							"indexed": false,
							"internalType": "string",
							"name": "message",
							"type": "string"
						}
					],
					"name": "ack",
					"type": "event"
				},
				{
					"inputs": [
						{
							"internalType": "address",
							"name": "_sender",
							"type": "address"
						},
						{
							"internalType": "uint256",
							"name": "_amount",
							"type": "uint256"
						},
						{
							"internalType": "string",
							"name": "_idTrx",
							"type": "string"
						},
						{
							"internalType": "string",
							"name": "_signature",
							"type": "string"
						}
					],
					"name": "deposit",
					"outputs": [],
					"stateMutability": "nonpayable",
					"type": "function"
				},
				{
					"inputs": [],
					"name": "owner",
					"outputs": [
						{
							"internalType": "address",
							"name": "",
							"type": "address"
						}
					],
					"stateMutability": "view",
					"type": "function"
				},
				{
					"inputs": [
						{
							"internalType": "string",
							"name": "",
							"type": "string"
						}
					],
					"name": "signatures",
					"outputs": [
						{
							"internalType": "string",
							"name": "",
							"type": "string"
						}
					],
					"stateMutability": "view",
					"type": "function"
				},
				{
					"inputs": [],
					"name": "token",
					"outputs": [
						{
							"internalType": "contract IERC20",
							"name": "",
							"type": "address"
						}
					],
					"stateMutability": "view",
					"type": "function"
				},
				{
					"inputs": [
						{
							"internalType": "string",
							"name": "",
							"type": "string"
						}
					],
					"name": "transfers",
					"outputs": [
						{
							"internalType": "uint256",
							"name": "",
							"type": "uint256"
						}
					],
					"stateMutability": "view",
					"type": "function"
				},
				{
					"inputs": [
						{
							"internalType": "address",
							"name": "_receiver",
							"type": "address"
						},
						{
							"internalType": "uint256",
							"name": "_amount",
							"type": "uint256"
						}
					],
					"name": "withdraw",
					"outputs": [],
					"stateMutability": "nonpayable",
					"type": "function"
				},
				{
					"inputs": [],
					"name": "withdrawalOwner",
					"outputs": [
						{
							"internalType": "address",
							"name": "",
							"type": "address"
						}
					],
					"stateMutability": "view",
					"type": "function"
				}
			],
			"devdoc": {
				"kind": "dev",
				"methods": {},
				"version": 1
			},
			"evm": {
				"assembly": "    /* \"CriptoXMC/transfer.sol\":291:2363  contract MainXM {... */\n  mstore(0x40, 0x80)\n    /* \"CriptoXMC/transfer.sol\":477:809  constructor(address _token, address initialOwner, address withdrawalInitialOwner) {... */\n  callvalue\n  dup1\n  iszero\n  tag_1\n  jumpi\n  0x00\n  dup1\n  revert\ntag_1:\n  pop\n  mload(0x40)\n  sub(codesize, bytecodeSize)\n  dup1\n  bytecodeSize\n  dup4\n  codecopy\n  dup2\n  dup2\n  add\n  0x40\n  mstore\n  dup2\n  add\n  swap1\n  tag_2\n  swap2\n  swap1\n  tag_3\n  jump\t// in\ntag_2:\n    /* \"CriptoXMC/transfer.sol\":578:590  initialOwner */\n  dup2\n    /* \"CriptoXMC/transfer.sol\":570:575  owner */\n  0x01\n  0x00\n    /* \"CriptoXMC/transfer.sol\":570:590  owner = initialOwner */\n  0x0100\n  exp\n  dup2\n  sload\n  dup2\n  0xffffffffffffffffffffffffffffffffffffffff\n  mul\n  not\n  and\n  swap1\n  dup4\n  0xffffffffffffffffffffffffffffffffffffffff\n  and\n  mul\n  or\n  swap1\n  sstore\n  pop\n    /* \"CriptoXMC/transfer.sol\":616:622  _token */\n  dup3\n    /* \"CriptoXMC/transfer.sol\":601:606  token */\n  0x00\n  dup1\n    /* \"CriptoXMC/transfer.sol\":601:623  token = IERC20(_token) */\n  0x0100\n  exp\n  dup2\n  sload\n  dup2\n  0xffffffffffffffffffffffffffffffffffffffff\n  mul\n  not\n  and\n  swap1\n  dup4\n  0xffffffffffffffffffffffffffffffffffffffff\n  and\n  mul\n  or\n  swap1\n  sstore\n  pop\n    /* \"CriptoXMC/transfer.sol\":737:759  withdrawalInitialOwner */\n  dup1\n    /* \"CriptoXMC/transfer.sol\":719:734  withdrawalOwner */\n  0x02\n  0x00\n    /* \"CriptoXMC/transfer.sol\":719:759  withdrawalOwner = withdrawalInitialOwner */\n  0x0100\n  exp\n  dup2\n  sload\n  dup2\n  0xffffffffffffffffffffffffffffffffffffffff\n  mul\n  not\n  and\n  swap1\n  dup4\n  0xffffffffffffffffffffffffffffffffffffffff\n  and\n  mul\n  or\n  swap1\n  sstore\n  pop\n    /* \"CriptoXMC/transfer.sol\":477:809  constructor(address _token, address initialOwner, address withdrawalInitialOwner) {... */\n  pop\n  pop\n  pop\n    /* \"CriptoXMC/transfer.sol\":291:2363  contract MainXM {... */\n  jump(tag_6)\n    /* \"#utility.yul\":88:205   */\ntag_8:\n    /* \"#utility.yul\":197:198   */\n  0x00\n    /* \"#utility.yul\":194:195   */\n  dup1\n    /* \"#utility.yul\":187:199   */\n  revert\n    /* \"#utility.yul\":334:460   */\ntag_10:\n    /* \"#utility.yul\":371:378   */\n  0x00\n    /* \"#utility.yul\":411:453   */\n  0xffffffffffffffffffffffffffffffffffffffff\n    /* \"#utility.yul\":404:409   */\n  dup3\n    /* \"#utility.yul\":400:454   */\n  and\n    /* \"#utility.yul\":389:454   */\n  swap1\n  pop\n    /* \"#utility.yul\":334:460   */\n  swap2\n  swap1\n  pop\n  jump\t// out\n    /* \"#utility.yul\":466:562   */\ntag_11:\n    /* \"#utility.yul\":503:510   */\n  0x00\n    /* \"#utility.yul\":532:556   */\n  tag_20\n    /* \"#utility.yul\":550:555   */\n  dup3\n    /* \"#utility.yul\":532:556   */\n  tag_10\n  jump\t// in\ntag_20:\n    /* \"#utility.yul\":521:556   */\n  swap1\n  pop\n    /* \"#utility.yul\":466:562   */\n  swap2\n  swap1\n  pop\n  jump\t// out\n    /* \"#utility.yul\":568:690   */\ntag_12:\n    /* \"#utility.yul\":641:665   */\n  tag_22\n    /* \"#utility.yul\":659:664   */\n  dup2\n    /* \"#utility.yul\":641:665   */\n  tag_11\n  jump\t// in\ntag_22:\n    /* \"#utility.yul\":634:639   */\n  dup2\n    /* \"#utility.yul\":631:666   */\n  eq\n    /* \"#utility.yul\":621:684   */\n  tag_23\n  jumpi\n    /* \"#utility.yul\":680:681   */\n  0x00\n    /* \"#utility.yul\":677:678   */\n  dup1\n    /* \"#utility.yul\":670:682   */\n  revert\n    /* \"#utility.yul\":621:684   */\ntag_23:\n    /* \"#utility.yul\":568:690   */\n  pop\n  jump\t// out\n    /* \"#utility.yul\":696:839   */\ntag_13:\n    /* \"#utility.yul\":753:758   */\n  0x00\n    /* \"#utility.yul\":784:790   */\n  dup2\n    /* \"#utility.yul\":778:791   */\n  mload\n    /* \"#utility.yul\":769:791   */\n  swap1\n  pop\n    /* \"#utility.yul\":800:833   */\n  tag_25\n    /* \"#utility.yul\":827:832   */\n  dup2\n    /* \"#utility.yul\":800:833   */\n  tag_12\n  jump\t// in\ntag_25:\n    /* \"#utility.yul\":696:839   */\n  swap3\n  swap2\n  pop\n  pop\n  jump\t// out\n    /* \"#utility.yul\":845:1508   */\ntag_3:\n    /* \"#utility.yul\":933:939   */\n  0x00\n    /* \"#utility.yul\":941:947   */\n  dup1\n    /* \"#utility.yul\":949:955   */\n  0x00\n    /* \"#utility.yul\":998:1000   */\n  0x60\n    /* \"#utility.yul\":986:995   */\n  dup5\n    /* \"#utility.yul\":977:984   */\n  dup7\n    /* \"#utility.yul\":973:996   */\n  sub\n    /* \"#utility.yul\":969:1001   */\n  slt\n    /* \"#utility.yul\":966:1085   */\n  iszero\n  tag_27\n  jumpi\n    /* \"#utility.yul\":1004:1083   */\n  tag_28\n  tag_8\n  jump\t// in\ntag_28:\n    /* \"#utility.yul\":966:1085   */\ntag_27:\n    /* \"#utility.yul\":1124:1125   */\n  0x00\n    /* \"#utility.yul\":1149:1213   */\n  tag_29\n    /* \"#utility.yul\":1205:1212   */\n  dup7\n    /* \"#utility.yul\":1196:1202   */\n  dup3\n    /* \"#utility.yul\":1185:1194   */\n  dup8\n    /* \"#utility.yul\":1181:1203   */\n  add\n    /* \"#utility.yul\":1149:1213   */\n  tag_13\n  jump\t// in\ntag_29:\n    /* \"#utility.yul\":1139:1213   */\n  swap4\n  pop\n    /* \"#utility.yul\":1095:1223   */\n  pop\n    /* \"#utility.yul\":1262:1264   */\n  0x20\n    /* \"#utility.yul\":1288:1352   */\n  tag_30\n    /* \"#utility.yul\":1344:1351   */\n  dup7\n    /* \"#utility.yul\":1335:1341   */\n  dup3\n    /* \"#utility.yul\":1324:1333   */\n  dup8\n    /* \"#utility.yul\":1320:1342   */\n  add\n    /* \"#utility.yul\":1288:1352   */\n  tag_13\n  jump\t// in\ntag_30:\n    /* \"#utility.yul\":1278:1352   */\n  swap3\n  pop\n    /* \"#utility.yul\":1233:1362   */\n  pop\n    /* \"#utility.yul\":1401:1403   */\n  0x40\n    /* \"#utility.yul\":1427:1491   */\n  tag_31\n    /* \"#utility.yul\":1483:1490   */\n  dup7\n    /* \"#utility.yul\":1474:1480   */\n  dup3\n    /* \"#utility.yul\":1463:1472   */\n  dup8\n    /* \"#utility.yul\":1459:1481   */\n  add\n    /* \"#utility.yul\":1427:1491   */\n  tag_13\n  jump\t// in\ntag_31:\n    /* \"#utility.yul\":1417:1491   */\n  swap2\n  pop\n    /* \"#utility.yul\":1372:1501   */\n  pop\n    /* \"#utility.yul\":845:1508   */\n  swap3\n  pop\n  swap3\n  pop\n  swap3\n  jump\t// out\n    /* \"CriptoXMC/transfer.sol\":291:2363  contract MainXM {... */\ntag_6:\n  dataSize(sub_0)\n  dup1\n  dataOffset(sub_0)\n  0x00\n  codecopy\n  0x00\n  return\nstop\n\nsub_0: assembly {\n        /* \"CriptoXMC/transfer.sol\":291:2363  contract MainXM {... */\n      mstore(0x40, 0x80)\n      callvalue\n      dup1\n      iszero\n      tag_1\n      jumpi\n      0x00\n      dup1\n      revert\n    tag_1:\n      pop\n      jumpi(tag_2, lt(calldatasize, 0x04))\n      shr(0xe0, calldataload(0x00))\n      dup1\n      0x84a1c233\n      gt\n      tag_10\n      jumpi\n      dup1\n      0x84a1c233\n      eq\n      tag_6\n      jumpi\n      dup1\n      0x8da5cb5b\n      eq\n      tag_7\n      jumpi\n      dup1\n      0xf3fef3a3\n      eq\n      tag_8\n      jumpi\n      dup1\n      0xfc0c546a\n      eq\n      tag_9\n      jumpi\n      jump(tag_2)\n    tag_10:\n      dup1\n      0x163f9b4f\n      eq\n      tag_3\n      jumpi\n      dup1\n      0x19e5c034\n      eq\n      tag_4\n      jumpi\n      dup1\n      0x441f36b5\n      eq\n      tag_5\n      jumpi\n    tag_2:\n      0x00\n      dup1\n      revert\n        /* \"CriptoXMC/transfer.sol\":406:436  address public withdrawalOwner */\n    tag_3:\n      tag_11\n      tag_12\n      jump\t// in\n    tag_11:\n      mload(0x40)\n      tag_13\n      swap2\n      swap1\n      tag_14\n      jump\t// in\n    tag_13:\n      mload(0x40)\n      dup1\n      swap2\n      sub\n      swap1\n      return\n        /* \"CriptoXMC/transfer.sol\":1154:1949  function deposit (... */\n    tag_4:\n      tag_15\n      0x04\n      dup1\n      calldatasize\n      sub\n      dup2\n      add\n      swap1\n      tag_16\n      swap2\n      swap1\n      tag_17\n      jump\t// in\n    tag_16:\n      tag_18\n      jump\t// in\n    tag_15:\n      stop\n        /* \"CriptoXMC/transfer.sol\":1101:1145  mapping (string => string) public signatures */\n    tag_5:\n      tag_19\n      0x04\n      dup1\n      calldatasize\n      sub\n      dup2\n      add\n      swap1\n      tag_20\n      swap2\n      swap1\n      tag_21\n      jump\t// in\n    tag_20:\n      tag_22\n      jump\t// in\n    tag_19:\n      mload(0x40)\n      tag_23\n      swap2\n      swap1\n      tag_24\n      jump\t// in\n    tag_23:\n      mload(0x40)\n      dup1\n      swap2\n      sub\n      swap1\n      return\n        /* \"CriptoXMC/transfer.sol\":1050:1094  mapping (string => uint256) public transfers */\n    tag_6:\n      tag_25\n      0x04\n      dup1\n      calldatasize\n      sub\n      dup2\n      add\n      swap1\n      tag_26\n      swap2\n      swap1\n      tag_21\n      jump\t// in\n    tag_26:\n      tag_27\n      jump\t// in\n    tag_25:\n      mload(0x40)\n      tag_28\n      swap2\n      swap1\n      tag_29\n      jump\t// in\n    tag_28:\n      mload(0x40)\n      dup1\n      swap2\n      sub\n      swap1\n      return\n        /* \"CriptoXMC/transfer.sol\":379:399  address public owner */\n    tag_7:\n      tag_30\n      tag_31\n      jump\t// in\n    tag_30:\n      mload(0x40)\n      tag_32\n      swap2\n      swap1\n      tag_14\n      jump\t// in\n    tag_32:\n      mload(0x40)\n      dup1\n      swap2\n      sub\n      swap1\n      return\n        /* \"CriptoXMC/transfer.sol\":1957:2360  function withdraw (address _receiver, uint256 _amount) public onlyWithdrawalOwner {... */\n    tag_8:\n      tag_33\n      0x04\n      dup1\n      calldatasize\n      sub\n      dup2\n      add\n      swap1\n      tag_34\n      swap2\n      swap1\n      tag_35\n      jump\t// in\n    tag_34:\n      tag_36\n      jump\t// in\n    tag_33:\n      stop\n        /* \"CriptoXMC/transfer.sol\":314:333  IERC20 public token */\n    tag_9:\n      tag_37\n      tag_38\n      jump\t// in\n    tag_37:\n      mload(0x40)\n      tag_39\n      swap2\n      swap1\n      tag_40\n      jump\t// in\n    tag_39:\n      mload(0x40)\n      dup1\n      swap2\n      sub\n      swap1\n      return\n        /* \"CriptoXMC/transfer.sol\":406:436  address public withdrawalOwner */\n    tag_12:\n      0x02\n      0x00\n      swap1\n      sload\n      swap1\n      0x0100\n      exp\n      swap1\n      div\n      0xffffffffffffffffffffffffffffffffffffffff\n      and\n      dup2\n      jump\t// out\n        /* \"CriptoXMC/transfer.sol\":1154:1949  function deposit (... */\n    tag_18:\n        /* \"CriptoXMC/transfer.sol\":870:875  owner */\n      0x01\n      0x00\n      swap1\n      sload\n      swap1\n      0x0100\n      exp\n      swap1\n      div\n      0xffffffffffffffffffffffffffffffffffffffff\n      and\n        /* \"CriptoXMC/transfer.sol\":856:875  msg.sender == owner */\n      0xffffffffffffffffffffffffffffffffffffffff\n      and\n        /* \"CriptoXMC/transfer.sol\":856:866  msg.sender */\n      caller\n        /* \"CriptoXMC/transfer.sol\":856:875  msg.sender == owner */\n      0xffffffffffffffffffffffffffffffffffffffff\n      and\n      eq\n        /* \"CriptoXMC/transfer.sol\":848:890  require(msg.sender == owner, \"Only owner\") */\n      tag_42\n      jumpi\n      mload(0x40)\n      0x08c379a000000000000000000000000000000000000000000000000000000000\n      dup2\n      mstore\n      0x04\n      add\n      tag_43\n      swap1\n      tag_44\n      jump\t// in\n    tag_43:\n      mload(0x40)\n      dup1\n      swap2\n      sub\n      swap1\n      revert\n    tag_42:\n        /* \"CriptoXMC/transfer.sol\":1375:1395  bool transferSuccess */\n      0x00\n        /* \"CriptoXMC/transfer.sol\":1398:1403  token */\n      dup1\n      0x00\n      swap1\n      sload\n      swap1\n      0x0100\n      exp\n      swap1\n      div\n      0xffffffffffffffffffffffffffffffffffffffff\n      and\n        /* \"CriptoXMC/transfer.sol\":1398:1416  token.transferFrom */\n      0xffffffffffffffffffffffffffffffffffffffff\n      and\n      0x23b872dd\n        /* \"CriptoXMC/transfer.sol\":1431:1438  _sender */\n      dup9\n        /* \"CriptoXMC/transfer.sol\":1461:1465  this */\n      address\n        /* \"CriptoXMC/transfer.sol\":1513:1520  _amount */\n      dup10\n        /* \"CriptoXMC/transfer.sol\":1398:1531  token.transferFrom(... */\n      mload(0x40)\n      dup5\n      0xffffffff\n      and\n      0xe0\n      shl\n      dup2\n      mstore\n      0x04\n      add\n      tag_46\n      swap4\n      swap3\n      swap2\n      swap1\n      tag_47\n      jump\t// in\n    tag_46:\n      0x20\n      mload(0x40)\n      dup1\n      dup4\n      sub\n      dup2\n      0x00\n      dup8\n      gas\n      call\n      iszero\n      dup1\n      iszero\n      tag_49\n      jumpi\n      returndatasize\n      0x00\n      dup1\n      returndatacopy\n      revert(0x00, returndatasize)\n    tag_49:\n      pop\n      pop\n      pop\n      pop\n      mload(0x40)\n      returndatasize\n      not(0x1f)\n      0x1f\n      dup3\n      add\n      and\n      dup3\n      add\n      dup1\n      0x40\n      mstore\n      pop\n      dup2\n      add\n      swap1\n      tag_50\n      swap2\n      swap1\n      tag_51\n      jump\t// in\n    tag_50:\n        /* \"CriptoXMC/transfer.sol\":1375:1531  bool transferSuccess = token.transferFrom(... */\n      swap1\n      pop\n        /* \"CriptoXMC/transfer.sol\":1546:1561  transferSuccess */\n      dup1\n        /* \"CriptoXMC/transfer.sol\":1538:1593  require(transferSuccess, \"Transfer to contract failed\") */\n      tag_52\n      jumpi\n      mload(0x40)\n      0x08c379a000000000000000000000000000000000000000000000000000000000\n      dup2\n      mstore\n      0x04\n      add\n      tag_53\n      swap1\n      tag_54\n      jump\t// in\n    tag_53:\n      mload(0x40)\n      dup1\n      swap2\n      sub\n      swap1\n      revert\n    tag_52:\n        /* \"CriptoXMC/transfer.sol\":1624:1631  _amount */\n      dup6\n        /* \"CriptoXMC/transfer.sol\":1604:1613  transfers */\n      0x03\n        /* \"CriptoXMC/transfer.sol\":1614:1620  _idTrx */\n      dup7\n      dup7\n        /* \"CriptoXMC/transfer.sol\":1604:1621  transfers[_idTrx] */\n      mload(0x40)\n      tag_55\n      swap3\n      swap2\n      swap1\n      tag_56\n      jump\t// in\n    tag_55:\n      swap1\n      dup2\n      mstore\n      0x20\n      add\n      mload(0x40)\n      dup1\n      swap2\n      sub\n      swap1\n      keccak256\n        /* \"CriptoXMC/transfer.sol\":1604:1631  transfers[_idTrx] = _amount */\n      dup2\n      swap1\n      sstore\n      pop\n        /* \"CriptoXMC/transfer.sol\":1663:1673  _signature */\n      dup3\n      dup3\n        /* \"CriptoXMC/transfer.sol\":1642:1652  signatures */\n      0x04\n        /* \"CriptoXMC/transfer.sol\":1653:1659  _idTrx */\n      dup8\n      dup8\n        /* \"CriptoXMC/transfer.sol\":1642:1660  signatures[_idTrx] */\n      mload(0x40)\n      tag_57\n      swap3\n      swap2\n      swap1\n      tag_56\n      jump\t// in\n    tag_57:\n      swap1\n      dup2\n      mstore\n      0x20\n      add\n      mload(0x40)\n      dup1\n      swap2\n      sub\n      swap1\n      keccak256\n        /* \"CriptoXMC/transfer.sol\":1642:1673  signatures[_idTrx] = _signature */\n      swap2\n      dup3\n      tag_58\n      swap3\n      swap2\n      swap1\n      tag_59\n      jump\t// in\n    tag_58:\n      pop\n        /* \"CriptoXMC/transfer.sol\":1795:1820  string memory _ackMessage */\n      0x00\n        /* \"CriptoXMC/transfer.sol\":1879:1886  _amount */\n      dup7\n        /* \"CriptoXMC/transfer.sol\":1830:1908  abi.encodePacked(\"{function: deposit, amount: \", _amount,\", status: Success}\") */\n      add(0x20, mload(0x40))\n      tag_60\n      swap2\n      swap1\n      tag_61\n      jump\t// in\n    tag_60:\n      mload(0x40)\n      0x20\n      dup2\n      dup4\n      sub\n      sub\n      dup2\n      mstore\n      swap1\n      0x40\n      mstore\n        /* \"CriptoXMC/transfer.sol\":1795:1909  string memory _ackMessage = string(abi.encodePacked(\"{function: deposit, amount: \", _amount,\", status: Success}\")) */\n      swap1\n      pop\n        /* \"CriptoXMC/transfer.sol\":1925:1941  ack(_ackMessage) */\n      0x7ec0f30d77eee878603febc6eccf7f5dc934cb71143846eae2bca299c7850198\n        /* \"CriptoXMC/transfer.sol\":1929:1940  _ackMessage */\n      dup2\n        /* \"CriptoXMC/transfer.sol\":1925:1941  ack(_ackMessage) */\n      mload(0x40)\n      tag_62\n      swap2\n      swap1\n      tag_24\n      jump\t// in\n    tag_62:\n      mload(0x40)\n      dup1\n      swap2\n      sub\n      swap1\n      log1\n        /* \"CriptoXMC/transfer.sol\":1364:1949  {... */\n      pop\n      pop\n        /* \"CriptoXMC/transfer.sol\":1154:1949  function deposit (... */\n      pop\n      pop\n      pop\n      pop\n      pop\n      pop\n      jump\t// out\n        /* \"CriptoXMC/transfer.sol\":1101:1145  mapping (string => string) public signatures */\n    tag_22:\n      0x04\n      dup2\n      dup1\n      mload\n      0x20\n      dup2\n      add\n      dup3\n      add\n      dup1\n      mload\n      dup5\n      dup3\n      mstore\n      0x20\n      dup4\n      add\n      0x20\n      dup6\n      add\n      keccak256\n      dup2\n      dup4\n      mstore\n      dup1\n      swap6\n      pop\n      pop\n      pop\n      pop\n      pop\n      pop\n      0x00\n      swap2\n      pop\n      swap1\n      pop\n      dup1\n      sload\n      tag_63\n      swap1\n      tag_64\n      jump\t// in\n    tag_63:\n      dup1\n      0x1f\n      add\n      0x20\n      dup1\n      swap2\n      div\n      mul\n      0x20\n      add\n      mload(0x40)\n      swap1\n      dup2\n      add\n      0x40\n      mstore\n      dup1\n      swap3\n      swap2\n      swap1\n      dup2\n      dup2\n      mstore\n      0x20\n      add\n      dup3\n      dup1\n      sload\n      tag_65\n      swap1\n      tag_64\n      jump\t// in\n    tag_65:\n      dup1\n      iszero\n      tag_66\n      jumpi\n      dup1\n      0x1f\n      lt\n      tag_67\n      jumpi\n      0x0100\n      dup1\n      dup4\n      sload\n      div\n      mul\n      dup4\n      mstore\n      swap2\n      0x20\n      add\n      swap2\n      jump(tag_66)\n    tag_67:\n      dup3\n      add\n      swap2\n      swap1\n      0x00\n      mstore\n      keccak256(0x00, 0x20)\n      swap1\n    tag_68:\n      dup2\n      sload\n      dup2\n      mstore\n      swap1\n      0x01\n      add\n      swap1\n      0x20\n      add\n      dup1\n      dup4\n      gt\n      tag_68\n      jumpi\n      dup3\n      swap1\n      sub\n      0x1f\n      and\n      dup3\n      add\n      swap2\n    tag_66:\n      pop\n      pop\n      pop\n      pop\n      pop\n      dup2\n      jump\t// out\n        /* \"CriptoXMC/transfer.sol\":1050:1094  mapping (string => uint256) public transfers */\n    tag_27:\n      0x03\n      dup2\n      dup1\n      mload\n      0x20\n      dup2\n      add\n      dup3\n      add\n      dup1\n      mload\n      dup5\n      dup3\n      mstore\n      0x20\n      dup4\n      add\n      0x20\n      dup6\n      add\n      keccak256\n      dup2\n      dup4\n      mstore\n      dup1\n      swap6\n      pop\n      pop\n      pop\n      pop\n      pop\n      pop\n      0x00\n      swap2\n      pop\n      swap1\n      pop\n      sload\n      dup2\n      jump\t// out\n        /* \"CriptoXMC/transfer.sol\":379:399  address public owner */\n    tag_31:\n      0x01\n      0x00\n      swap1\n      sload\n      swap1\n      0x0100\n      exp\n      swap1\n      div\n      0xffffffffffffffffffffffffffffffffffffffff\n      and\n      dup2\n      jump\t// out\n        /* \"CriptoXMC/transfer.sol\":1957:2360  function withdraw (address _receiver, uint256 _amount) public onlyWithdrawalOwner {... */\n    tag_36:\n        /* \"CriptoXMC/transfer.sol\":981:996  withdrawalOwner */\n      0x02\n      0x00\n      swap1\n      sload\n      swap1\n      0x0100\n      exp\n      swap1\n      div\n      0xffffffffffffffffffffffffffffffffffffffff\n      and\n        /* \"CriptoXMC/transfer.sol\":967:996  msg.sender == withdrawalOwner */\n      0xffffffffffffffffffffffffffffffffffffffff\n      and\n        /* \"CriptoXMC/transfer.sol\":967:977  msg.sender */\n      caller\n        /* \"CriptoXMC/transfer.sol\":967:996  msg.sender == withdrawalOwner */\n      0xffffffffffffffffffffffffffffffffffffffff\n      and\n      eq\n        /* \"CriptoXMC/transfer.sol\":959:1022  require(msg.sender == withdrawalOwner, \"Only withdrawal owner\") */\n      tag_70\n      jumpi\n      mload(0x40)\n      0x08c379a000000000000000000000000000000000000000000000000000000000\n      dup2\n      mstore\n      0x04\n      add\n      tag_71\n      swap1\n      tag_72\n      jump\t// in\n    tag_71:\n      mload(0x40)\n      dup1\n      swap2\n      sub\n      swap1\n      revert\n    tag_70:\n        /* \"CriptoXMC/transfer.sol\":2050:2070  bool transferSuccess */\n      0x00\n        /* \"CriptoXMC/transfer.sol\":2073:2078  token */\n      dup1\n      0x00\n      swap1\n      sload\n      swap1\n      0x0100\n      exp\n      swap1\n      div\n      0xffffffffffffffffffffffffffffffffffffffff\n      and\n        /* \"CriptoXMC/transfer.sol\":2073:2087  token.transfer */\n      0xffffffffffffffffffffffffffffffffffffffff\n      and\n      0xa9059cbb\n        /* \"CriptoXMC/transfer.sol\":2088:2097  _receiver */\n      dup5\n        /* \"CriptoXMC/transfer.sol\":2099:2106  _amount */\n      dup5\n        /* \"CriptoXMC/transfer.sol\":2073:2107  token.transfer(_receiver, _amount) */\n      mload(0x40)\n      dup4\n      0xffffffff\n      and\n      0xe0\n      shl\n      dup2\n      mstore\n      0x04\n      add\n      tag_74\n      swap3\n      swap2\n      swap1\n      tag_75\n      jump\t// in\n    tag_74:\n      0x20\n      mload(0x40)\n      dup1\n      dup4\n      sub\n      dup2\n      0x00\n      dup8\n      gas\n      call\n      iszero\n      dup1\n      iszero\n      tag_77\n      jumpi\n      returndatasize\n      0x00\n      dup1\n      returndatacopy\n      revert(0x00, returndatasize)\n    tag_77:\n      pop\n      pop\n      pop\n      pop\n      mload(0x40)\n      returndatasize\n      not(0x1f)\n      0x1f\n      dup3\n      add\n      and\n      dup3\n      add\n      dup1\n      0x40\n      mstore\n      pop\n      dup2\n      add\n      swap1\n      tag_78\n      swap2\n      swap1\n      tag_51\n      jump\t// in\n    tag_78:\n        /* \"CriptoXMC/transfer.sol\":2050:2107  bool transferSuccess = token.transfer(_receiver, _amount) */\n      swap1\n      pop\n        /* \"CriptoXMC/transfer.sol\":2126:2141  transferSuccess */\n      dup1\n        /* \"CriptoXMC/transfer.sol\":2118:2169  require(transferSuccess, \"Transfer to user failed\") */\n      tag_79\n      jumpi\n      mload(0x40)\n      0x08c379a000000000000000000000000000000000000000000000000000000000\n      dup2\n      mstore\n      0x04\n      add\n      tag_80\n      swap1\n      tag_81\n      jump\t// in\n    tag_80:\n      mload(0x40)\n      dup1\n      swap2\n      sub\n      swap1\n      revert\n    tag_79:\n        /* \"CriptoXMC/transfer.sol\":2180:2205  string memory _ackMessage */\n      0x00\n        /* \"CriptoXMC/transfer.sol\":2267:2276  _receiver */\n      dup4\n        /* \"CriptoXMC/transfer.sol\":2290:2297  _amount */\n      dup4\n        /* \"CriptoXMC/transfer.sol\":2215:2319  abi.encodePacked(\"{function: withdraw, receiver: \", _receiver, \"amount: \", _amount,\", status: Success}\") */\n      add(0x20, mload(0x40))\n      tag_82\n      swap3\n      swap2\n      swap1\n      tag_83\n      jump\t// in\n    tag_82:\n      mload(0x40)\n      0x20\n      dup2\n      dup4\n      sub\n      sub\n      dup2\n      mstore\n      swap1\n      0x40\n      mstore\n        /* \"CriptoXMC/transfer.sol\":2180:2320  string memory _ackMessage = string(abi.encodePacked(\"{function: withdraw, receiver: \", _receiver, \"amount: \", _amount,\", status: Success}\")) */\n      swap1\n      pop\n        /* \"CriptoXMC/transfer.sol\":2336:2352  ack(_ackMessage) */\n      0x7ec0f30d77eee878603febc6eccf7f5dc934cb71143846eae2bca299c7850198\n        /* \"CriptoXMC/transfer.sol\":2340:2351  _ackMessage */\n      dup2\n        /* \"CriptoXMC/transfer.sol\":2336:2352  ack(_ackMessage) */\n      mload(0x40)\n      tag_84\n      swap2\n      swap1\n      tag_24\n      jump\t// in\n    tag_84:\n      mload(0x40)\n      dup1\n      swap2\n      sub\n      swap1\n      log1\n        /* \"CriptoXMC/transfer.sol\":2039:2360  {... */\n      pop\n      pop\n        /* \"CriptoXMC/transfer.sol\":1957:2360  function withdraw (address _receiver, uint256 _amount) public onlyWithdrawalOwner {... */\n      pop\n      pop\n      jump\t// out\n        /* \"CriptoXMC/transfer.sol\":314:333  IERC20 public token */\n    tag_38:\n      0x00\n      dup1\n      sload\n      swap1\n      0x0100\n      exp\n      swap1\n      div\n      0xffffffffffffffffffffffffffffffffffffffff\n      and\n      dup2\n      jump\t// out\n        /* \"#utility.yul\":7:133   */\n    tag_85:\n        /* \"#utility.yul\":44:51   */\n      0x00\n        /* \"#utility.yul\":84:126   */\n      0xffffffffffffffffffffffffffffffffffffffff\n        /* \"#utility.yul\":77:82   */\n      dup3\n        /* \"#utility.yul\":73:127   */\n      and\n        /* \"#utility.yul\":62:127   */\n      swap1\n      pop\n        /* \"#utility.yul\":7:133   */\n      swap2\n      swap1\n      pop\n      jump\t// out\n        /* \"#utility.yul\":139:235   */\n    tag_86:\n        /* \"#utility.yul\":176:183   */\n      0x00\n        /* \"#utility.yul\":205:229   */\n      tag_165\n        /* \"#utility.yul\":223:228   */\n      dup3\n        /* \"#utility.yul\":205:229   */\n      tag_85\n      jump\t// in\n    tag_165:\n        /* \"#utility.yul\":194:229   */\n      swap1\n      pop\n        /* \"#utility.yul\":139:235   */\n      swap2\n      swap1\n      pop\n      jump\t// out\n        /* \"#utility.yul\":241:359   */\n    tag_87:\n        /* \"#utility.yul\":328:352   */\n      tag_167\n        /* \"#utility.yul\":346:351   */\n      dup2\n        /* \"#utility.yul\":328:352   */\n      tag_86\n      jump\t// in\n    tag_167:\n        /* \"#utility.yul\":323:326   */\n      dup3\n        /* \"#utility.yul\":316:353   */\n      mstore\n        /* \"#utility.yul\":241:359   */\n      pop\n      pop\n      jump\t// out\n        /* \"#utility.yul\":365:587   */\n    tag_14:\n        /* \"#utility.yul\":458:462   */\n      0x00\n        /* \"#utility.yul\":496:498   */\n      0x20\n        /* \"#utility.yul\":485:494   */\n      dup3\n        /* \"#utility.yul\":481:499   */\n      add\n        /* \"#utility.yul\":473:499   */\n      swap1\n      pop\n        /* \"#utility.yul\":509:580   */\n      tag_169\n        /* \"#utility.yul\":577:578   */\n      0x00\n        /* \"#utility.yul\":566:575   */\n      dup4\n        /* \"#utility.yul\":562:579   */\n      add\n        /* \"#utility.yul\":553:559   */\n      dup5\n        /* \"#utility.yul\":509:580   */\n      tag_87\n      jump\t// in\n    tag_169:\n        /* \"#utility.yul\":365:587   */\n      swap3\n      swap2\n      pop\n      pop\n      jump\t// out\n        /* \"#utility.yul\":593:668   */\n    tag_88:\n        /* \"#utility.yul\":626:632   */\n      0x00\n        /* \"#utility.yul\":659:661   */\n      0x40\n        /* \"#utility.yul\":653:662   */\n      mload\n        /* \"#utility.yul\":643:662   */\n      swap1\n      pop\n        /* \"#utility.yul\":593:668   */\n      swap1\n      jump\t// out\n        /* \"#utility.yul\":674:791   */\n    tag_89:\n        /* \"#utility.yul\":783:784   */\n      0x00\n        /* \"#utility.yul\":780:781   */\n      dup1\n        /* \"#utility.yul\":773:785   */\n      revert\n        /* \"#utility.yul\":797:914   */\n    tag_90:\n        /* \"#utility.yul\":906:907   */\n      0x00\n        /* \"#utility.yul\":903:904   */\n      dup1\n        /* \"#utility.yul\":896:908   */\n      revert\n        /* \"#utility.yul\":920:1042   */\n    tag_91:\n        /* \"#utility.yul\":993:1017   */\n      tag_174\n        /* \"#utility.yul\":1011:1016   */\n      dup2\n        /* \"#utility.yul\":993:1017   */\n      tag_86\n      jump\t// in\n    tag_174:\n        /* \"#utility.yul\":986:991   */\n      dup2\n        /* \"#utility.yul\":983:1018   */\n      eq\n        /* \"#utility.yul\":973:1036   */\n      tag_175\n      jumpi\n        /* \"#utility.yul\":1032:1033   */\n      0x00\n        /* \"#utility.yul\":1029:1030   */\n      dup1\n        /* \"#utility.yul\":1022:1034   */\n      revert\n        /* \"#utility.yul\":973:1036   */\n    tag_175:\n        /* \"#utility.yul\":920:1042   */\n      pop\n      jump\t// out\n        /* \"#utility.yul\":1048:1187   */\n    tag_92:\n        /* \"#utility.yul\":1094:1099   */\n      0x00\n        /* \"#utility.yul\":1132:1138   */\n      dup2\n        /* \"#utility.yul\":1119:1139   */\n      calldataload\n        /* \"#utility.yul\":1110:1139   */\n      swap1\n      pop\n        /* \"#utility.yul\":1148:1181   */\n      tag_177\n        /* \"#utility.yul\":1175:1180   */\n      dup2\n        /* \"#utility.yul\":1148:1181   */\n      tag_91\n      jump\t// in\n    tag_177:\n        /* \"#utility.yul\":1048:1187   */\n      swap3\n      swap2\n      pop\n      pop\n      jump\t// out\n        /* \"#utility.yul\":1193:1270   */\n    tag_93:\n        /* \"#utility.yul\":1230:1237   */\n      0x00\n        /* \"#utility.yul\":1259:1264   */\n      dup2\n        /* \"#utility.yul\":1248:1264   */\n      swap1\n      pop\n        /* \"#utility.yul\":1193:1270   */\n      swap2\n      swap1\n      pop\n      jump\t// out\n        /* \"#utility.yul\":1276:1398   */\n    tag_94:\n        /* \"#utility.yul\":1349:1373   */\n      tag_180\n        /* \"#utility.yul\":1367:1372   */\n      dup2\n        /* \"#utility.yul\":1349:1373   */\n      tag_93\n      jump\t// in\n    tag_180:\n        /* \"#utility.yul\":1342:1347   */\n      dup2\n        /* \"#utility.yul\":1339:1374   */\n      eq\n        /* \"#utility.yul\":1329:1392   */\n      tag_181\n      jumpi\n        /* \"#utility.yul\":1388:1389   */\n      0x00\n        /* \"#utility.yul\":1385:1386   */\n      dup1\n        /* \"#utility.yul\":1378:1390   */\n      revert\n        /* \"#utility.yul\":1329:1392   */\n    tag_181:\n        /* \"#utility.yul\":1276:1398   */\n      pop\n      jump\t// out\n        /* \"#utility.yul\":1404:1543   */\n    tag_95:\n        /* \"#utility.yul\":1450:1455   */\n      0x00\n        /* \"#utility.yul\":1488:1494   */\n      dup2\n        /* \"#utility.yul\":1475:1495   */\n      calldataload\n        /* \"#utility.yul\":1466:1495   */\n      swap1\n      pop\n        /* \"#utility.yul\":1504:1537   */\n      tag_183\n        /* \"#utility.yul\":1531:1536   */\n      dup2\n        /* \"#utility.yul\":1504:1537   */\n      tag_94\n      jump\t// in\n    tag_183:\n        /* \"#utility.yul\":1404:1543   */\n      swap3\n      swap2\n      pop\n      pop\n      jump\t// out\n        /* \"#utility.yul\":1549:1666   */\n    tag_96:\n        /* \"#utility.yul\":1658:1659   */\n      0x00\n        /* \"#utility.yul\":1655:1656   */\n      dup1\n        /* \"#utility.yul\":1648:1660   */\n      revert\n        /* \"#utility.yul\":1672:1789   */\n    tag_97:\n        /* \"#utility.yul\":1781:1782   */\n      0x00\n        /* \"#utility.yul\":1778:1779   */\n      dup1\n        /* \"#utility.yul\":1771:1783   */\n      revert\n        /* \"#utility.yul\":1795:1912   */\n    tag_98:\n        /* \"#utility.yul\":1904:1905   */\n      0x00\n        /* \"#utility.yul\":1901:1902   */\n      dup1\n        /* \"#utility.yul\":1894:1906   */\n      revert\n        /* \"#utility.yul\":1932:2485   */\n    tag_99:\n        /* \"#utility.yul\":1990:1998   */\n      0x00\n        /* \"#utility.yul\":2000:2006   */\n      dup1\n        /* \"#utility.yul\":2050:2053   */\n      dup4\n        /* \"#utility.yul\":2043:2047   */\n      0x1f\n        /* \"#utility.yul\":2035:2041   */\n      dup5\n        /* \"#utility.yul\":2031:2048   */\n      add\n        /* \"#utility.yul\":2027:2054   */\n      slt\n        /* \"#utility.yul\":2017:2139   */\n      tag_188\n      jumpi\n        /* \"#utility.yul\":2058:2137   */\n      tag_189\n      tag_96\n      jump\t// in\n    tag_189:\n        /* \"#utility.yul\":2017:2139   */\n    tag_188:\n        /* \"#utility.yul\":2171:2177   */\n      dup3\n        /* \"#utility.yul\":2158:2178   */\n      calldataload\n        /* \"#utility.yul\":2148:2178   */\n      swap1\n      pop\n        /* \"#utility.yul\":2201:2219   */\n      0xffffffffffffffff\n        /* \"#utility.yul\":2193:2199   */\n      dup2\n        /* \"#utility.yul\":2190:2220   */\n      gt\n        /* \"#utility.yul\":2187:2304   */\n      iszero\n      tag_190\n      jumpi\n        /* \"#utility.yul\":2223:2302   */\n      tag_191\n      tag_97\n      jump\t// in\n    tag_191:\n        /* \"#utility.yul\":2187:2304   */\n    tag_190:\n        /* \"#utility.yul\":2337:2341   */\n      0x20\n        /* \"#utility.yul\":2329:2335   */\n      dup4\n        /* \"#utility.yul\":2325:2342   */\n      add\n        /* \"#utility.yul\":2313:2342   */\n      swap2\n      pop\n        /* \"#utility.yul\":2391:2394   */\n      dup4\n        /* \"#utility.yul\":2383:2387   */\n      0x01\n        /* \"#utility.yul\":2375:2381   */\n      dup3\n        /* \"#utility.yul\":2371:2388   */\n      mul\n        /* \"#utility.yul\":2361:2369   */\n      dup4\n        /* \"#utility.yul\":2357:2389   */\n      add\n        /* \"#utility.yul\":2354:2395   */\n      gt\n        /* \"#utility.yul\":2351:2479   */\n      iszero\n      tag_192\n      jumpi\n        /* \"#utility.yul\":2398:2477   */\n      tag_193\n      tag_98\n      jump\t// in\n    tag_193:\n        /* \"#utility.yul\":2351:2479   */\n    tag_192:\n        /* \"#utility.yul\":1932:2485   */\n      swap3\n      pop\n      swap3\n      swap1\n      pop\n      jump\t// out\n        /* \"#utility.yul\":2491:3656   */\n    tag_17:\n        /* \"#utility.yul\":2601:2607   */\n      0x00\n        /* \"#utility.yul\":2609:2615   */\n      dup1\n        /* \"#utility.yul\":2617:2623   */\n      0x00\n        /* \"#utility.yul\":2625:2631   */\n      dup1\n        /* \"#utility.yul\":2633:2639   */\n      0x00\n        /* \"#utility.yul\":2641:2647   */\n      dup1\n        /* \"#utility.yul\":2690:2693   */\n      0x80\n        /* \"#utility.yul\":2678:2687   */\n      dup8\n        /* \"#utility.yul\":2669:2676   */\n      dup10\n        /* \"#utility.yul\":2665:2688   */\n      sub\n        /* \"#utility.yul\":2661:2694   */\n      slt\n        /* \"#utility.yul\":2658:2778   */\n      iszero\n      tag_195\n      jumpi\n        /* \"#utility.yul\":2697:2776   */\n      tag_196\n      tag_89\n      jump\t// in\n    tag_196:\n        /* \"#utility.yul\":2658:2778   */\n    tag_195:\n        /* \"#utility.yul\":2817:2818   */\n      0x00\n        /* \"#utility.yul\":2842:2895   */\n      tag_197\n        /* \"#utility.yul\":2887:2894   */\n      dup10\n        /* \"#utility.yul\":2878:2884   */\n      dup3\n        /* \"#utility.yul\":2867:2876   */\n      dup11\n        /* \"#utility.yul\":2863:2885   */\n      add\n        /* \"#utility.yul\":2842:2895   */\n      tag_92\n      jump\t// in\n    tag_197:\n        /* \"#utility.yul\":2832:2895   */\n      swap7\n      pop\n        /* \"#utility.yul\":2788:2905   */\n      pop\n        /* \"#utility.yul\":2944:2946   */\n      0x20\n        /* \"#utility.yul\":2970:3023   */\n      tag_198\n        /* \"#utility.yul\":3015:3022   */\n      dup10\n        /* \"#utility.yul\":3006:3012   */\n      dup3\n        /* \"#utility.yul\":2995:3004   */\n      dup11\n        /* \"#utility.yul\":2991:3013   */\n      add\n        /* \"#utility.yul\":2970:3023   */\n      tag_95\n      jump\t// in\n    tag_198:\n        /* \"#utility.yul\":2960:3023   */\n      swap6\n      pop\n        /* \"#utility.yul\":2915:3033   */\n      pop\n        /* \"#utility.yul\":3100:3102   */\n      0x40\n        /* \"#utility.yul\":3089:3098   */\n      dup8\n        /* \"#utility.yul\":3085:3103   */\n      add\n        /* \"#utility.yul\":3072:3104   */\n      calldataload\n        /* \"#utility.yul\":3131:3149   */\n      0xffffffffffffffff\n        /* \"#utility.yul\":3123:3129   */\n      dup2\n        /* \"#utility.yul\":3120:3150   */\n      gt\n        /* \"#utility.yul\":3117:3234   */\n      iszero\n      tag_199\n      jumpi\n        /* \"#utility.yul\":3153:3232   */\n      tag_200\n      tag_90\n      jump\t// in\n    tag_200:\n        /* \"#utility.yul\":3117:3234   */\n    tag_199:\n        /* \"#utility.yul\":3266:3331   */\n      tag_201\n        /* \"#utility.yul\":3323:3330   */\n      dup10\n        /* \"#utility.yul\":3314:3320   */\n      dup3\n        /* \"#utility.yul\":3303:3312   */\n      dup11\n        /* \"#utility.yul\":3299:3321   */\n      add\n        /* \"#utility.yul\":3266:3331   */\n      tag_99\n      jump\t// in\n    tag_201:\n        /* \"#utility.yul\":3248:3331   */\n      swap5\n      pop\n      swap5\n      pop\n        /* \"#utility.yul\":3043:3341   */\n      pop\n        /* \"#utility.yul\":3408:3410   */\n      0x60\n        /* \"#utility.yul\":3397:3406   */\n      dup8\n        /* \"#utility.yul\":3393:3411   */\n      add\n        /* \"#utility.yul\":3380:3412   */\n      calldataload\n        /* \"#utility.yul\":3439:3457   */\n      0xffffffffffffffff\n        /* \"#utility.yul\":3431:3437   */\n      dup2\n        /* \"#utility.yul\":3428:3458   */\n      gt\n        /* \"#utility.yul\":3425:3542   */\n      iszero\n      tag_202\n      jumpi\n        /* \"#utility.yul\":3461:3540   */\n      tag_203\n      tag_90\n      jump\t// in\n    tag_203:\n        /* \"#utility.yul\":3425:3542   */\n    tag_202:\n        /* \"#utility.yul\":3574:3639   */\n      tag_204\n        /* \"#utility.yul\":3631:3638   */\n      dup10\n        /* \"#utility.yul\":3622:3628   */\n      dup3\n        /* \"#utility.yul\":3611:3620   */\n      dup11\n        /* \"#utility.yul\":3607:3629   */\n      add\n        /* \"#utility.yul\":3574:3639   */\n      tag_99\n      jump\t// in\n    tag_204:\n        /* \"#utility.yul\":3556:3639   */\n      swap3\n      pop\n      swap3\n      pop\n        /* \"#utility.yul\":3351:3649   */\n      pop\n        /* \"#utility.yul\":2491:3656   */\n      swap3\n      swap6\n      pop\n      swap3\n      swap6\n      pop\n      swap3\n      swap6\n      jump\t// out\n        /* \"#utility.yul\":3662:3779   */\n    tag_100:\n        /* \"#utility.yul\":3771:3772   */\n      0x00\n        /* \"#utility.yul\":3768:3769   */\n      dup1\n        /* \"#utility.yul\":3761:3773   */\n      revert\n        /* \"#utility.yul\":3785:3887   */\n    tag_101:\n        /* \"#utility.yul\":3826:3832   */\n      0x00\n        /* \"#utility.yul\":3877:3879   */\n      0x1f\n        /* \"#utility.yul\":3873:3880   */\n      not\n        /* \"#utility.yul\":3868:3870   */\n      0x1f\n        /* \"#utility.yul\":3861:3866   */\n      dup4\n        /* \"#utility.yul\":3857:3871   */\n      add\n        /* \"#utility.yul\":3853:3881   */\n      and\n        /* \"#utility.yul\":3843:3881   */\n      swap1\n      pop\n        /* \"#utility.yul\":3785:3887   */\n      swap2\n      swap1\n      pop\n      jump\t// out\n        /* \"#utility.yul\":3893:4073   */\n    tag_102:\n        /* \"#utility.yul\":3941:4018   */\n      0x4e487b7100000000000000000000000000000000000000000000000000000000\n        /* \"#utility.yul\":3938:3939   */\n      0x00\n        /* \"#utility.yul\":3931:4019   */\n      mstore\n        /* \"#utility.yul\":4038:4042   */\n      0x41\n        /* \"#utility.yul\":4035:4036   */\n      0x04\n        /* \"#utility.yul\":4028:4043   */\n      mstore\n        /* \"#utility.yul\":4062:4066   */\n      0x24\n        /* \"#utility.yul\":4059:4060   */\n      0x00\n        /* \"#utility.yul\":4052:4067   */\n      revert\n        /* \"#utility.yul\":4079:4360   */\n    tag_103:\n        /* \"#utility.yul\":4162:4189   */\n      tag_209\n        /* \"#utility.yul\":4184:4188   */\n      dup3\n        /* \"#utility.yul\":4162:4189   */\n      tag_101\n      jump\t// in\n    tag_209:\n        /* \"#utility.yul\":4154:4160   */\n      dup2\n        /* \"#utility.yul\":4150:4190   */\n      add\n        /* \"#utility.yul\":4292:4298   */\n      dup2\n        /* \"#utility.yul\":4280:4290   */\n      dup2\n        /* \"#utility.yul\":4277:4299   */\n      lt\n        /* \"#utility.yul\":4256:4274   */\n      0xffffffffffffffff\n        /* \"#utility.yul\":4244:4254   */\n      dup3\n        /* \"#utility.yul\":4241:4275   */\n      gt\n        /* \"#utility.yul\":4238:4300   */\n      or\n        /* \"#utility.yul\":4235:4323   */\n      iszero\n      tag_210\n      jumpi\n        /* \"#utility.yul\":4303:4321   */\n      tag_211\n      tag_102\n      jump\t// in\n    tag_211:\n        /* \"#utility.yul\":4235:4323   */\n    tag_210:\n        /* \"#utility.yul\":4343:4353   */\n      dup1\n        /* \"#utility.yul\":4339:4341   */\n      0x40\n        /* \"#utility.yul\":4332:4354   */\n      mstore\n        /* \"#utility.yul\":4122:4360   */\n      pop\n        /* \"#utility.yul\":4079:4360   */\n      pop\n      pop\n      jump\t// out\n        /* \"#utility.yul\":4366:4495   */\n    tag_104:\n        /* \"#utility.yul\":4400:4406   */\n      0x00\n        /* \"#utility.yul\":4427:4447   */\n      tag_213\n      tag_88\n      jump\t// in\n    tag_213:\n        /* \"#utility.yul\":4417:4447   */\n      swap1\n      pop\n        /* \"#utility.yul\":4456:4489   */\n      tag_214\n        /* \"#utility.yul\":4484:4488   */\n      dup3\n        /* \"#utility.yul\":4476:4482   */\n      dup3\n        /* \"#utility.yul\":4456:4489   */\n      tag_103\n      jump\t// in\n    tag_214:\n        /* \"#utility.yul\":4366:4495   */\n      swap2\n      swap1\n      pop\n      jump\t// out\n        /* \"#utility.yul\":4501:4809   */\n    tag_105:\n        /* \"#utility.yul\":4563:4567   */\n      0x00\n        /* \"#utility.yul\":4653:4671   */\n      0xffffffffffffffff\n        /* \"#utility.yul\":4645:4651   */\n      dup3\n        /* \"#utility.yul\":4642:4672   */\n      gt\n        /* \"#utility.yul\":4639:4695   */\n      iszero\n      tag_216\n      jumpi\n        /* \"#utility.yul\":4675:4693   */\n      tag_217\n      tag_102\n      jump\t// in\n    tag_217:\n        /* \"#utility.yul\":4639:4695   */\n    tag_216:\n        /* \"#utility.yul\":4713:4742   */\n      tag_218\n        /* \"#utility.yul\":4735:4741   */\n      dup3\n        /* \"#utility.yul\":4713:4742   */\n      tag_101\n      jump\t// in\n    tag_218:\n        /* \"#utility.yul\":4705:4742   */\n      swap1\n      pop\n        /* \"#utility.yul\":4797:4801   */\n      0x20\n        /* \"#utility.yul\":4791:4795   */\n      dup2\n        /* \"#utility.yul\":4787:4802   */\n      add\n        /* \"#utility.yul\":4779:4802   */\n      swap1\n      pop\n        /* \"#utility.yul\":4501:4809   */\n      swap2\n      swap1\n      pop\n      jump\t// out\n        /* \"#utility.yul\":4815:4961   */\n    tag_106:\n        /* \"#utility.yul\":4912:4918   */\n      dup3\n        /* \"#utility.yul\":4907:4910   */\n      dup2\n        /* \"#utility.yul\":4902:4905   */\n      dup4\n        /* \"#utility.yul\":4889:4919   */\n      calldatacopy\n        /* \"#utility.yul\":4953:4954   */\n      0x00\n        /* \"#utility.yul\":4944:4950   */\n      dup4\n        /* \"#utility.yul\":4939:4942   */\n      dup4\n        /* \"#utility.yul\":4935:4951   */\n      add\n        /* \"#utility.yul\":4928:4955   */\n      mstore\n        /* \"#utility.yul\":4815:4961   */\n      pop\n      pop\n      pop\n      jump\t// out\n        /* \"#utility.yul\":4967:5392   */\n    tag_107:\n        /* \"#utility.yul\":5045:5050   */\n      0x00\n        /* \"#utility.yul\":5070:5136   */\n      tag_221\n        /* \"#utility.yul\":5086:5135   */\n      tag_222\n        /* \"#utility.yul\":5128:5134   */\n      dup5\n        /* \"#utility.yul\":5086:5135   */\n      tag_105\n      jump\t// in\n    tag_222:\n        /* \"#utility.yul\":5070:5136   */\n      tag_104\n      jump\t// in\n    tag_221:\n        /* \"#utility.yul\":5061:5136   */\n      swap1\n      pop\n        /* \"#utility.yul\":5159:5165   */\n      dup3\n        /* \"#utility.yul\":5152:5157   */\n      dup2\n        /* \"#utility.yul\":5145:5166   */\n      mstore\n        /* \"#utility.yul\":5197:5201   */\n      0x20\n        /* \"#utility.yul\":5190:5195   */\n      dup2\n        /* \"#utility.yul\":5186:5202   */\n      add\n        /* \"#utility.yul\":5235:5238   */\n      dup5\n        /* \"#utility.yul\":5226:5232   */\n      dup5\n        /* \"#utility.yul\":5221:5224   */\n      dup5\n        /* \"#utility.yul\":5217:5233   */\n      add\n        /* \"#utility.yul\":5214:5239   */\n      gt\n        /* \"#utility.yul\":5211:5323   */\n      iszero\n      tag_223\n      jumpi\n        /* \"#utility.yul\":5242:5321   */\n      tag_224\n      tag_100\n      jump\t// in\n    tag_224:\n        /* \"#utility.yul\":5211:5323   */\n    tag_223:\n        /* \"#utility.yul\":5332:5386   */\n      tag_225\n        /* \"#utility.yul\":5379:5385   */\n      dup5\n        /* \"#utility.yul\":5374:5377   */\n      dup3\n        /* \"#utility.yul\":5369:5372   */\n      dup6\n        /* \"#utility.yul\":5332:5386   */\n      tag_106\n      jump\t// in\n    tag_225:\n        /* \"#utility.yul\":5051:5392   */\n      pop\n        /* \"#utility.yul\":4967:5392   */\n      swap4\n      swap3\n      pop\n      pop\n      pop\n      jump\t// out\n        /* \"#utility.yul\":5412:5752   */\n    tag_108:\n        /* \"#utility.yul\":5468:5473   */\n      0x00\n        /* \"#utility.yul\":5517:5520   */\n      dup3\n        /* \"#utility.yul\":5510:5514   */\n      0x1f\n        /* \"#utility.yul\":5502:5508   */\n      dup4\n        /* \"#utility.yul\":5498:5515   */\n      add\n        /* \"#utility.yul\":5494:5521   */\n      slt\n        /* \"#utility.yul\":5484:5606   */\n      tag_227\n      jumpi\n        /* \"#utility.yul\":5525:5604   */\n      tag_228\n      tag_96\n      jump\t// in\n    tag_228:\n        /* \"#utility.yul\":5484:5606   */\n    tag_227:\n        /* \"#utility.yul\":5642:5648   */\n      dup2\n        /* \"#utility.yul\":5629:5649   */\n      calldataload\n        /* \"#utility.yul\":5667:5746   */\n      tag_229\n        /* \"#utility.yul\":5742:5745   */\n      dup5\n        /* \"#utility.yul\":5734:5740   */\n      dup3\n        /* \"#utility.yul\":5727:5731   */\n      0x20\n        /* \"#utility.yul\":5719:5725   */\n      dup7\n        /* \"#utility.yul\":5715:5732   */\n      add\n        /* \"#utility.yul\":5667:5746   */\n      tag_107\n      jump\t// in\n    tag_229:\n        /* \"#utility.yul\":5658:5746   */\n      swap2\n      pop\n        /* \"#utility.yul\":5474:5752   */\n      pop\n        /* \"#utility.yul\":5412:5752   */\n      swap3\n      swap2\n      pop\n      pop\n      jump\t// out\n        /* \"#utility.yul\":5758:6267   */\n    tag_21:\n        /* \"#utility.yul\":5827:5833   */\n      0x00\n        /* \"#utility.yul\":5876:5878   */\n      0x20\n        /* \"#utility.yul\":5864:5873   */\n      dup3\n        /* \"#utility.yul\":5855:5862   */\n      dup5\n        /* \"#utility.yul\":5851:5874   */\n      sub\n        /* \"#utility.yul\":5847:5879   */\n      slt\n        /* \"#utility.yul\":5844:5963   */\n      iszero\n      tag_231\n      jumpi\n        /* \"#utility.yul\":5882:5961   */\n      tag_232\n      tag_89\n      jump\t// in\n    tag_232:\n        /* \"#utility.yul\":5844:5963   */\n    tag_231:\n        /* \"#utility.yul\":6030:6031   */\n      0x00\n        /* \"#utility.yul\":6019:6028   */\n      dup3\n        /* \"#utility.yul\":6015:6032   */\n      add\n        /* \"#utility.yul\":6002:6033   */\n      calldataload\n        /* \"#utility.yul\":6060:6078   */\n      0xffffffffffffffff\n        /* \"#utility.yul\":6052:6058   */\n      dup2\n        /* \"#utility.yul\":6049:6079   */\n      gt\n        /* \"#utility.yul\":6046:6163   */\n      iszero\n      tag_233\n      jumpi\n        /* \"#utility.yul\":6082:6161   */\n      tag_234\n      tag_90\n      jump\t// in\n    tag_234:\n        /* \"#utility.yul\":6046:6163   */\n    tag_233:\n        /* \"#utility.yul\":6187:6250   */\n      tag_235\n        /* \"#utility.yul\":6242:6249   */\n      dup5\n        /* \"#utility.yul\":6233:6239   */\n      dup3\n        /* \"#utility.yul\":6222:6231   */\n      dup6\n        /* \"#utility.yul\":6218:6240   */\n      add\n        /* \"#utility.yul\":6187:6250   */\n      tag_108\n      jump\t// in\n    tag_235:\n        /* \"#utility.yul\":6177:6250   */\n      swap2\n      pop\n        /* \"#utility.yul\":5973:6260   */\n      pop\n        /* \"#utility.yul\":5758:6267   */\n      swap3\n      swap2\n      pop\n      pop\n      jump\t// out\n        /* \"#utility.yul\":6273:6372   */\n    tag_109:\n        /* \"#utility.yul\":6325:6331   */\n      0x00\n        /* \"#utility.yul\":6359:6364   */\n      dup2\n        /* \"#utility.yul\":6353:6365   */\n      mload\n        /* \"#utility.yul\":6343:6365   */\n      swap1\n      pop\n        /* \"#utility.yul\":6273:6372   */\n      swap2\n      swap1\n      pop\n      jump\t// out\n        /* \"#utility.yul\":6378:6547   */\n    tag_110:\n        /* \"#utility.yul\":6462:6473   */\n      0x00\n        /* \"#utility.yul\":6496:6502   */\n      dup3\n        /* \"#utility.yul\":6491:6494   */\n      dup3\n        /* \"#utility.yul\":6484:6503   */\n      mstore\n        /* \"#utility.yul\":6536:6540   */\n      0x20\n        /* \"#utility.yul\":6531:6534   */\n      dup3\n        /* \"#utility.yul\":6527:6541   */\n      add\n        /* \"#utility.yul\":6512:6541   */\n      swap1\n      pop\n        /* \"#utility.yul\":6378:6547   */\n      swap3\n      swap2\n      pop\n      pop\n      jump\t// out\n        /* \"#utility.yul\":6553:6799   */\n    tag_111:\n        /* \"#utility.yul\":6634:6635   */\n      0x00\n        /* \"#utility.yul\":6644:6757   */\n    tag_239:\n        /* \"#utility.yul\":6658:6664   */\n      dup4\n        /* \"#utility.yul\":6655:6656   */\n      dup2\n        /* \"#utility.yul\":6652:6665   */\n      lt\n        /* \"#utility.yul\":6644:6757   */\n      iszero\n      tag_241\n      jumpi\n        /* \"#utility.yul\":6743:6744   */\n      dup1\n        /* \"#utility.yul\":6738:6741   */\n      dup3\n        /* \"#utility.yul\":6734:6745   */\n      add\n        /* \"#utility.yul\":6728:6746   */\n      mload\n        /* \"#utility.yul\":6724:6725   */\n      dup2\n        /* \"#utility.yul\":6719:6722   */\n      dup5\n        /* \"#utility.yul\":6715:6726   */\n      add\n        /* \"#utility.yul\":6708:6747   */\n      mstore\n        /* \"#utility.yul\":6680:6682   */\n      0x20\n        /* \"#utility.yul\":6677:6678   */\n      dup2\n        /* \"#utility.yul\":6673:6683   */\n      add\n        /* \"#utility.yul\":6668:6683   */\n      swap1\n      pop\n        /* \"#utility.yul\":6644:6757   */\n      jump(tag_239)\n    tag_241:\n        /* \"#utility.yul\":6791:6792   */\n      0x00\n        /* \"#utility.yul\":6782:6788   */\n      dup5\n        /* \"#utility.yul\":6777:6780   */\n      dup5\n        /* \"#utility.yul\":6773:6789   */\n      add\n        /* \"#utility.yul\":6766:6793   */\n      mstore\n        /* \"#utility.yul\":6615:6799   */\n      pop\n        /* \"#utility.yul\":6553:6799   */\n      pop\n      pop\n      pop\n      jump\t// out\n        /* \"#utility.yul\":6805:7182   */\n    tag_112:\n        /* \"#utility.yul\":6893:6896   */\n      0x00\n        /* \"#utility.yul\":6921:6960   */\n      tag_243\n        /* \"#utility.yul\":6954:6959   */\n      dup3\n        /* \"#utility.yul\":6921:6960   */\n      tag_109\n      jump\t// in\n    tag_243:\n        /* \"#utility.yul\":6976:7047   */\n      tag_244\n        /* \"#utility.yul\":7040:7046   */\n      dup2\n        /* \"#utility.yul\":7035:7038   */\n      dup6\n        /* \"#utility.yul\":6976:7047   */\n      tag_110\n      jump\t// in\n    tag_244:\n        /* \"#utility.yul\":6969:7047   */\n      swap4\n      pop\n        /* \"#utility.yul\":7056:7121   */\n      tag_245\n        /* \"#utility.yul\":7114:7120   */\n      dup2\n        /* \"#utility.yul\":7109:7112   */\n      dup6\n        /* \"#utility.yul\":7102:7106   */\n      0x20\n        /* \"#utility.yul\":7095:7100   */\n      dup7\n        /* \"#utility.yul\":7091:7107   */\n      add\n        /* \"#utility.yul\":7056:7121   */\n      tag_111\n      jump\t// in\n    tag_245:\n        /* \"#utility.yul\":7146:7175   */\n      tag_246\n        /* \"#utility.yul\":7168:7174   */\n      dup2\n        /* \"#utility.yul\":7146:7175   */\n      tag_101\n      jump\t// in\n    tag_246:\n        /* \"#utility.yul\":7141:7144   */\n      dup5\n        /* \"#utility.yul\":7137:7176   */\n      add\n        /* \"#utility.yul\":7130:7176   */\n      swap2\n      pop\n        /* \"#utility.yul\":6897:7182   */\n      pop\n        /* \"#utility.yul\":6805:7182   */\n      swap3\n      swap2\n      pop\n      pop\n      jump\t// out\n        /* \"#utility.yul\":7188:7501   */\n    tag_24:\n        /* \"#utility.yul\":7301:7305   */\n      0x00\n        /* \"#utility.yul\":7339:7341   */\n      0x20\n        /* \"#utility.yul\":7328:7337   */\n      dup3\n        /* \"#utility.yul\":7324:7342   */\n      add\n        /* \"#utility.yul\":7316:7342   */\n      swap1\n      pop\n        /* \"#utility.yul\":7388:7397   */\n      dup2\n        /* \"#utility.yul\":7382:7386   */\n      dup2\n        /* \"#utility.yul\":7378:7398   */\n      sub\n        /* \"#utility.yul\":7374:7375   */\n      0x00\n        /* \"#utility.yul\":7363:7372   */\n      dup4\n        /* \"#utility.yul\":7359:7376   */\n      add\n        /* \"#utility.yul\":7352:7399   */\n      mstore\n        /* \"#utility.yul\":7416:7494   */\n      tag_248\n        /* \"#utility.yul\":7489:7493   */\n      dup2\n        /* \"#utility.yul\":7480:7486   */\n      dup5\n        /* \"#utility.yul\":7416:7494   */\n      tag_112\n      jump\t// in\n    tag_248:\n        /* \"#utility.yul\":7408:7494   */\n      swap1\n      pop\n        /* \"#utility.yul\":7188:7501   */\n      swap3\n      swap2\n      pop\n      pop\n      jump\t// out\n        /* \"#utility.yul\":7507:7625   */\n    tag_113:\n        /* \"#utility.yul\":7594:7618   */\n      tag_250\n        /* \"#utility.yul\":7612:7617   */\n      dup2\n        /* \"#utility.yul\":7594:7618   */\n      tag_93\n      jump\t// in\n    tag_250:\n        /* \"#utility.yul\":7589:7592   */\n      dup3\n        /* \"#utility.yul\":7582:7619   */\n      mstore\n        /* \"#utility.yul\":7507:7625   */\n      pop\n      pop\n      jump\t// out\n        /* \"#utility.yul\":7631:7853   */\n    tag_29:\n        /* \"#utility.yul\":7724:7728   */\n      0x00\n        /* \"#utility.yul\":7762:7764   */\n      0x20\n        /* \"#utility.yul\":7751:7760   */\n      dup3\n        /* \"#utility.yul\":7747:7765   */\n      add\n        /* \"#utility.yul\":7739:7765   */\n      swap1\n      pop\n        /* \"#utility.yul\":7775:7846   */\n      tag_252\n        /* \"#utility.yul\":7843:7844   */\n      0x00\n        /* \"#utility.yul\":7832:7841   */\n      dup4\n        /* \"#utility.yul\":7828:7845   */\n      add\n        /* \"#utility.yul\":7819:7825   */\n      dup5\n        /* \"#utility.yul\":7775:7846   */\n      tag_113\n      jump\t// in\n    tag_252:\n        /* \"#utility.yul\":7631:7853   */\n      swap3\n      swap2\n      pop\n      pop\n      jump\t// out\n        /* \"#utility.yul\":7859:8333   */\n    tag_35:\n        /* \"#utility.yul\":7927:7933   */\n      0x00\n        /* \"#utility.yul\":7935:7941   */\n      dup1\n        /* \"#utility.yul\":7984:7986   */\n      0x40\n        /* \"#utility.yul\":7972:7981   */\n      dup4\n        /* \"#utility.yul\":7963:7970   */\n      dup6\n        /* \"#utility.yul\":7959:7982   */\n      sub\n        /* \"#utility.yul\":7955:7987   */\n      slt\n        /* \"#utility.yul\":7952:8071   */\n      iszero\n      tag_254\n      jumpi\n        /* \"#utility.yul\":7990:8069   */\n      tag_255\n      tag_89\n      jump\t// in\n    tag_255:\n        /* \"#utility.yul\":7952:8071   */\n    tag_254:\n        /* \"#utility.yul\":8110:8111   */\n      0x00\n        /* \"#utility.yul\":8135:8188   */\n      tag_256\n        /* \"#utility.yul\":8180:8187   */\n      dup6\n        /* \"#utility.yul\":8171:8177   */\n      dup3\n        /* \"#utility.yul\":8160:8169   */\n      dup7\n        /* \"#utility.yul\":8156:8178   */\n      add\n        /* \"#utility.yul\":8135:8188   */\n      tag_92\n      jump\t// in\n    tag_256:\n        /* \"#utility.yul\":8125:8188   */\n      swap3\n      pop\n        /* \"#utility.yul\":8081:8198   */\n      pop\n        /* \"#utility.yul\":8237:8239   */\n      0x20\n        /* \"#utility.yul\":8263:8316   */\n      tag_257\n        /* \"#utility.yul\":8308:8315   */\n      dup6\n        /* \"#utility.yul\":8299:8305   */\n      dup3\n        /* \"#utility.yul\":8288:8297   */\n      dup7\n        /* \"#utility.yul\":8284:8306   */\n      add\n        /* \"#utility.yul\":8263:8316   */\n      tag_95\n      jump\t// in\n    tag_257:\n        /* \"#utility.yul\":8253:8316   */\n      swap2\n      pop\n        /* \"#utility.yul\":8208:8326   */\n      pop\n        /* \"#utility.yul\":7859:8333   */\n      swap3\n      pop\n      swap3\n      swap1\n      pop\n      jump\t// out\n        /* \"#utility.yul\":8339:8399   */\n    tag_114:\n        /* \"#utility.yul\":8367:8370   */\n      0x00\n        /* \"#utility.yul\":8388:8393   */\n      dup2\n        /* \"#utility.yul\":8381:8393   */\n      swap1\n      pop\n        /* \"#utility.yul\":8339:8399   */\n      swap2\n      swap1\n      pop\n      jump\t// out\n        /* \"#utility.yul\":8405:8547   */\n    tag_115:\n        /* \"#utility.yul\":8455:8464   */\n      0x00\n        /* \"#utility.yul\":8488:8541   */\n      tag_260\n        /* \"#utility.yul\":8506:8540   */\n      tag_261\n        /* \"#utility.yul\":8515:8539   */\n      tag_262\n        /* \"#utility.yul\":8533:8538   */\n      dup5\n        /* \"#utility.yul\":8515:8539   */\n      tag_85\n      jump\t// in\n    tag_262:\n        /* \"#utility.yul\":8506:8540   */\n      tag_114\n      jump\t// in\n    tag_261:\n        /* \"#utility.yul\":8488:8541   */\n      tag_85\n      jump\t// in\n    tag_260:\n        /* \"#utility.yul\":8475:8541   */\n      swap1\n      pop\n        /* \"#utility.yul\":8405:8547   */\n      swap2\n      swap1\n      pop\n      jump\t// out\n        /* \"#utility.yul\":8553:8679   */\n    tag_116:\n        /* \"#utility.yul\":8603:8612   */\n      0x00\n        /* \"#utility.yul\":8636:8673   */\n      tag_264\n        /* \"#utility.yul\":8667:8672   */\n      dup3\n        /* \"#utility.yul\":8636:8673   */\n      tag_115\n      jump\t// in\n    tag_264:\n        /* \"#utility.yul\":8623:8673   */\n      swap1\n      pop\n        /* \"#utility.yul\":8553:8679   */\n      swap2\n      swap1\n      pop\n      jump\t// out\n        /* \"#utility.yul\":8685:8824   */\n    tag_117:\n        /* \"#utility.yul\":8748:8757   */\n      0x00\n        /* \"#utility.yul\":8781:8818   */\n      tag_266\n        /* \"#utility.yul\":8812:8817   */\n      dup3\n        /* \"#utility.yul\":8781:8818   */\n      tag_116\n      jump\t// in\n    tag_266:\n        /* \"#utility.yul\":8768:8818   */\n      swap1\n      pop\n        /* \"#utility.yul\":8685:8824   */\n      swap2\n      swap1\n      pop\n      jump\t// out\n        /* \"#utility.yul\":8830:8987   */\n    tag_118:\n        /* \"#utility.yul\":8930:8980   */\n      tag_268\n        /* \"#utility.yul\":8974:8979   */\n      dup2\n        /* \"#utility.yul\":8930:8980   */\n      tag_117\n      jump\t// in\n    tag_268:\n        /* \"#utility.yul\":8925:8928   */\n      dup3\n        /* \"#utility.yul\":8918:8981   */\n      mstore\n        /* \"#utility.yul\":8830:8987   */\n      pop\n      pop\n      jump\t// out\n        /* \"#utility.yul\":8993:9241   */\n    tag_40:\n        /* \"#utility.yul\":9099:9103   */\n      0x00\n        /* \"#utility.yul\":9137:9139   */\n      0x20\n        /* \"#utility.yul\":9126:9135   */\n      dup3\n        /* \"#utility.yul\":9122:9140   */\n      add\n        /* \"#utility.yul\":9114:9140   */\n      swap1\n      pop\n        /* \"#utility.yul\":9150:9234   */\n      tag_270\n        /* \"#utility.yul\":9231:9232   */\n      0x00\n        /* \"#utility.yul\":9220:9229   */\n      dup4\n        /* \"#utility.yul\":9216:9233   */\n      add\n        /* \"#utility.yul\":9207:9213   */\n      dup5\n        /* \"#utility.yul\":9150:9234   */\n      tag_118\n      jump\t// in\n    tag_270:\n        /* \"#utility.yul\":8993:9241   */\n      swap3\n      swap2\n      pop\n      pop\n      jump\t// out\n        /* \"#utility.yul\":9247:9407   */\n    tag_119:\n        /* \"#utility.yul\":9387:9399   */\n      0x4f6e6c79206f776e657200000000000000000000000000000000000000000000\n        /* \"#utility.yul\":9383:9384   */\n      0x00\n        /* \"#utility.yul\":9375:9381   */\n      dup3\n        /* \"#utility.yul\":9371:9385   */\n      add\n        /* \"#utility.yul\":9364:9400   */\n      mstore\n        /* \"#utility.yul\":9247:9407   */\n      pop\n      jump\t// out\n        /* \"#utility.yul\":9413:9779   */\n    tag_120:\n        /* \"#utility.yul\":9555:9558   */\n      0x00\n        /* \"#utility.yul\":9576:9643   */\n      tag_273\n        /* \"#utility.yul\":9640:9642   */\n      0x0a\n        /* \"#utility.yul\":9635:9638   */\n      dup4\n        /* \"#utility.yul\":9576:9643   */\n      tag_110\n      jump\t// in\n    tag_273:\n        /* \"#utility.yul\":9569:9643   */\n      swap2\n      pop\n        /* \"#utility.yul\":9652:9745   */\n      tag_274\n        /* \"#utility.yul\":9741:9744   */\n      dup3\n        /* \"#utility.yul\":9652:9745   */\n      tag_119\n      jump\t// in\n    tag_274:\n        /* \"#utility.yul\":9770:9772   */\n      0x20\n        /* \"#utility.yul\":9765:9768   */\n      dup3\n        /* \"#utility.yul\":9761:9773   */\n      add\n        /* \"#utility.yul\":9754:9773   */\n      swap1\n      pop\n        /* \"#utility.yul\":9413:9779   */\n      swap2\n      swap1\n      pop\n      jump\t// out\n        /* \"#utility.yul\":9785:10204   */\n    tag_44:\n        /* \"#utility.yul\":9951:9955   */\n      0x00\n        /* \"#utility.yul\":9989:9991   */\n      0x20\n        /* \"#utility.yul\":9978:9987   */\n      dup3\n        /* \"#utility.yul\":9974:9992   */\n      add\n        /* \"#utility.yul\":9966:9992   */\n      swap1\n      pop\n        /* \"#utility.yul\":10038:10047   */\n      dup2\n        /* \"#utility.yul\":10032:10036   */\n      dup2\n        /* \"#utility.yul\":10028:10048   */\n      sub\n        /* \"#utility.yul\":10024:10025   */\n      0x00\n        /* \"#utility.yul\":10013:10022   */\n      dup4\n        /* \"#utility.yul\":10009:10026   */\n      add\n        /* \"#utility.yul\":10002:10049   */\n      mstore\n        /* \"#utility.yul\":10066:10197   */\n      tag_276\n        /* \"#utility.yul\":10192:10196   */\n      dup2\n        /* \"#utility.yul\":10066:10197   */\n      tag_120\n      jump\t// in\n    tag_276:\n        /* \"#utility.yul\":10058:10197   */\n      swap1\n      pop\n        /* \"#utility.yul\":9785:10204   */\n      swap2\n      swap1\n      pop\n      jump\t// out\n        /* \"#utility.yul\":10210:10652   */\n    tag_47:\n        /* \"#utility.yul\":10359:10363   */\n      0x00\n        /* \"#utility.yul\":10397:10399   */\n      0x60\n        /* \"#utility.yul\":10386:10395   */\n      dup3\n        /* \"#utility.yul\":10382:10400   */\n      add\n        /* \"#utility.yul\":10374:10400   */\n      swap1\n      pop\n        /* \"#utility.yul\":10410:10481   */\n      tag_278\n        /* \"#utility.yul\":10478:10479   */\n      0x00\n        /* \"#utility.yul\":10467:10476   */\n      dup4\n        /* \"#utility.yul\":10463:10480   */\n      add\n        /* \"#utility.yul\":10454:10460   */\n      dup7\n        /* \"#utility.yul\":10410:10481   */\n      tag_87\n      jump\t// in\n    tag_278:\n        /* \"#utility.yul\":10491:10563   */\n      tag_279\n        /* \"#utility.yul\":10559:10561   */\n      0x20\n        /* \"#utility.yul\":10548:10557   */\n      dup4\n        /* \"#utility.yul\":10544:10562   */\n      add\n        /* \"#utility.yul\":10535:10541   */\n      dup6\n        /* \"#utility.yul\":10491:10563   */\n      tag_87\n      jump\t// in\n    tag_279:\n        /* \"#utility.yul\":10573:10645   */\n      tag_280\n        /* \"#utility.yul\":10641:10643   */\n      0x40\n        /* \"#utility.yul\":10630:10639   */\n      dup4\n        /* \"#utility.yul\":10626:10644   */\n      add\n        /* \"#utility.yul\":10617:10623   */\n      dup5\n        /* \"#utility.yul\":10573:10645   */\n      tag_113\n      jump\t// in\n    tag_280:\n        /* \"#utility.yul\":10210:10652   */\n      swap5\n      swap4\n      pop\n      pop\n      pop\n      pop\n      jump\t// out\n        /* \"#utility.yul\":10658:10748   */\n    tag_121:\n        /* \"#utility.yul\":10692:10699   */\n      0x00\n        /* \"#utility.yul\":10735:10740   */\n      dup2\n        /* \"#utility.yul\":10728:10741   */\n      iszero\n        /* \"#utility.yul\":10721:10742   */\n      iszero\n        /* \"#utility.yul\":10710:10742   */\n      swap1\n      pop\n        /* \"#utility.yul\":10658:10748   */\n      swap2\n      swap1\n      pop\n      jump\t// out\n        /* \"#utility.yul\":10754:10870   */\n    tag_122:\n        /* \"#utility.yul\":10824:10845   */\n      tag_283\n        /* \"#utility.yul\":10839:10844   */\n      dup2\n        /* \"#utility.yul\":10824:10845   */\n      tag_121\n      jump\t// in\n    tag_283:\n        /* \"#utility.yul\":10817:10822   */\n      dup2\n        /* \"#utility.yul\":10814:10846   */\n      eq\n        /* \"#utility.yul\":10804:10864   */\n      tag_284\n      jumpi\n        /* \"#utility.yul\":10860:10861   */\n      0x00\n        /* \"#utility.yul\":10857:10858   */\n      dup1\n        /* \"#utility.yul\":10850:10862   */\n      revert\n        /* \"#utility.yul\":10804:10864   */\n    tag_284:\n        /* \"#utility.yul\":10754:10870   */\n      pop\n      jump\t// out\n        /* \"#utility.yul\":10876:11013   */\n    tag_123:\n        /* \"#utility.yul\":10930:10935   */\n      0x00\n        /* \"#utility.yul\":10961:10967   */\n      dup2\n        /* \"#utility.yul\":10955:10968   */\n      mload\n        /* \"#utility.yul\":10946:10968   */\n      swap1\n      pop\n        /* \"#utility.yul\":10977:11007   */\n      tag_286\n        /* \"#utility.yul\":11001:11006   */\n      dup2\n        /* \"#utility.yul\":10977:11007   */\n      tag_122\n      jump\t// in\n    tag_286:\n        /* \"#utility.yul\":10876:11013   */\n      swap3\n      swap2\n      pop\n      pop\n      jump\t// out\n        /* \"#utility.yul\":11019:11364   */\n    tag_51:\n        /* \"#utility.yul\":11086:11092   */\n      0x00\n        /* \"#utility.yul\":11135:11137   */\n      0x20\n        /* \"#utility.yul\":11123:11132   */\n      dup3\n        /* \"#utility.yul\":11114:11121   */\n      dup5\n        /* \"#utility.yul\":11110:11133   */\n      sub\n        /* \"#utility.yul\":11106:11138   */\n      slt\n        /* \"#utility.yul\":11103:11222   */\n      iszero\n      tag_288\n      jumpi\n        /* \"#utility.yul\":11141:11220   */\n      tag_289\n      tag_89\n      jump\t// in\n    tag_289:\n        /* \"#utility.yul\":11103:11222   */\n    tag_288:\n        /* \"#utility.yul\":11261:11262   */\n      0x00\n        /* \"#utility.yul\":11286:11347   */\n      tag_290\n        /* \"#utility.yul\":11339:11346   */\n      dup5\n        /* \"#utility.yul\":11330:11336   */\n      dup3\n        /* \"#utility.yul\":11319:11328   */\n      dup6\n        /* \"#utility.yul\":11315:11337   */\n      add\n        /* \"#utility.yul\":11286:11347   */\n      tag_123\n      jump\t// in\n    tag_290:\n        /* \"#utility.yul\":11276:11347   */\n      swap2\n      pop\n        /* \"#utility.yul\":11232:11357   */\n      pop\n        /* \"#utility.yul\":11019:11364   */\n      swap3\n      swap2\n      pop\n      pop\n      jump\t// out\n        /* \"#utility.yul\":11370:11547   */\n    tag_124:\n        /* \"#utility.yul\":11510:11539   */\n      0x5472616e7366657220746f20636f6e7472616374206661696c65640000000000\n        /* \"#utility.yul\":11506:11507   */\n      0x00\n        /* \"#utility.yul\":11498:11504   */\n      dup3\n        /* \"#utility.yul\":11494:11508   */\n      add\n        /* \"#utility.yul\":11487:11540   */\n      mstore\n        /* \"#utility.yul\":11370:11547   */\n      pop\n      jump\t// out\n        /* \"#utility.yul\":11553:11919   */\n    tag_125:\n        /* \"#utility.yul\":11695:11698   */\n      0x00\n        /* \"#utility.yul\":11716:11783   */\n      tag_293\n        /* \"#utility.yul\":11780:11782   */\n      0x1b\n        /* \"#utility.yul\":11775:11778   */\n      dup4\n        /* \"#utility.yul\":11716:11783   */\n      tag_110\n      jump\t// in\n    tag_293:\n        /* \"#utility.yul\":11709:11783   */\n      swap2\n      pop\n        /* \"#utility.yul\":11792:11885   */\n      tag_294\n        /* \"#utility.yul\":11881:11884   */\n      dup3\n        /* \"#utility.yul\":11792:11885   */\n      tag_124\n      jump\t// in\n    tag_294:\n        /* \"#utility.yul\":11910:11912   */\n      0x20\n        /* \"#utility.yul\":11905:11908   */\n      dup3\n        /* \"#utility.yul\":11901:11913   */\n      add\n        /* \"#utility.yul\":11894:11913   */\n      swap1\n      pop\n        /* \"#utility.yul\":11553:11919   */\n      swap2\n      swap1\n      pop\n      jump\t// out\n        /* \"#utility.yul\":11925:12344   */\n    tag_54:\n        /* \"#utility.yul\":12091:12095   */\n      0x00\n        /* \"#utility.yul\":12129:12131   */\n      0x20\n        /* \"#utility.yul\":12118:12127   */\n      dup3\n        /* \"#utility.yul\":12114:12132   */\n      add\n        /* \"#utility.yul\":12106:12132   */\n      swap1\n      pop\n        /* \"#utility.yul\":12178:12187   */\n      dup2\n        /* \"#utility.yul\":12172:12176   */\n      dup2\n        /* \"#utility.yul\":12168:12188   */\n      sub\n        /* \"#utility.yul\":12164:12165   */\n      0x00\n        /* \"#utility.yul\":12153:12162   */\n      dup4\n        /* \"#utility.yul\":12149:12166   */\n      add\n        /* \"#utility.yul\":12142:12189   */\n      mstore\n        /* \"#utility.yul\":12206:12337   */\n      tag_296\n        /* \"#utility.yul\":12332:12336   */\n      dup2\n        /* \"#utility.yul\":12206:12337   */\n      tag_125\n      jump\t// in\n    tag_296:\n        /* \"#utility.yul\":12198:12337   */\n      swap1\n      pop\n        /* \"#utility.yul\":11925:12344   */\n      swap2\n      swap1\n      pop\n      jump\t// out\n        /* \"#utility.yul\":12350:12498   */\n    tag_126:\n        /* \"#utility.yul\":12452:12463   */\n      0x00\n        /* \"#utility.yul\":12489:12492   */\n      dup2\n        /* \"#utility.yul\":12474:12492   */\n      swap1\n      pop\n        /* \"#utility.yul\":12350:12498   */\n      swap3\n      swap2\n      pop\n      pop\n      jump\t// out\n        /* \"#utility.yul\":12528:12858   */\n    tag_127:\n        /* \"#utility.yul\":12644:12647   */\n      0x00\n        /* \"#utility.yul\":12665:12754   */\n      tag_299\n        /* \"#utility.yul\":12747:12753   */\n      dup4\n        /* \"#utility.yul\":12742:12745   */\n      dup6\n        /* \"#utility.yul\":12665:12754   */\n      tag_126\n      jump\t// in\n    tag_299:\n        /* \"#utility.yul\":12658:12754   */\n      swap4\n      pop\n        /* \"#utility.yul\":12764:12820   */\n      tag_300\n        /* \"#utility.yul\":12813:12819   */\n      dup4\n        /* \"#utility.yul\":12808:12811   */\n      dup6\n        /* \"#utility.yul\":12801:12806   */\n      dup5\n        /* \"#utility.yul\":12764:12820   */\n      tag_106\n      jump\t// in\n    tag_300:\n        /* \"#utility.yul\":12845:12851   */\n      dup3\n        /* \"#utility.yul\":12840:12843   */\n      dup5\n        /* \"#utility.yul\":12836:12852   */\n      add\n        /* \"#utility.yul\":12829:12852   */\n      swap1\n      pop\n        /* \"#utility.yul\":12528:12858   */\n      swap4\n      swap3\n      pop\n      pop\n      pop\n      jump\t// out\n        /* \"#utility.yul\":12864:13159   */\n    tag_56:\n        /* \"#utility.yul\":13006:13009   */\n      0x00\n        /* \"#utility.yul\":13028:13133   */\n      tag_302\n        /* \"#utility.yul\":13129:13132   */\n      dup3\n        /* \"#utility.yul\":13120:13126   */\n      dup5\n        /* \"#utility.yul\":13112:13118   */\n      dup7\n        /* \"#utility.yul\":13028:13133   */\n      tag_127\n      jump\t// in\n    tag_302:\n        /* \"#utility.yul\":13021:13133   */\n      swap2\n      pop\n        /* \"#utility.yul\":13150:13153   */\n      dup2\n        /* \"#utility.yul\":13143:13153   */\n      swap1\n      pop\n        /* \"#utility.yul\":12864:13159   */\n      swap4\n      swap3\n      pop\n      pop\n      pop\n      jump\t// out\n        /* \"#utility.yul\":13165:13262   */\n    tag_128:\n        /* \"#utility.yul\":13224:13230   */\n      0x00\n        /* \"#utility.yul\":13252:13255   */\n      dup3\n        /* \"#utility.yul\":13242:13255   */\n      swap1\n      pop\n        /* \"#utility.yul\":13165:13262   */\n      swap3\n      swap2\n      pop\n      pop\n      jump\t// out\n        /* \"#utility.yul\":13268:13448   */\n    tag_129:\n        /* \"#utility.yul\":13316:13393   */\n      0x4e487b7100000000000000000000000000000000000000000000000000000000\n        /* \"#utility.yul\":13313:13314   */\n      0x00\n        /* \"#utility.yul\":13306:13394   */\n      mstore\n        /* \"#utility.yul\":13413:13417   */\n      0x22\n        /* \"#utility.yul\":13410:13411   */\n      0x04\n        /* \"#utility.yul\":13403:13418   */\n      mstore\n        /* \"#utility.yul\":13437:13441   */\n      0x24\n        /* \"#utility.yul\":13434:13435   */\n      0x00\n        /* \"#utility.yul\":13427:13442   */\n      revert\n        /* \"#utility.yul\":13454:13774   */\n    tag_64:\n        /* \"#utility.yul\":13498:13504   */\n      0x00\n        /* \"#utility.yul\":13535:13536   */\n      0x02\n        /* \"#utility.yul\":13529:13533   */\n      dup3\n        /* \"#utility.yul\":13525:13537   */\n      div\n        /* \"#utility.yul\":13515:13537   */\n      swap1\n      pop\n        /* \"#utility.yul\":13582:13583   */\n      0x01\n        /* \"#utility.yul\":13576:13580   */\n      dup3\n        /* \"#utility.yul\":13572:13584   */\n      and\n        /* \"#utility.yul\":13603:13621   */\n      dup1\n        /* \"#utility.yul\":13593:13674   */\n      tag_306\n      jumpi\n        /* \"#utility.yul\":13659:13663   */\n      0x7f\n        /* \"#utility.yul\":13651:13657   */\n      dup3\n        /* \"#utility.yul\":13647:13664   */\n      and\n        /* \"#utility.yul\":13637:13664   */\n      swap2\n      pop\n        /* \"#utility.yul\":13593:13674   */\n    tag_306:\n        /* \"#utility.yul\":13721:13723   */\n      0x20\n        /* \"#utility.yul\":13713:13719   */\n      dup3\n        /* \"#utility.yul\":13710:13724   */\n      lt\n        /* \"#utility.yul\":13690:13708   */\n      dup2\n        /* \"#utility.yul\":13687:13725   */\n      sub\n        /* \"#utility.yul\":13684:13768   */\n      tag_307\n      jumpi\n        /* \"#utility.yul\":13740:13758   */\n      tag_308\n      tag_129\n      jump\t// in\n    tag_308:\n        /* \"#utility.yul\":13684:13768   */\n    tag_307:\n        /* \"#utility.yul\":13505:13774   */\n      pop\n        /* \"#utility.yul\":13454:13774   */\n      swap2\n      swap1\n      pop\n      jump\t// out\n        /* \"#utility.yul\":13780:13921   */\n    tag_130:\n        /* \"#utility.yul\":13829:13833   */\n      0x00\n        /* \"#utility.yul\":13852:13855   */\n      dup2\n        /* \"#utility.yul\":13844:13855   */\n      swap1\n      pop\n        /* \"#utility.yul\":13875:13878   */\n      dup2\n        /* \"#utility.yul\":13872:13873   */\n      0x00\n        /* \"#utility.yul\":13865:13879   */\n      mstore\n        /* \"#utility.yul\":13909:13913   */\n      0x20\n        /* \"#utility.yul\":13906:13907   */\n      0x00\n        /* \"#utility.yul\":13896:13914   */\n      keccak256\n        /* \"#utility.yul\":13888:13914   */\n      swap1\n      pop\n        /* \"#utility.yul\":13780:13921   */\n      swap2\n      swap1\n      pop\n      jump\t// out\n        /* \"#utility.yul\":13927:14020   */\n    tag_131:\n        /* \"#utility.yul\":13964:13970   */\n      0x00\n        /* \"#utility.yul\":14011:14013   */\n      0x20\n        /* \"#utility.yul\":14006:14008   */\n      0x1f\n        /* \"#utility.yul\":13999:14004   */\n      dup4\n        /* \"#utility.yul\":13995:14009   */\n      add\n        /* \"#utility.yul\":13991:14014   */\n      div\n        /* \"#utility.yul\":13981:14014   */\n      swap1\n      pop\n        /* \"#utility.yul\":13927:14020   */\n      swap2\n      swap1\n      pop\n      jump\t// out\n        /* \"#utility.yul\":14026:14133   */\n    tag_132:\n        /* \"#utility.yul\":14070:14078   */\n      0x00\n        /* \"#utility.yul\":14120:14125   */\n      dup3\n        /* \"#utility.yul\":14114:14118   */\n      dup3\n        /* \"#utility.yul\":14110:14126   */\n      shl\n        /* \"#utility.yul\":14089:14126   */\n      swap1\n      pop\n        /* \"#utility.yul\":14026:14133   */\n      swap3\n      swap2\n      pop\n      pop\n      jump\t// out\n        /* \"#utility.yul\":14139:14532   */\n    tag_133:\n        /* \"#utility.yul\":14208:14214   */\n      0x00\n        /* \"#utility.yul\":14258:14259   */\n      0x08\n        /* \"#utility.yul\":14246:14256   */\n      dup4\n        /* \"#utility.yul\":14242:14260   */\n      mul\n        /* \"#utility.yul\":14281:14378   */\n      tag_313\n        /* \"#utility.yul\":14311:14377   */\n      0xffffffffffffffffffffffffffffffffffffffffffffffffffffffffffffffff\n        /* \"#utility.yul\":14300:14309   */\n      dup3\n        /* \"#utility.yul\":14281:14378   */\n      tag_132\n      jump\t// in\n    tag_313:\n        /* \"#utility.yul\":14399:14438   */\n      tag_314\n        /* \"#utility.yul\":14429:14437   */\n      dup7\n        /* \"#utility.yul\":14418:14427   */\n      dup4\n        /* \"#utility.yul\":14399:14438   */\n      tag_132\n      jump\t// in\n    tag_314:\n        /* \"#utility.yul\":14387:14438   */\n      swap6\n      pop\n        /* \"#utility.yul\":14471:14475   */\n      dup1\n        /* \"#utility.yul\":14467:14476   */\n      not\n        /* \"#utility.yul\":14460:14465   */\n      dup5\n        /* \"#utility.yul\":14456:14477   */\n      and\n        /* \"#utility.yul\":14447:14477   */\n      swap4\n      pop\n        /* \"#utility.yul\":14520:14524   */\n      dup1\n        /* \"#utility.yul\":14510:14518   */\n      dup7\n        /* \"#utility.yul\":14506:14525   */\n      and\n        /* \"#utility.yul\":14499:14504   */\n      dup5\n        /* \"#utility.yul\":14496:14526   */\n      or\n        /* \"#utility.yul\":14486:14526   */\n      swap3\n      pop\n        /* \"#utility.yul\":14215:14532   */\n      pop\n      pop\n        /* \"#utility.yul\":14139:14532   */\n      swap4\n      swap3\n      pop\n      pop\n      pop\n      jump\t// out\n        /* \"#utility.yul\":14538:14680   */\n    tag_134:\n        /* \"#utility.yul\":14588:14597   */\n      0x00\n        /* \"#utility.yul\":14621:14674   */\n      tag_316\n        /* \"#utility.yul\":14639:14673   */\n      tag_317\n        /* \"#utility.yul\":14648:14672   */\n      tag_318\n        /* \"#utility.yul\":14666:14671   */\n      dup5\n        /* \"#utility.yul\":14648:14672   */\n      tag_93\n      jump\t// in\n    tag_318:\n        /* \"#utility.yul\":14639:14673   */\n      tag_114\n      jump\t// in\n    tag_317:\n        /* \"#utility.yul\":14621:14674   */\n      tag_93\n      jump\t// in\n    tag_316:\n        /* \"#utility.yul\":14608:14674   */\n      swap1\n      pop\n        /* \"#utility.yul\":14538:14680   */\n      swap2\n      swap1\n      pop\n      jump\t// out\n        /* \"#utility.yul\":14686:14761   */\n    tag_135:\n        /* \"#utility.yul\":14729:14732   */\n      0x00\n        /* \"#utility.yul\":14750:14755   */\n      dup2\n        /* \"#utility.yul\":14743:14755   */\n      swap1\n      pop\n        /* \"#utility.yul\":14686:14761   */\n      swap2\n      swap1\n      pop\n      jump\t// out\n        /* \"#utility.yul\":14767:15036   */\n    tag_136:\n        /* \"#utility.yul\":14877:14916   */\n      tag_321\n        /* \"#utility.yul\":14908:14915   */\n      dup4\n        /* \"#utility.yul\":14877:14916   */\n      tag_134\n      jump\t// in\n    tag_321:\n        /* \"#utility.yul\":14938:15029   */\n      tag_322\n        /* \"#utility.yul\":14987:15028   */\n      tag_323\n        /* \"#utility.yul\":15011:15027   */\n      dup3\n        /* \"#utility.yul\":14987:15028   */\n      tag_135\n      jump\t// in\n    tag_323:\n        /* \"#utility.yul\":14979:14985   */\n      dup5\n        /* \"#utility.yul\":14972:14976   */\n      dup5\n        /* \"#utility.yul\":14966:14977   */\n      sload\n        /* \"#utility.yul\":14938:15029   */\n      tag_133\n      jump\t// in\n    tag_322:\n        /* \"#utility.yul\":14932:14936   */\n      dup3\n        /* \"#utility.yul\":14925:15030   */\n      sstore\n        /* \"#utility.yul\":14843:15036   */\n      pop\n        /* \"#utility.yul\":14767:15036   */\n      pop\n      pop\n      pop\n      jump\t// out\n        /* \"#utility.yul\":15042:15115   */\n    tag_137:\n        /* \"#utility.yul\":15087:15090   */\n      0x00\n        /* \"#utility.yul\":15042:15115   */\n      swap1\n      jump\t// out\n        /* \"#utility.yul\":15121:15310   */\n    tag_138:\n        /* \"#utility.yul\":15198:15230   */\n      tag_326\n      tag_137\n      jump\t// in\n    tag_326:\n        /* \"#utility.yul\":15239:15304   */\n      tag_327\n        /* \"#utility.yul\":15297:15303   */\n      dup2\n        /* \"#utility.yul\":15289:15295   */\n      dup5\n        /* \"#utility.yul\":15283:15287   */\n      dup5\n        /* \"#utility.yul\":15239:15304   */\n      tag_136\n      jump\t// in\n    tag_327:\n        /* \"#utility.yul\":15174:15310   */\n      pop\n        /* \"#utility.yul\":15121:15310   */\n      pop\n      pop\n      jump\t// out\n        /* \"#utility.yul\":15316:15502   */\n    tag_139:\n        /* \"#utility.yul\":15376:15496   */\n    tag_329:\n        /* \"#utility.yul\":15393:15396   */\n      dup2\n        /* \"#utility.yul\":15386:15391   */\n      dup2\n        /* \"#utility.yul\":15383:15397   */\n      lt\n        /* \"#utility.yul\":15376:15496   */\n      iszero\n      tag_331\n      jumpi\n        /* \"#utility.yul\":15447:15486   */\n      tag_332\n        /* \"#utility.yul\":15484:15485   */\n      0x00\n        /* \"#utility.yul\":15477:15482   */\n      dup3\n        /* \"#utility.yul\":15447:15486   */\n      tag_138\n      jump\t// in\n    tag_332:\n        /* \"#utility.yul\":15420:15421   */\n      0x01\n        /* \"#utility.yul\":15413:15418   */\n      dup2\n        /* \"#utility.yul\":15409:15422   */\n      add\n        /* \"#utility.yul\":15400:15422   */\n      swap1\n      pop\n        /* \"#utility.yul\":15376:15496   */\n      jump(tag_329)\n    tag_331:\n        /* \"#utility.yul\":15316:15502   */\n      pop\n      pop\n      jump\t// out\n        /* \"#utility.yul\":15508:16051   */\n    tag_140:\n        /* \"#utility.yul\":15609:15611   */\n      0x1f\n        /* \"#utility.yul\":15604:15607   */\n      dup3\n        /* \"#utility.yul\":15601:15612   */\n      gt\n        /* \"#utility.yul\":15598:16044   */\n      iszero\n      tag_334\n      jumpi\n        /* \"#utility.yul\":15643:15681   */\n      tag_335\n        /* \"#utility.yul\":15675:15680   */\n      dup2\n        /* \"#utility.yul\":15643:15681   */\n      tag_130\n      jump\t// in\n    tag_335:\n        /* \"#utility.yul\":15727:15756   */\n      tag_336\n        /* \"#utility.yul\":15745:15755   */\n      dup5\n        /* \"#utility.yul\":15727:15756   */\n      tag_131\n      jump\t// in\n    tag_336:\n        /* \"#utility.yul\":15717:15725   */\n      dup2\n        /* \"#utility.yul\":15713:15757   */\n      add\n        /* \"#utility.yul\":15910:15912   */\n      0x20\n        /* \"#utility.yul\":15898:15908   */\n      dup6\n        /* \"#utility.yul\":15895:15913   */\n      lt\n        /* \"#utility.yul\":15892:15941   */\n      iszero\n      tag_337\n      jumpi\n        /* \"#utility.yul\":15931:15939   */\n      dup2\n        /* \"#utility.yul\":15916:15939   */\n      swap1\n      pop\n        /* \"#utility.yul\":15892:15941   */\n    tag_337:\n        /* \"#utility.yul\":15954:16034   */\n      tag_338\n        /* \"#utility.yul\":16010:16032   */\n      tag_339\n        /* \"#utility.yul\":16028:16031   */\n      dup6\n        /* \"#utility.yul\":16010:16032   */\n      tag_131\n      jump\t// in\n    tag_339:\n        /* \"#utility.yul\":16000:16008   */\n      dup4\n        /* \"#utility.yul\":15996:16033   */\n      add\n        /* \"#utility.yul\":15983:15994   */\n      dup3\n        /* \"#utility.yul\":15954:16034   */\n      tag_139\n      jump\t// in\n    tag_338:\n        /* \"#utility.yul\":15613:16044   */\n      pop\n      pop\n        /* \"#utility.yul\":15598:16044   */\n    tag_334:\n        /* \"#utility.yul\":15508:16051   */\n      pop\n      pop\n      pop\n      jump\t// out\n        /* \"#utility.yul\":16057:16174   */\n    tag_141:\n        /* \"#utility.yul\":16111:16119   */\n      0x00\n        /* \"#utility.yul\":16161:16166   */\n      dup3\n        /* \"#utility.yul\":16155:16159   */\n      dup3\n        /* \"#utility.yul\":16151:16167   */\n      shr\n        /* \"#utility.yul\":16130:16167   */\n      swap1\n      pop\n        /* \"#utility.yul\":16057:16174   */\n      swap3\n      swap2\n      pop\n      pop\n      jump\t// out\n        /* \"#utility.yul\":16180:16349   */\n    tag_142:\n        /* \"#utility.yul\":16224:16230   */\n      0x00\n        /* \"#utility.yul\":16257:16308   */\n      tag_342\n        /* \"#utility.yul\":16305:16306   */\n      0x00\n        /* \"#utility.yul\":16301:16307   */\n      not\n        /* \"#utility.yul\":16293:16298   */\n      dup5\n        /* \"#utility.yul\":16290:16291   */\n      0x08\n        /* \"#utility.yul\":16286:16299   */\n      mul\n        /* \"#utility.yul\":16257:16308   */\n      tag_141\n      jump\t// in\n    tag_342:\n        /* \"#utility.yul\":16253:16309   */\n      not\n        /* \"#utility.yul\":16338:16342   */\n      dup1\n        /* \"#utility.yul\":16332:16336   */\n      dup4\n        /* \"#utility.yul\":16328:16343   */\n      and\n        /* \"#utility.yul\":16318:16343   */\n      swap2\n      pop\n        /* \"#utility.yul\":16231:16349   */\n      pop\n        /* \"#utility.yul\":16180:16349   */\n      swap3\n      swap2\n      pop\n      pop\n      jump\t// out\n        /* \"#utility.yul\":16354:16649   */\n    tag_143:\n        /* \"#utility.yul\":16430:16434   */\n      0x00\n        /* \"#utility.yul\":16576:16605   */\n      tag_344\n        /* \"#utility.yul\":16601:16604   */\n      dup4\n        /* \"#utility.yul\":16595:16599   */\n      dup4\n        /* \"#utility.yul\":16576:16605   */\n      tag_142\n      jump\t// in\n    tag_344:\n        /* \"#utility.yul\":16568:16605   */\n      swap2\n      pop\n        /* \"#utility.yul\":16638:16641   */\n      dup3\n        /* \"#utility.yul\":16635:16636   */\n      0x02\n        /* \"#utility.yul\":16631:16642   */\n      mul\n        /* \"#utility.yul\":16625:16629   */\n      dup3\n        /* \"#utility.yul\":16622:16643   */\n      or\n        /* \"#utility.yul\":16614:16643   */\n      swap1\n      pop\n        /* \"#utility.yul\":16354:16649   */\n      swap3\n      swap2\n      pop\n      pop\n      jump\t// out\n        /* \"#utility.yul\":16654:18057   */\n    tag_59:\n        /* \"#utility.yul\":16778:16822   */\n      tag_346\n        /* \"#utility.yul\":16818:16821   */\n      dup4\n        /* \"#utility.yul\":16813:16816   */\n      dup4\n        /* \"#utility.yul\":16778:16822   */\n      tag_128\n      jump\t// in\n    tag_346:\n        /* \"#utility.yul\":16887:16905   */\n      0xffffffffffffffff\n        /* \"#utility.yul\":16879:16885   */\n      dup2\n        /* \"#utility.yul\":16876:16906   */\n      gt\n        /* \"#utility.yul\":16873:16929   */\n      iszero\n      tag_347\n      jumpi\n        /* \"#utility.yul\":16909:16927   */\n      tag_348\n      tag_102\n      jump\t// in\n    tag_348:\n        /* \"#utility.yul\":16873:16929   */\n    tag_347:\n        /* \"#utility.yul\":16953:16991   */\n      tag_349\n        /* \"#utility.yul\":16985:16989   */\n      dup3\n        /* \"#utility.yul\":16979:16990   */\n      sload\n        /* \"#utility.yul\":16953:16991   */\n      tag_64\n      jump\t// in\n    tag_349:\n        /* \"#utility.yul\":17038:17105   */\n      tag_350\n        /* \"#utility.yul\":17098:17104   */\n      dup3\n        /* \"#utility.yul\":17090:17096   */\n      dup3\n        /* \"#utility.yul\":17084:17088   */\n      dup6\n        /* \"#utility.yul\":17038:17105   */\n      tag_140\n      jump\t// in\n    tag_350:\n        /* \"#utility.yul\":17132:17133   */\n      0x00\n        /* \"#utility.yul\":17161:17163   */\n      0x1f\n        /* \"#utility.yul\":17153:17159   */\n      dup4\n        /* \"#utility.yul\":17150:17164   */\n      gt\n        /* \"#utility.yul\":17178:17179   */\n      0x01\n        /* \"#utility.yul\":17173:17805   */\n      dup2\n      eq\n      tag_352\n      jumpi\n        /* \"#utility.yul\":17849:17850   */\n      0x00\n        /* \"#utility.yul\":17866:17872   */\n      dup5\n        /* \"#utility.yul\":17863:17947   */\n      iszero\n      tag_353\n      jumpi\n        /* \"#utility.yul\":17922:17931   */\n      dup3\n        /* \"#utility.yul\":17917:17920   */\n      dup8\n        /* \"#utility.yul\":17913:17932   */\n      add\n        /* \"#utility.yul\":17900:17933   */\n      calldataload\n        /* \"#utility.yul\":17891:17933   */\n      swap1\n      pop\n        /* \"#utility.yul\":17863:17947   */\n    tag_353:\n        /* \"#utility.yul\":17973:18040   */\n      tag_354\n        /* \"#utility.yul\":18033:18039   */\n      dup6\n        /* \"#utility.yul\":18026:18031   */\n      dup3\n        /* \"#utility.yul\":17973:18040   */\n      tag_143\n      jump\t// in\n    tag_354:\n        /* \"#utility.yul\":17967:17971   */\n      dup7\n        /* \"#utility.yul\":17960:18041   */\n      sstore\n        /* \"#utility.yul\":17822:18051   */\n      pop\n        /* \"#utility.yul\":17143:18051   */\n      jump(tag_351)\n        /* \"#utility.yul\":17173:17805   */\n    tag_352:\n        /* \"#utility.yul\":17225:17229   */\n      0x1f\n        /* \"#utility.yul\":17221:17230   */\n      not\n        /* \"#utility.yul\":17213:17219   */\n      dup5\n        /* \"#utility.yul\":17209:17231   */\n      and\n        /* \"#utility.yul\":17259:17296   */\n      tag_355\n        /* \"#utility.yul\":17291:17295   */\n      dup7\n        /* \"#utility.yul\":17259:17296   */\n      tag_130\n      jump\t// in\n    tag_355:\n        /* \"#utility.yul\":17318:17319   */\n      0x00\n        /* \"#utility.yul\":17332:17547   */\n    tag_356:\n        /* \"#utility.yul\":17346:17353   */\n      dup3\n        /* \"#utility.yul\":17343:17344   */\n      dup2\n        /* \"#utility.yul\":17340:17354   */\n      lt\n        /* \"#utility.yul\":17332:17547   */\n      iszero\n      tag_358\n      jumpi\n        /* \"#utility.yul\":17432:17441   */\n      dup5\n        /* \"#utility.yul\":17427:17430   */\n      dup10\n        /* \"#utility.yul\":17423:17442   */\n      add\n        /* \"#utility.yul\":17410:17443   */\n      calldataload\n        /* \"#utility.yul\":17402:17408   */\n      dup3\n        /* \"#utility.yul\":17395:17444   */\n      sstore\n        /* \"#utility.yul\":17483:17484   */\n      0x01\n        /* \"#utility.yul\":17475:17481   */\n      dup3\n        /* \"#utility.yul\":17471:17485   */\n      add\n        /* \"#utility.yul\":17461:17485   */\n      swap2\n      pop\n        /* \"#utility.yul\":17530:17532   */\n      0x20\n        /* \"#utility.yul\":17519:17528   */\n      dup6\n        /* \"#utility.yul\":17515:17533   */\n      add\n        /* \"#utility.yul\":17502:17533   */\n      swap5\n      pop\n        /* \"#utility.yul\":17369:17373   */\n      0x20\n        /* \"#utility.yul\":17366:17367   */\n      dup2\n        /* \"#utility.yul\":17362:17374   */\n      add\n        /* \"#utility.yul\":17357:17374   */\n      swap1\n      pop\n        /* \"#utility.yul\":17332:17547   */\n      jump(tag_356)\n    tag_358:\n        /* \"#utility.yul\":17575:17581   */\n      dup7\n        /* \"#utility.yul\":17566:17573   */\n      dup4\n        /* \"#utility.yul\":17563:17582   */\n      lt\n        /* \"#utility.yul\":17560:17746   */\n      iszero\n      tag_359\n      jumpi\n        /* \"#utility.yul\":17640:17649   */\n      dup5\n        /* \"#utility.yul\":17635:17638   */\n      dup10\n        /* \"#utility.yul\":17631:17650   */\n      add\n        /* \"#utility.yul\":17618:17651   */\n      calldataload\n        /* \"#utility.yul\":17683:17731   */\n      tag_360\n        /* \"#utility.yul\":17725:17729   */\n      0x1f\n        /* \"#utility.yul\":17717:17723   */\n      dup10\n        /* \"#utility.yul\":17713:17730   */\n      and\n        /* \"#utility.yul\":17702:17711   */\n      dup3\n        /* \"#utility.yul\":17683:17731   */\n      tag_142\n      jump\t// in\n    tag_360:\n        /* \"#utility.yul\":17675:17681   */\n      dup4\n        /* \"#utility.yul\":17668:17732   */\n      sstore\n        /* \"#utility.yul\":17583:17746   */\n      pop\n        /* \"#utility.yul\":17560:17746   */\n    tag_359:\n        /* \"#utility.yul\":17792:17793   */\n      0x01\n        /* \"#utility.yul\":17788:17789   */\n      0x02\n        /* \"#utility.yul\":17780:17786   */\n      dup9\n        /* \"#utility.yul\":17776:17790   */\n      mul\n        /* \"#utility.yul\":17772:17794   */\n      add\n        /* \"#utility.yul\":17766:17770   */\n      dup9\n        /* \"#utility.yul\":17759:17795   */\n      sstore\n        /* \"#utility.yul\":17180:17805   */\n      pop\n      pop\n      pop\n        /* \"#utility.yul\":17143:18051   */\n    tag_351:\n      pop\n        /* \"#utility.yul\":16753:18057   */\n      pop\n      pop\n      pop\n        /* \"#utility.yul\":16654:18057   */\n      pop\n      pop\n      pop\n      jump\t// out\n        /* \"#utility.yul\":18063:18245   */\n    tag_144:\n        /* \"#utility.yul\":18203:18233   */\n      0x7b66756e6374696f6e3a206465706f7369742c20616d6f756e743a2000000000\n        /* \"#utility.yul\":18199:18200   */\n      0x00\n        /* \"#utility.yul\":18191:18197   */\n      dup3\n        /* \"#utility.yul\":18187:18201   */\n      add\n        /* \"#utility.yul\":18180:18234   */\n      mstore\n        /* \"#utility.yul\":18063:18245   */\n      pop\n      jump\t// out\n        /* \"#utility.yul\":18255:18673   */\n    tag_145:\n        /* \"#utility.yul\":18415:18418   */\n      0x00\n        /* \"#utility.yul\":18440:18525   */\n      tag_363\n        /* \"#utility.yul\":18522:18524   */\n      0x1c\n        /* \"#utility.yul\":18517:18520   */\n      dup4\n        /* \"#utility.yul\":18440:18525   */\n      tag_126\n      jump\t// in\n    tag_363:\n        /* \"#utility.yul\":18433:18525   */\n      swap2\n      pop\n        /* \"#utility.yul\":18538:18631   */\n      tag_364\n        /* \"#utility.yul\":18627:18630   */\n      dup3\n        /* \"#utility.yul\":18538:18631   */\n      tag_144\n      jump\t// in\n    tag_364:\n        /* \"#utility.yul\":18660:18662   */\n      0x1c\n        /* \"#utility.yul\":18655:18658   */\n      dup3\n        /* \"#utility.yul\":18651:18663   */\n      add\n        /* \"#utility.yul\":18644:18663   */\n      swap1\n      pop\n        /* \"#utility.yul\":18255:18673   */\n      swap2\n      swap1\n      pop\n      jump\t// out\n        /* \"#utility.yul\":18683:18770   */\n    tag_146:\n        /* \"#utility.yul\":18722:18729   */\n      0x00\n        /* \"#utility.yul\":18755:18760   */\n      dup2\n        /* \"#utility.yul\":18744:18760   */\n      swap1\n      pop\n        /* \"#utility.yul\":18683:18770   */\n      swap2\n      swap1\n      pop\n      jump\t// out\n        /* \"#utility.yul\":18780:18945   */\n    tag_147:\n        /* \"#utility.yul\":18889:18934   */\n      tag_367\n        /* \"#utility.yul\":18909:18933   */\n      tag_368\n        /* \"#utility.yul\":18927:18932   */\n      dup3\n        /* \"#utility.yul\":18909:18933   */\n      tag_93\n      jump\t// in\n    tag_368:\n        /* \"#utility.yul\":18889:18934   */\n      tag_146\n      jump\t// in\n    tag_367:\n        /* \"#utility.yul\":18884:18887   */\n      dup3\n        /* \"#utility.yul\":18877:18935   */\n      mstore\n        /* \"#utility.yul\":18780:18945   */\n      pop\n      pop\n      jump\t// out\n        /* \"#utility.yul\":18955:19123   */\n    tag_148:\n        /* \"#utility.yul\":19095:19115   */\n      0x2c207374617475733a20537563636573737d0000000000000000000000000000\n        /* \"#utility.yul\":19091:19092   */\n      0x00\n        /* \"#utility.yul\":19083:19089   */\n      dup3\n        /* \"#utility.yul\":19079:19093   */\n      add\n        /* \"#utility.yul\":19072:19116   */\n      mstore\n        /* \"#utility.yul\":18955:19123   */\n      pop\n      jump\t// out\n        /* \"#utility.yul\":19129:19531   */\n    tag_149:\n        /* \"#utility.yul\":19289:19292   */\n      0x00\n        /* \"#utility.yul\":19310:19395   */\n      tag_371\n        /* \"#utility.yul\":19392:19394   */\n      0x12\n        /* \"#utility.yul\":19387:19390   */\n      dup4\n        /* \"#utility.yul\":19310:19395   */\n      tag_126\n      jump\t// in\n    tag_371:\n        /* \"#utility.yul\":19303:19395   */\n      swap2\n      pop\n        /* \"#utility.yul\":19404:19497   */\n      tag_372\n        /* \"#utility.yul\":19493:19496   */\n      dup3\n        /* \"#utility.yul\":19404:19497   */\n      tag_148\n      jump\t// in\n    tag_372:\n        /* \"#utility.yul\":19522:19524   */\n      0x12\n        /* \"#utility.yul\":19517:19520   */\n      dup3\n        /* \"#utility.yul\":19513:19525   */\n      add\n        /* \"#utility.yul\":19506:19525   */\n      swap1\n      pop\n        /* \"#utility.yul\":19129:19531   */\n      swap2\n      swap1\n      pop\n      jump\t// out\n        /* \"#utility.yul\":19537:20325   */\n    tag_61:\n        /* \"#utility.yul\":19851:19854   */\n      0x00\n        /* \"#utility.yul\":19873:20021   */\n      tag_374\n        /* \"#utility.yul\":20017:20020   */\n      dup3\n        /* \"#utility.yul\":19873:20021   */\n      tag_145\n      jump\t// in\n    tag_374:\n        /* \"#utility.yul\":19866:20021   */\n      swap2\n      pop\n        /* \"#utility.yul\":20031:20106   */\n      tag_375\n        /* \"#utility.yul\":20102:20105   */\n      dup3\n        /* \"#utility.yul\":20093:20099   */\n      dup5\n        /* \"#utility.yul\":20031:20106   */\n      tag_147\n      jump\t// in\n    tag_375:\n        /* \"#utility.yul\":20131:20133   */\n      0x20\n        /* \"#utility.yul\":20126:20129   */\n      dup3\n        /* \"#utility.yul\":20122:20134   */\n      add\n        /* \"#utility.yul\":20115:20134   */\n      swap2\n      pop\n        /* \"#utility.yul\":20151:20299   */\n      tag_376\n        /* \"#utility.yul\":20295:20298   */\n      dup3\n        /* \"#utility.yul\":20151:20299   */\n      tag_149\n      jump\t// in\n    tag_376:\n        /* \"#utility.yul\":20144:20299   */\n      swap2\n      pop\n        /* \"#utility.yul\":20316:20319   */\n      dup2\n        /* \"#utility.yul\":20309:20319   */\n      swap1\n      pop\n        /* \"#utility.yul\":19537:20325   */\n      swap3\n      swap2\n      pop\n      pop\n      jump\t// out\n        /* \"#utility.yul\":20331:20502   */\n    tag_150:\n        /* \"#utility.yul\":20471:20494   */\n      0x4f6e6c79207769746864726177616c206f776e65720000000000000000000000\n        /* \"#utility.yul\":20467:20468   */\n      0x00\n        /* \"#utility.yul\":20459:20465   */\n      dup3\n        /* \"#utility.yul\":20455:20469   */\n      add\n        /* \"#utility.yul\":20448:20495   */\n      mstore\n        /* \"#utility.yul\":20331:20502   */\n      pop\n      jump\t// out\n        /* \"#utility.yul\":20508:20874   */\n    tag_151:\n        /* \"#utility.yul\":20650:20653   */\n      0x00\n        /* \"#utility.yul\":20671:20738   */\n      tag_379\n        /* \"#utility.yul\":20735:20737   */\n      0x15\n        /* \"#utility.yul\":20730:20733   */\n      dup4\n        /* \"#utility.yul\":20671:20738   */\n      tag_110\n      jump\t// in\n    tag_379:\n        /* \"#utility.yul\":20664:20738   */\n      swap2\n      pop\n        /* \"#utility.yul\":20747:20840   */\n      tag_380\n        /* \"#utility.yul\":20836:20839   */\n      dup3\n        /* \"#utility.yul\":20747:20840   */\n      tag_150\n      jump\t// in\n    tag_380:\n        /* \"#utility.yul\":20865:20867   */\n      0x20\n        /* \"#utility.yul\":20860:20863   */\n      dup3\n        /* \"#utility.yul\":20856:20868   */\n      add\n        /* \"#utility.yul\":20849:20868   */\n      swap1\n      pop\n        /* \"#utility.yul\":20508:20874   */\n      swap2\n      swap1\n      pop\n      jump\t// out\n        /* \"#utility.yul\":20880:21299   */\n    tag_72:\n        /* \"#utility.yul\":21046:21050   */\n      0x00\n        /* \"#utility.yul\":21084:21086   */\n      0x20\n        /* \"#utility.yul\":21073:21082   */\n      dup3\n        /* \"#utility.yul\":21069:21087   */\n      add\n        /* \"#utility.yul\":21061:21087   */\n      swap1\n      pop\n        /* \"#utility.yul\":21133:21142   */\n      dup2\n        /* \"#utility.yul\":21127:21131   */\n      dup2\n        /* \"#utility.yul\":21123:21143   */\n      sub\n        /* \"#utility.yul\":21119:21120   */\n      0x00\n        /* \"#utility.yul\":21108:21117   */\n      dup4\n        /* \"#utility.yul\":21104:21121   */\n      add\n        /* \"#utility.yul\":21097:21144   */\n      mstore\n        /* \"#utility.yul\":21161:21292   */\n      tag_382\n        /* \"#utility.yul\":21287:21291   */\n      dup2\n        /* \"#utility.yul\":21161:21292   */\n      tag_151\n      jump\t// in\n    tag_382:\n        /* \"#utility.yul\":21153:21292   */\n      swap1\n      pop\n        /* \"#utility.yul\":20880:21299   */\n      swap2\n      swap1\n      pop\n      jump\t// out\n        /* \"#utility.yul\":21305:21637   */\n    tag_75:\n        /* \"#utility.yul\":21426:21430   */\n      0x00\n        /* \"#utility.yul\":21464:21466   */\n      0x40\n        /* \"#utility.yul\":21453:21462   */\n      dup3\n        /* \"#utility.yul\":21449:21467   */\n      add\n        /* \"#utility.yul\":21441:21467   */\n      swap1\n      pop\n        /* \"#utility.yul\":21477:21548   */\n      tag_384\n        /* \"#utility.yul\":21545:21546   */\n      0x00\n        /* \"#utility.yul\":21534:21543   */\n      dup4\n        /* \"#utility.yul\":21530:21547   */\n      add\n        /* \"#utility.yul\":21521:21527   */\n      dup6\n        /* \"#utility.yul\":21477:21548   */\n      tag_87\n      jump\t// in\n    tag_384:\n        /* \"#utility.yul\":21558:21630   */\n      tag_385\n        /* \"#utility.yul\":21626:21628   */\n      0x20\n        /* \"#utility.yul\":21615:21624   */\n      dup4\n        /* \"#utility.yul\":21611:21629   */\n      add\n        /* \"#utility.yul\":21602:21608   */\n      dup5\n        /* \"#utility.yul\":21558:21630   */\n      tag_113\n      jump\t// in\n    tag_385:\n        /* \"#utility.yul\":21305:21637   */\n      swap4\n      swap3\n      pop\n      pop\n      pop\n      jump\t// out\n        /* \"#utility.yul\":21643:21816   */\n    tag_152:\n        /* \"#utility.yul\":21783:21808   */\n      0x5472616e7366657220746f2075736572206661696c6564000000000000000000\n        /* \"#utility.yul\":21779:21780   */\n      0x00\n        /* \"#utility.yul\":21771:21777   */\n      dup3\n        /* \"#utility.yul\":21767:21781   */\n      add\n        /* \"#utility.yul\":21760:21809   */\n      mstore\n        /* \"#utility.yul\":21643:21816   */\n      pop\n      jump\t// out\n        /* \"#utility.yul\":21822:22188   */\n    tag_153:\n        /* \"#utility.yul\":21964:21967   */\n      0x00\n        /* \"#utility.yul\":21985:22052   */\n      tag_388\n        /* \"#utility.yul\":22049:22051   */\n      0x17\n        /* \"#utility.yul\":22044:22047   */\n      dup4\n        /* \"#utility.yul\":21985:22052   */\n      tag_110\n      jump\t// in\n    tag_388:\n        /* \"#utility.yul\":21978:22052   */\n      swap2\n      pop\n        /* \"#utility.yul\":22061:22154   */\n      tag_389\n        /* \"#utility.yul\":22150:22153   */\n      dup3\n        /* \"#utility.yul\":22061:22154   */\n      tag_152\n      jump\t// in\n    tag_389:\n        /* \"#utility.yul\":22179:22181   */\n      0x20\n        /* \"#utility.yul\":22174:22177   */\n      dup3\n        /* \"#utility.yul\":22170:22182   */\n      add\n        /* \"#utility.yul\":22163:22182   */\n      swap1\n      pop\n        /* \"#utility.yul\":21822:22188   */\n      swap2\n      swap1\n      pop\n      jump\t// out\n        /* \"#utility.yul\":22194:22613   */\n    tag_81:\n        /* \"#utility.yul\":22360:22364   */\n      0x00\n        /* \"#utility.yul\":22398:22400   */\n      0x20\n        /* \"#utility.yul\":22387:22396   */\n      dup3\n        /* \"#utility.yul\":22383:22401   */\n      add\n        /* \"#utility.yul\":22375:22401   */\n      swap1\n      pop\n        /* \"#utility.yul\":22447:22456   */\n      dup2\n        /* \"#utility.yul\":22441:22445   */\n      dup2\n        /* \"#utility.yul\":22437:22457   */\n      sub\n        /* \"#utility.yul\":22433:22434   */\n      0x00\n        /* \"#utility.yul\":22422:22431   */\n      dup4\n        /* \"#utility.yul\":22418:22435   */\n      add\n        /* \"#utility.yul\":22411:22458   */\n      mstore\n        /* \"#utility.yul\":22475:22606   */\n      tag_391\n        /* \"#utility.yul\":22601:22605   */\n      dup2\n        /* \"#utility.yul\":22475:22606   */\n      tag_153\n      jump\t// in\n    tag_391:\n        /* \"#utility.yul\":22467:22606   */\n      swap1\n      pop\n        /* \"#utility.yul\":22194:22613   */\n      swap2\n      swap1\n      pop\n      jump\t// out\n        /* \"#utility.yul\":22619:22804   */\n    tag_154:\n        /* \"#utility.yul\":22759:22792   */\n      0x7b66756e6374696f6e3a2077697468647261772c2072656365697665723a2000\n        /* \"#utility.yul\":22755:22756   */\n      0x00\n        /* \"#utility.yul\":22747:22753   */\n      dup3\n        /* \"#utility.yul\":22743:22757   */\n      add\n        /* \"#utility.yul\":22736:22793   */\n      mstore\n        /* \"#utility.yul\":22619:22804   */\n      pop\n      jump\t// out\n        /* \"#utility.yul\":22814:23232   */\n    tag_155:\n        /* \"#utility.yul\":22974:22977   */\n      0x00\n        /* \"#utility.yul\":22999:23084   */\n      tag_394\n        /* \"#utility.yul\":23081:23083   */\n      0x1f\n        /* \"#utility.yul\":23076:23079   */\n      dup4\n        /* \"#utility.yul\":22999:23084   */\n      tag_126\n      jump\t// in\n    tag_394:\n        /* \"#utility.yul\":22992:23084   */\n      swap2\n      pop\n        /* \"#utility.yul\":23097:23190   */\n      tag_395\n        /* \"#utility.yul\":23186:23189   */\n      dup3\n        /* \"#utility.yul\":23097:23190   */\n      tag_154\n      jump\t// in\n    tag_395:\n        /* \"#utility.yul\":23219:23221   */\n      0x1f\n        /* \"#utility.yul\":23214:23217   */\n      dup3\n        /* \"#utility.yul\":23210:23222   */\n      add\n        /* \"#utility.yul\":23203:23222   */\n      swap1\n      pop\n        /* \"#utility.yul\":22814:23232   */\n      swap2\n      swap1\n      pop\n      jump\t// out\n        /* \"#utility.yul\":23242:23348   */\n    tag_156:\n        /* \"#utility.yul\":23275:23283   */\n      0x00\n        /* \"#utility.yul\":23331:23336   */\n      dup2\n        /* \"#utility.yul\":23327:23329   */\n      0x60\n        /* \"#utility.yul\":23323:23337   */\n      shl\n        /* \"#utility.yul\":23298:23337   */\n      swap1\n      pop\n        /* \"#utility.yul\":23242:23348   */\n      swap2\n      swap1\n      pop\n      jump\t// out\n        /* \"#utility.yul\":23358:23460   */\n    tag_157:\n        /* \"#utility.yul\":23397:23404   */\n      0x00\n        /* \"#utility.yul\":23430:23450   */\n      tag_398\n        /* \"#utility.yul\":23444:23449   */\n      dup3\n        /* \"#utility.yul\":23430:23450   */\n      tag_156\n      jump\t// in\n    tag_398:\n        /* \"#utility.yul\":23419:23450   */\n      swap1\n      pop\n        /* \"#utility.yul\":23358:23460   */\n      swap2\n      swap1\n      pop\n      jump\t// out\n        /* \"#utility.yul\":23470:23578   */\n    tag_158:\n        /* \"#utility.yul\":23509:23516   */\n      0x00\n        /* \"#utility.yul\":23542:23568   */\n      tag_400\n        /* \"#utility.yul\":23562:23567   */\n      dup3\n        /* \"#utility.yul\":23542:23568   */\n      tag_157\n      jump\t// in\n    tag_400:\n        /* \"#utility.yul\":23531:23568   */\n      swap1\n      pop\n        /* \"#utility.yul\":23470:23578   */\n      swap2\n      swap1\n      pop\n      jump\t// out\n        /* \"#utility.yul\":23588:23753   */\n    tag_159:\n        /* \"#utility.yul\":23697:23742   */\n      tag_402\n        /* \"#utility.yul\":23717:23741   */\n      tag_403\n        /* \"#utility.yul\":23735:23740   */\n      dup3\n        /* \"#utility.yul\":23717:23741   */\n      tag_86\n      jump\t// in\n    tag_403:\n        /* \"#utility.yul\":23697:23742   */\n      tag_158\n      jump\t// in\n    tag_402:\n        /* \"#utility.yul\":23692:23695   */\n      dup3\n        /* \"#utility.yul\":23685:23743   */\n      mstore\n        /* \"#utility.yul\":23588:23753   */\n      pop\n      pop\n      jump\t// out\n        /* \"#utility.yul\":23763:23929   */\n    tag_160:\n        /* \"#utility.yul\":23907:23917   */\n      0x616d6f756e743a20000000000000000000000000000000000000000000000000\n        /* \"#utility.yul\":23903:23904   */\n      0x00\n        /* \"#utility.yul\":23895:23901   */\n      dup3\n        /* \"#utility.yul\":23891:23905   */\n      add\n        /* \"#utility.yul\":23884:23918   */\n      mstore\n        /* \"#utility.yul\":23763:23929   */\n      pop\n      jump\t// out\n        /* \"#utility.yul\":23939:24355   */\n    tag_161:\n        /* \"#utility.yul\":24099:24102   */\n      0x00\n        /* \"#utility.yul\":24124:24208   */\n      tag_406\n        /* \"#utility.yul\":24206:24207   */\n      0x08\n        /* \"#utility.yul\":24201:24204   */\n      dup4\n        /* \"#utility.yul\":24124:24208   */\n      tag_126\n      jump\t// in\n    tag_406:\n        /* \"#utility.yul\":24117:24208   */\n      swap2\n      pop\n        /* \"#utility.yul\":24221:24314   */\n      tag_407\n        /* \"#utility.yul\":24310:24313   */\n      dup3\n        /* \"#utility.yul\":24221:24314   */\n      tag_160\n      jump\t// in\n    tag_407:\n        /* \"#utility.yul\":24343:24344   */\n      0x08\n        /* \"#utility.yul\":24338:24341   */\n      dup3\n        /* \"#utility.yul\":24334:24345   */\n      add\n        /* \"#utility.yul\":24327:24345   */\n      swap1\n      pop\n        /* \"#utility.yul\":23939:24355   */\n      swap2\n      swap1\n      pop\n      jump\t// out\n        /* \"#utility.yul\":24365:25596   */\n    tag_83:\n        /* \"#utility.yul\":24808:24811   */\n      0x00\n        /* \"#utility.yul\":24834:24982   */\n      tag_409\n        /* \"#utility.yul\":24978:24981   */\n      dup3\n        /* \"#utility.yul\":24834:24982   */\n      tag_155\n      jump\t// in\n    tag_409:\n        /* \"#utility.yul\":24827:24982   */\n      swap2\n      pop\n        /* \"#utility.yul\":24996:25071   */\n      tag_410\n        /* \"#utility.yul\":25067:25070   */\n      dup3\n        /* \"#utility.yul\":25058:25064   */\n      dup6\n        /* \"#utility.yul\":24996:25071   */\n      tag_159\n      jump\t// in\n    tag_410:\n        /* \"#utility.yul\":25100:25102   */\n      0x14\n        /* \"#utility.yul\":25095:25098   */\n      dup3\n        /* \"#utility.yul\":25091:25103   */\n      add\n        /* \"#utility.yul\":25084:25103   */\n      swap2\n      pop\n        /* \"#utility.yul\":25124:25272   */\n      tag_411\n        /* \"#utility.yul\":25268:25271   */\n      dup3\n        /* \"#utility.yul\":25124:25272   */\n      tag_161\n      jump\t// in\n    tag_411:\n        /* \"#utility.yul\":25117:25272   */\n      swap2\n      pop\n        /* \"#utility.yul\":25286:25361   */\n      tag_412\n        /* \"#utility.yul\":25357:25360   */\n      dup3\n        /* \"#utility.yul\":25348:25354   */\n      dup5\n        /* \"#utility.yul\":25286:25361   */\n      tag_147\n      jump\t// in\n    tag_412:\n        /* \"#utility.yul\":25390:25392   */\n      0x20\n        /* \"#utility.yul\":25385:25388   */\n      dup3\n        /* \"#utility.yul\":25381:25393   */\n      add\n        /* \"#utility.yul\":25374:25393   */\n      swap2\n      pop\n        /* \"#utility.yul\":25414:25562   */\n      tag_413\n        /* \"#utility.yul\":25558:25561   */\n      dup3\n        /* \"#utility.yul\":25414:25562   */\n      tag_149\n      jump\t// in\n    tag_413:\n        /* \"#utility.yul\":25407:25562   */\n      swap2\n      pop\n        /* \"#utility.yul\":25583:25586   */\n      dup2\n        /* \"#utility.yul\":25576:25586   */\n      swap1\n      pop\n        /* \"#utility.yul\":24365:25596   */\n      swap4\n      swap3\n      pop\n      pop\n      pop\n      jump\t// out\n\n    auxdata: 0xa2646970667358221220037458759de3eb35dec5f5535bf9b160db4f4094a6884f516ecac794f121ebc364736f6c63430008140033\n}\n",
				"bytecode": {
					"linkReferences": {},
					"object": "608060405234801562000010575f80fd5b50604051620014e5380380620014e5833981810160405281019062000036919062000163565b8160015f6101000a81548173ffffffffffffffffffffffffffffffffffffffff021916908373ffffffffffffffffffffffffffffffffffffffff160217905550825f806101000a81548173ffffffffffffffffffffffffffffffffffffffff021916908373ffffffffffffffffffffffffffffffffffffffff1602179055508060025f6101000a81548173ffffffffffffffffffffffffffffffffffffffff021916908373ffffffffffffffffffffffffffffffffffffffff160217905550505050620001bc565b5f80fd5b5f73ffffffffffffffffffffffffffffffffffffffff82169050919050565b5f6200012d8262000102565b9050919050565b6200013f8162000121565b81146200014a575f80fd5b50565b5f815190506200015d8162000134565b92915050565b5f805f606084860312156200017d576200017c620000fe565b5b5f6200018c868287016200014d565b93505060206200019f868287016200014d565b9250506040620001b2868287016200014d565b9150509250925092565b61131b80620001ca5f395ff3fe608060405234801561000f575f80fd5b506004361061007b575f3560e01c806384a1c2331161005957806384a1c233146100e95780638da5cb5b14610119578063f3fef3a314610137578063fc0c546a146101535761007b565b8063163f9b4f1461007f57806319e5c0341461009d578063441f36b5146100b9575b5f80fd5b610087610171565b60405161009491906106f4565b60405180910390f35b6100b760048036038101906100b291906107dc565b610196565b005b6100d360048036038101906100ce91906109b7565b6103be565b6040516100e09190610a78565b60405180910390f35b61010360048036038101906100fe91906109b7565b610471565b6040516101109190610aa7565b60405180910390f35b61012161049e565b60405161012e91906106f4565b60405180910390f35b610151600480360381019061014c9190610ac0565b6104c3565b005b61015b610692565b6040516101689190610b59565b60405180910390f35b60025f9054906101000a900473ffffffffffffffffffffffffffffffffffffffff1681565b60015f9054906101000a900473ffffffffffffffffffffffffffffffffffffffff1673ffffffffffffffffffffffffffffffffffffffff163373ffffffffffffffffffffffffffffffffffffffff1614610225576040517f08c379a000000000000000000000000000000000000000000000000000000000815260040161021c90610bbc565b60405180910390fd5b5f805f9054906101000a900473ffffffffffffffffffffffffffffffffffffffff1673ffffffffffffffffffffffffffffffffffffffff166323b872dd8830896040518463ffffffff1660e01b815260040161028393929190610bda565b6020604051808303815f875af115801561029f573d5f803e3d5ffd5b505050506040513d601f19601f820116820180604052508101906102c39190610c44565b905080610305576040517f08c379a00000000000000000000000000000000000000000000000000000000081526004016102fc90610cb9565b60405180910390fd5b8560038686604051610318929190610d05565b90815260200160405180910390208190555082826004878760405161033e929190610d05565b90815260200160405180910390209182610359929190610f18565b505f8660405160200161036c9190611099565b60405160208183030381529060405290507f7ec0f30d77eee878603febc6eccf7f5dc934cb71143846eae2bca299c7850198816040516103ac9190610a78565b60405180910390a15050505050505050565b6004818051602081018201805184825260208301602085012081835280955050505050505f9150905080546103f290610d54565b80601f016020809104026020016040519081016040528092919081815260200182805461041e90610d54565b80156104695780601f1061044057610100808354040283529160200191610469565b820191905f5260205f20905b81548152906001019060200180831161044c57829003601f168201915b505050505081565b6003818051602081018201805184825260208301602085012081835280955050505050505f915090505481565b60015f9054906101000a900473ffffffffffffffffffffffffffffffffffffffff1681565b60025f9054906101000a900473ffffffffffffffffffffffffffffffffffffffff1673ffffffffffffffffffffffffffffffffffffffff163373ffffffffffffffffffffffffffffffffffffffff1614610552576040517f08c379a000000000000000000000000000000000000000000000000000000000815260040161054990611113565b60405180910390fd5b5f805f9054906101000a900473ffffffffffffffffffffffffffffffffffffffff1673ffffffffffffffffffffffffffffffffffffffff1663a9059cbb84846040518363ffffffff1660e01b81526004016105ae929190611131565b6020604051808303815f875af11580156105ca573d5f803e3d5ffd5b505050506040513d601f19601f820116820180604052508101906105ee9190610c44565b905080610630576040517f08c379a0000000000000000000000000000000000000000000000000000000008152600401610627906111a2565b60405180910390fd5b5f8383604051602001610644929190611299565b60405160208183030381529060405290507f7ec0f30d77eee878603febc6eccf7f5dc934cb71143846eae2bca299c7850198816040516106849190610a78565b60405180910390a150505050565b5f8054906101000a900473ffffffffffffffffffffffffffffffffffffffff1681565b5f73ffffffffffffffffffffffffffffffffffffffff82169050919050565b5f6106de826106b5565b9050919050565b6106ee816106d4565b82525050565b5f6020820190506107075f8301846106e5565b92915050565b5f604051905090565b5f80fd5b5f80fd5b610727816106d4565b8114610731575f80fd5b50565b5f813590506107428161071e565b92915050565b5f819050919050565b61075a81610748565b8114610764575f80fd5b50565b5f8135905061077581610751565b92915050565b5f80fd5b5f80fd5b5f80fd5b5f8083601f84011261079c5761079b61077b565b5b8235905067ffffffffffffffff8111156107b9576107b861077f565b5b6020830191508360018202830111156107d5576107d4610783565b5b9250929050565b5f805f805f80608087890312156107f6576107f5610716565b5b5f61080389828a01610734565b965050602061081489828a01610767565b955050604087013567ffffffffffffffff8111156108355761083461071a565b5b61084189828a01610787565b9450945050606087013567ffffffffffffffff8111156108645761086361071a565b5b61087089828a01610787565b92509250509295509295509295565b5f80fd5b5f601f19601f8301169050919050565b7f4e487b71000000000000000000000000000000000000000000000000000000005f52604160045260245ffd5b6108c982610883565b810181811067ffffffffffffffff821117156108e8576108e7610893565b5b80604052505050565b5f6108fa61070d565b905061090682826108c0565b919050565b5f67ffffffffffffffff82111561092557610924610893565b5b61092e82610883565b9050602081019050919050565b828183375f83830152505050565b5f61095b6109568461090b565b6108f1565b9050828152602081018484840111156109775761097661087f565b5b61098284828561093b565b509392505050565b5f82601f83011261099e5761099d61077b565b5b81356109ae848260208601610949565b91505092915050565b5f602082840312156109cc576109cb610716565b5b5f82013567ffffffffffffffff8111156109e9576109e861071a565b5b6109f58482850161098a565b91505092915050565b5f81519050919050565b5f82825260208201905092915050565b5f5b83811015610a35578082015181840152602081019050610a1a565b5f8484015250505050565b5f610a4a826109fe565b610a548185610a08565b9350610a64818560208601610a18565b610a6d81610883565b840191505092915050565b5f6020820190508181035f830152610a908184610a40565b905092915050565b610aa181610748565b82525050565b5f602082019050610aba5f830184610a98565b92915050565b5f8060408385031215610ad657610ad5610716565b5b5f610ae385828601610734565b9250506020610af485828601610767565b9150509250929050565b5f819050919050565b5f610b21610b1c610b17846106b5565b610afe565b6106b5565b9050919050565b5f610b3282610b07565b9050919050565b5f610b4382610b28565b9050919050565b610b5381610b39565b82525050565b5f602082019050610b6c5f830184610b4a565b92915050565b7f4f6e6c79206f776e6572000000000000000000000000000000000000000000005f82015250565b5f610ba6600a83610a08565b9150610bb182610b72565b602082019050919050565b5f6020820190508181035f830152610bd381610b9a565b9050919050565b5f606082019050610bed5f8301866106e5565b610bfa60208301856106e5565b610c076040830184610a98565b949350505050565b5f8115159050919050565b610c2381610c0f565b8114610c2d575f80fd5b50565b5f81519050610c3e81610c1a565b92915050565b5f60208284031215610c5957610c58610716565b5b5f610c6684828501610c30565b91505092915050565b7f5472616e7366657220746f20636f6e7472616374206661696c656400000000005f82015250565b5f610ca3601b83610a08565b9150610cae82610c6f565b602082019050919050565b5f6020820190508181035f830152610cd081610c97565b9050919050565b5f81905092915050565b5f610cec8385610cd7565b9350610cf983858461093b565b82840190509392505050565b5f610d11828486610ce1565b91508190509392505050565b5f82905092915050565b7f4e487b71000000000000000000000000000000000000000000000000000000005f52602260045260245ffd5b5f6002820490506001821680610d6b57607f821691505b602082108103610d7e57610d7d610d27565b5b50919050565b5f819050815f5260205f209050919050565b5f6020601f8301049050919050565b5f82821b905092915050565b5f60088302610de07fffffffffffffffffffffffffffffffffffffffffffffffffffffffffffffffff82610da5565b610dea8683610da5565b95508019841693508086168417925050509392505050565b5f610e1c610e17610e1284610748565b610afe565b610748565b9050919050565b5f819050919050565b610e3583610e02565b610e49610e4182610e23565b848454610db1565b825550505050565b5f90565b610e5d610e51565b610e68818484610e2c565b505050565b5b81811015610e8b57610e805f82610e55565b600181019050610e6e565b5050565b601f821115610ed057610ea181610d84565b610eaa84610d96565b81016020851015610eb9578190505b610ecd610ec585610d96565b830182610e6d565b50505b505050565b5f82821c905092915050565b5f610ef05f1984600802610ed5565b1980831691505092915050565b5f610f088383610ee1565b9150826002028217905092915050565b610f228383610d1d565b67ffffffffffffffff811115610f3b57610f3a610893565b5b610f458254610d54565b610f50828285610e8f565b5f601f831160018114610f7d575f8415610f6b578287013590505b610f758582610efd565b865550610fdc565b601f198416610f8b86610d84565b5f5b82811015610fb257848901358255600182019150602085019450602081019050610f8d565b86831015610fcf5784890135610fcb601f891682610ee1565b8355505b6001600288020188555050505b50505050505050565b7f7b66756e6374696f6e3a206465706f7369742c20616d6f756e743a20000000005f82015250565b5f611019601c83610cd7565b915061102482610fe5565b601c82019050919050565b5f819050919050565b61104961104482610748565b61102f565b82525050565b7f2c207374617475733a20537563636573737d00000000000000000000000000005f82015250565b5f611083601283610cd7565b915061108e8261104f565b601282019050919050565b5f6110a38261100d565b91506110af8284611038565b6020820191506110be82611077565b915081905092915050565b7f4f6e6c79207769746864726177616c206f776e657200000000000000000000005f82015250565b5f6110fd601583610a08565b9150611108826110c9565b602082019050919050565b5f6020820190508181035f83015261112a816110f1565b9050919050565b5f6040820190506111445f8301856106e5565b6111516020830184610a98565b9392505050565b7f5472616e7366657220746f2075736572206661696c65640000000000000000005f82015250565b5f61118c601783610a08565b915061119782611158565b602082019050919050565b5f6020820190508181035f8301526111b981611180565b9050919050565b7f7b66756e6374696f6e3a2077697468647261772c2072656365697665723a20005f82015250565b5f6111f4601f83610cd7565b91506111ff826111c0565b601f82019050919050565b5f8160601b9050919050565b5f6112208261120a565b9050919050565b5f61123182611216565b9050919050565b611249611244826106d4565b611227565b82525050565b7f616d6f756e743a200000000000000000000000000000000000000000000000005f82015250565b5f611283600883610cd7565b915061128e8261124f565b600882019050919050565b5f6112a3826111e8565b91506112af8285611238565b6014820191506112be82611277565b91506112ca8284611038565b6020820191506112d982611077565b9150819050939250505056fea2646970667358221220037458759de3eb35dec5f5535bf9b160db4f4094a6884f516ecac794f121ebc364736f6c63430008140033",
					"opcodes": "PUSH1 0x80 PUSH1 0x40 MSTORE CALLVALUE DUP1 ISZERO PUSH3 0x10 JUMPI PUSH0 DUP1 REVERT JUMPDEST POP PUSH1 0x40 MLOAD PUSH3 0x14E5 CODESIZE SUB DUP1 PUSH3 0x14E5 DUP4 CODECOPY DUP2 DUP2 ADD PUSH1 0x40 MSTORE DUP2 ADD SWAP1 PUSH3 0x36 SWAP2 SWAP1 PUSH3 0x163 JUMP JUMPDEST DUP2 PUSH1 0x1 PUSH0 PUSH2 0x100 EXP DUP2 SLOAD DUP2 PUSH20 0xFFFFFFFFFFFFFFFFFFFFFFFFFFFFFFFFFFFFFFFF MUL NOT AND SWAP1 DUP4 PUSH20 0xFFFFFFFFFFFFFFFFFFFFFFFFFFFFFFFFFFFFFFFF AND MUL OR SWAP1 SSTORE POP DUP3 PUSH0 DUP1 PUSH2 0x100 EXP DUP2 SLOAD DUP2 PUSH20 0xFFFFFFFFFFFFFFFFFFFFFFFFFFFFFFFFFFFFFFFF MUL NOT AND SWAP1 DUP4 PUSH20 0xFFFFFFFFFFFFFFFFFFFFFFFFFFFFFFFFFFFFFFFF AND MUL OR SWAP1 SSTORE POP DUP1 PUSH1 0x2 PUSH0 PUSH2 0x100 EXP DUP2 SLOAD DUP2 PUSH20 0xFFFFFFFFFFFFFFFFFFFFFFFFFFFFFFFFFFFFFFFF MUL NOT AND SWAP1 DUP4 PUSH20 0xFFFFFFFFFFFFFFFFFFFFFFFFFFFFFFFFFFFFFFFF AND MUL OR SWAP1 SSTORE POP POP POP POP PUSH3 0x1BC JUMP JUMPDEST PUSH0 DUP1 REVERT JUMPDEST PUSH0 PUSH20 0xFFFFFFFFFFFFFFFFFFFFFFFFFFFFFFFFFFFFFFFF DUP3 AND SWAP1 POP SWAP2 SWAP1 POP JUMP JUMPDEST PUSH0 PUSH3 0x12D DUP3 PUSH3 0x102 JUMP JUMPDEST SWAP1 POP SWAP2 SWAP1 POP JUMP JUMPDEST PUSH3 0x13F DUP2 PUSH3 0x121 JUMP JUMPDEST DUP2 EQ PUSH3 0x14A JUMPI PUSH0 DUP1 REVERT JUMPDEST POP JUMP JUMPDEST PUSH0 DUP2 MLOAD SWAP1 POP PUSH3 0x15D DUP2 PUSH3 0x134 JUMP JUMPDEST SWAP3 SWAP2 POP POP JUMP JUMPDEST PUSH0 DUP1 PUSH0 PUSH1 0x60 DUP5 DUP7 SUB SLT ISZERO PUSH3 0x17D JUMPI PUSH3 0x17C PUSH3 0xFE JUMP JUMPDEST JUMPDEST PUSH0 PUSH3 0x18C DUP7 DUP3 DUP8 ADD PUSH3 0x14D JUMP JUMPDEST SWAP4 POP POP PUSH1 0x20 PUSH3 0x19F DUP7 DUP3 DUP8 ADD PUSH3 0x14D JUMP JUMPDEST SWAP3 POP POP PUSH1 0x40 PUSH3 0x1B2 DUP7 DUP3 DUP8 ADD PUSH3 0x14D JUMP JUMPDEST SWAP2 POP POP SWAP3 POP SWAP3 POP SWAP3 JUMP JUMPDEST PUSH2 0x131B DUP1 PUSH3 0x1CA PUSH0 CODECOPY PUSH0 RETURN INVALID PUSH1 0x80 PUSH1 0x40 MSTORE CALLVALUE DUP1 ISZERO PUSH2 0xF JUMPI PUSH0 DUP1 REVERT JUMPDEST POP PUSH1 0x4 CALLDATASIZE LT PUSH2 0x7B JUMPI PUSH0 CALLDATALOAD PUSH1 0xE0 SHR DUP1 PUSH4 0x84A1C233 GT PUSH2 0x59 JUMPI DUP1 PUSH4 0x84A1C233 EQ PUSH2 0xE9 JUMPI DUP1 PUSH4 0x8DA5CB5B EQ PUSH2 0x119 JUMPI DUP1 PUSH4 0xF3FEF3A3 EQ PUSH2 0x137 JUMPI DUP1 PUSH4 0xFC0C546A EQ PUSH2 0x153 JUMPI PUSH2 0x7B JUMP JUMPDEST DUP1 PUSH4 0x163F9B4F EQ PUSH2 0x7F JUMPI DUP1 PUSH4 0x19E5C034 EQ PUSH2 0x9D JUMPI DUP1 PUSH4 0x441F36B5 EQ PUSH2 0xB9 JUMPI JUMPDEST PUSH0 DUP1 REVERT JUMPDEST PUSH2 0x87 PUSH2 0x171 JUMP JUMPDEST PUSH1 0x40 MLOAD PUSH2 0x94 SWAP2 SWAP1 PUSH2 0x6F4 JUMP JUMPDEST PUSH1 0x40 MLOAD DUP1 SWAP2 SUB SWAP1 RETURN JUMPDEST PUSH2 0xB7 PUSH1 0x4 DUP1 CALLDATASIZE SUB DUP2 ADD SWAP1 PUSH2 0xB2 SWAP2 SWAP1 PUSH2 0x7DC JUMP JUMPDEST PUSH2 0x196 JUMP JUMPDEST STOP JUMPDEST PUSH2 0xD3 PUSH1 0x4 DUP1 CALLDATASIZE SUB DUP2 ADD SWAP1 PUSH2 0xCE SWAP2 SWAP1 PUSH2 0x9B7 JUMP JUMPDEST PUSH2 0x3BE JUMP JUMPDEST PUSH1 0x40 MLOAD PUSH2 0xE0 SWAP2 SWAP1 PUSH2 0xA78 JUMP JUMPDEST PUSH1 0x40 MLOAD DUP1 SWAP2 SUB SWAP1 RETURN JUMPDEST PUSH2 0x103 PUSH1 0x4 DUP1 CALLDATASIZE SUB DUP2 ADD SWAP1 PUSH2 0xFE SWAP2 SWAP1 PUSH2 0x9B7 JUMP JUMPDEST PUSH2 0x471 JUMP JUMPDEST PUSH1 0x40 MLOAD PUSH2 0x110 SWAP2 SWAP1 PUSH2 0xAA7 JUMP JUMPDEST PUSH1 0x40 MLOAD DUP1 SWAP2 SUB SWAP1 RETURN JUMPDEST PUSH2 0x121 PUSH2 0x49E JUMP JUMPDEST PUSH1 0x40 MLOAD PUSH2 0x12E SWAP2 SWAP1 PUSH2 0x6F4 JUMP JUMPDEST PUSH1 0x40 MLOAD DUP1 SWAP2 SUB SWAP1 RETURN JUMPDEST PUSH2 0x151 PUSH1 0x4 DUP1 CALLDATASIZE SUB DUP2 ADD SWAP1 PUSH2 0x14C SWAP2 SWAP1 PUSH2 0xAC0 JUMP JUMPDEST PUSH2 0x4C3 JUMP JUMPDEST STOP JUMPDEST PUSH2 0x15B PUSH2 0x692 JUMP JUMPDEST PUSH1 0x40 MLOAD PUSH2 0x168 SWAP2 SWAP1 PUSH2 0xB59 JUMP JUMPDEST PUSH1 0x40 MLOAD DUP1 SWAP2 SUB SWAP1 RETURN JUMPDEST PUSH1 0x2 PUSH0 SWAP1 SLOAD SWAP1 PUSH2 0x100 EXP SWAP1 DIV PUSH20 0xFFFFFFFFFFFFFFFFFFFFFFFFFFFFFFFFFFFFFFFF AND DUP2 JUMP JUMPDEST PUSH1 0x1 PUSH0 SWAP1 SLOAD SWAP1 PUSH2 0x100 EXP SWAP1 DIV PUSH20 0xFFFFFFFFFFFFFFFFFFFFFFFFFFFFFFFFFFFFFFFF AND PUSH20 0xFFFFFFFFFFFFFFFFFFFFFFFFFFFFFFFFFFFFFFFF AND CALLER PUSH20 0xFFFFFFFFFFFFFFFFFFFFFFFFFFFFFFFFFFFFFFFF AND EQ PUSH2 0x225 JUMPI PUSH1 0x40 MLOAD PUSH32 0x8C379A000000000000000000000000000000000000000000000000000000000 DUP2 MSTORE PUSH1 0x4 ADD PUSH2 0x21C SWAP1 PUSH2 0xBBC JUMP JUMPDEST PUSH1 0x40 MLOAD DUP1 SWAP2 SUB SWAP1 REVERT JUMPDEST PUSH0 DUP1 PUSH0 SWAP1 SLOAD SWAP1 PUSH2 0x100 EXP SWAP1 DIV PUSH20 0xFFFFFFFFFFFFFFFFFFFFFFFFFFFFFFFFFFFFFFFF AND PUSH20 0xFFFFFFFFFFFFFFFFFFFFFFFFFFFFFFFFFFFFFFFF AND PUSH4 0x23B872DD DUP9 ADDRESS DUP10 PUSH1 0x40 MLOAD DUP5 PUSH4 0xFFFFFFFF AND PUSH1 0xE0 SHL DUP2 MSTORE PUSH1 0x4 ADD PUSH2 0x283 SWAP4 SWAP3 SWAP2 SWAP1 PUSH2 0xBDA JUMP JUMPDEST PUSH1 0x20 PUSH1 0x40 MLOAD DUP1 DUP4 SUB DUP2 PUSH0 DUP8 GAS CALL ISZERO DUP1 ISZERO PUSH2 0x29F JUMPI RETURNDATASIZE PUSH0 DUP1 RETURNDATACOPY RETURNDATASIZE PUSH0 REVERT JUMPDEST POP POP POP POP PUSH1 0x40 MLOAD RETURNDATASIZE PUSH1 0x1F NOT PUSH1 0x1F DUP3 ADD AND DUP3 ADD DUP1 PUSH1 0x40 MSTORE POP DUP2 ADD SWAP1 PUSH2 0x2C3 SWAP2 SWAP1 PUSH2 0xC44 JUMP JUMPDEST SWAP1 POP DUP1 PUSH2 0x305 JUMPI PUSH1 0x40 MLOAD PUSH32 0x8C379A000000000000000000000000000000000000000000000000000000000 DUP2 MSTORE PUSH1 0x4 ADD PUSH2 0x2FC SWAP1 PUSH2 0xCB9 JUMP JUMPDEST PUSH1 0x40 MLOAD DUP1 SWAP2 SUB SWAP1 REVERT JUMPDEST DUP6 PUSH1 0x3 DUP7 DUP7 PUSH1 0x40 MLOAD PUSH2 0x318 SWAP3 SWAP2 SWAP1 PUSH2 0xD05 JUMP JUMPDEST SWAP1 DUP2 MSTORE PUSH1 0x20 ADD PUSH1 0x40 MLOAD DUP1 SWAP2 SUB SWAP1 KECCAK256 DUP2 SWAP1 SSTORE POP DUP3 DUP3 PUSH1 0x4 DUP8 DUP8 PUSH1 0x40 MLOAD PUSH2 0x33E SWAP3 SWAP2 SWAP1 PUSH2 0xD05 JUMP JUMPDEST SWAP1 DUP2 MSTORE PUSH1 0x20 ADD PUSH1 0x40 MLOAD DUP1 SWAP2 SUB SWAP1 KECCAK256 SWAP2 DUP3 PUSH2 0x359 SWAP3 SWAP2 SWAP1 PUSH2 0xF18 JUMP JUMPDEST POP PUSH0 DUP7 PUSH1 0x40 MLOAD PUSH1 0x20 ADD PUSH2 0x36C SWAP2 SWAP1 PUSH2 0x1099 JUMP JUMPDEST PUSH1 0x40 MLOAD PUSH1 0x20 DUP2 DUP4 SUB SUB DUP2 MSTORE SWAP1 PUSH1 0x40 MSTORE SWAP1 POP PUSH32 0x7EC0F30D77EEE878603FEBC6ECCF7F5DC934CB71143846EAE2BCA299C7850198 DUP2 PUSH1 0x40 MLOAD PUSH2 0x3AC SWAP2 SWAP1 PUSH2 0xA78 JUMP JUMPDEST PUSH1 0x40 MLOAD DUP1 SWAP2 SUB SWAP1 LOG1 POP POP POP POP POP POP POP POP JUMP JUMPDEST PUSH1 0x4 DUP2 DUP1 MLOAD PUSH1 0x20 DUP2 ADD DUP3 ADD DUP1 MLOAD DUP5 DUP3 MSTORE PUSH1 0x20 DUP4 ADD PUSH1 0x20 DUP6 ADD KECCAK256 DUP2 DUP4 MSTORE DUP1 SWAP6 POP POP POP POP POP POP PUSH0 SWAP2 POP SWAP1 POP DUP1 SLOAD PUSH2 0x3F2 SWAP1 PUSH2 0xD54 JUMP JUMPDEST DUP1 PUSH1 0x1F ADD PUSH1 0x20 DUP1 SWAP2 DIV MUL PUSH1 0x20 ADD PUSH1 0x40 MLOAD SWAP1 DUP2 ADD PUSH1 0x40 MSTORE DUP1 SWAP3 SWAP2 SWAP1 DUP2 DUP2 MSTORE PUSH1 0x20 ADD DUP3 DUP1 SLOAD PUSH2 0x41E SWAP1 PUSH2 0xD54 JUMP JUMPDEST DUP1 ISZERO PUSH2 0x469 JUMPI DUP1 PUSH1 0x1F LT PUSH2 0x440 JUMPI PUSH2 0x100 DUP1 DUP4 SLOAD DIV MUL DUP4 MSTORE SWAP2 PUSH1 0x20 ADD SWAP2 PUSH2 0x469 JUMP JUMPDEST DUP3 ADD SWAP2 SWAP1 PUSH0 MSTORE PUSH1 0x20 PUSH0 KECCAK256 SWAP1 JUMPDEST DUP2 SLOAD DUP2 MSTORE SWAP1 PUSH1 0x1 ADD SWAP1 PUSH1 0x20 ADD DUP1 DUP4 GT PUSH2 0x44C JUMPI DUP3 SWAP1 SUB PUSH1 0x1F AND DUP3 ADD SWAP2 JUMPDEST POP POP POP POP POP DUP2 JUMP JUMPDEST PUSH1 0x3 DUP2 DUP1 MLOAD PUSH1 0x20 DUP2 ADD DUP3 ADD DUP1 MLOAD DUP5 DUP3 MSTORE PUSH1 0x20 DUP4 ADD PUSH1 0x20 DUP6 ADD KECCAK256 DUP2 DUP4 MSTORE DUP1 SWAP6 POP POP POP POP POP POP PUSH0 SWAP2 POP SWAP1 POP SLOAD DUP2 JUMP JUMPDEST PUSH1 0x1 PUSH0 SWAP1 SLOAD SWAP1 PUSH2 0x100 EXP SWAP1 DIV PUSH20 0xFFFFFFFFFFFFFFFFFFFFFFFFFFFFFFFFFFFFFFFF AND DUP2 JUMP JUMPDEST PUSH1 0x2 PUSH0 SWAP1 SLOAD SWAP1 PUSH2 0x100 EXP SWAP1 DIV PUSH20 0xFFFFFFFFFFFFFFFFFFFFFFFFFFFFFFFFFFFFFFFF AND PUSH20 0xFFFFFFFFFFFFFFFFFFFFFFFFFFFFFFFFFFFFFFFF AND CALLER PUSH20 0xFFFFFFFFFFFFFFFFFFFFFFFFFFFFFFFFFFFFFFFF AND EQ PUSH2 0x552 JUMPI PUSH1 0x40 MLOAD PUSH32 0x8C379A000000000000000000000000000000000000000000000000000000000 DUP2 MSTORE PUSH1 0x4 ADD PUSH2 0x549 SWAP1 PUSH2 0x1113 JUMP JUMPDEST PUSH1 0x40 MLOAD DUP1 SWAP2 SUB SWAP1 REVERT JUMPDEST PUSH0 DUP1 PUSH0 SWAP1 SLOAD SWAP1 PUSH2 0x100 EXP SWAP1 DIV PUSH20 0xFFFFFFFFFFFFFFFFFFFFFFFFFFFFFFFFFFFFFFFF AND PUSH20 0xFFFFFFFFFFFFFFFFFFFFFFFFFFFFFFFFFFFFFFFF AND PUSH4 0xA9059CBB DUP5 DUP5 PUSH1 0x40 MLOAD DUP4 PUSH4 0xFFFFFFFF AND PUSH1 0xE0 SHL DUP2 MSTORE PUSH1 0x4 ADD PUSH2 0x5AE SWAP3 SWAP2 SWAP1 PUSH2 0x1131 JUMP JUMPDEST PUSH1 0x20 PUSH1 0x40 MLOAD DUP1 DUP4 SUB DUP2 PUSH0 DUP8 GAS CALL ISZERO DUP1 ISZERO PUSH2 0x5CA JUMPI RETURNDATASIZE PUSH0 DUP1 RETURNDATACOPY RETURNDATASIZE PUSH0 REVERT JUMPDEST POP POP POP POP PUSH1 0x40 MLOAD RETURNDATASIZE PUSH1 0x1F NOT PUSH1 0x1F DUP3 ADD AND DUP3 ADD DUP1 PUSH1 0x40 MSTORE POP DUP2 ADD SWAP1 PUSH2 0x5EE SWAP2 SWAP1 PUSH2 0xC44 JUMP JUMPDEST SWAP1 POP DUP1 PUSH2 0x630 JUMPI PUSH1 0x40 MLOAD PUSH32 0x8C379A000000000000000000000000000000000000000000000000000000000 DUP2 MSTORE PUSH1 0x4 ADD PUSH2 0x627 SWAP1 PUSH2 0x11A2 JUMP JUMPDEST PUSH1 0x40 MLOAD DUP1 SWAP2 SUB SWAP1 REVERT JUMPDEST PUSH0 DUP4 DUP4 PUSH1 0x40 MLOAD PUSH1 0x20 ADD PUSH2 0x644 SWAP3 SWAP2 SWAP1 PUSH2 0x1299 JUMP JUMPDEST PUSH1 0x40 MLOAD PUSH1 0x20 DUP2 DUP4 SUB SUB DUP2 MSTORE SWAP1 PUSH1 0x40 MSTORE SWAP1 POP PUSH32 0x7EC0F30D77EEE878603FEBC6ECCF7F5DC934CB71143846EAE2BCA299C7850198 DUP2 PUSH1 0x40 MLOAD PUSH2 0x684 SWAP2 SWAP1 PUSH2 0xA78 JUMP JUMPDEST PUSH1 0x40 MLOAD DUP1 SWAP2 SUB SWAP1 LOG1 POP POP POP POP JUMP JUMPDEST PUSH0 DUP1 SLOAD SWAP1 PUSH2 0x100 EXP SWAP1 DIV PUSH20 0xFFFFFFFFFFFFFFFFFFFFFFFFFFFFFFFFFFFFFFFF AND DUP2 JUMP JUMPDEST PUSH0 PUSH20 0xFFFFFFFFFFFFFFFFFFFFFFFFFFFFFFFFFFFFFFFF DUP3 AND SWAP1 POP SWAP2 SWAP1 POP JUMP JUMPDEST PUSH0 PUSH2 0x6DE DUP3 PUSH2 0x6B5 JUMP JUMPDEST SWAP1 POP SWAP2 SWAP1 POP JUMP JUMPDEST PUSH2 0x6EE DUP2 PUSH2 0x6D4 JUMP JUMPDEST DUP3 MSTORE POP POP JUMP JUMPDEST PUSH0 PUSH1 0x20 DUP3 ADD SWAP1 POP PUSH2 0x707 PUSH0 DUP4 ADD DUP5 PUSH2 0x6E5 JUMP JUMPDEST SWAP3 SWAP2 POP POP JUMP JUMPDEST PUSH0 PUSH1 0x40 MLOAD SWAP1 POP SWAP1 JUMP JUMPDEST PUSH0 DUP1 REVERT JUMPDEST PUSH0 DUP1 REVERT JUMPDEST PUSH2 0x727 DUP2 PUSH2 0x6D4 JUMP JUMPDEST DUP2 EQ PUSH2 0x731 JUMPI PUSH0 DUP1 REVERT JUMPDEST POP JUMP JUMPDEST PUSH0 DUP2 CALLDATALOAD SWAP1 POP PUSH2 0x742 DUP2 PUSH2 0x71E JUMP JUMPDEST SWAP3 SWAP2 POP POP JUMP JUMPDEST PUSH0 DUP2 SWAP1 POP SWAP2 SWAP1 POP JUMP JUMPDEST PUSH2 0x75A DUP2 PUSH2 0x748 JUMP JUMPDEST DUP2 EQ PUSH2 0x764 JUMPI PUSH0 DUP1 REVERT JUMPDEST POP JUMP JUMPDEST PUSH0 DUP2 CALLDATALOAD SWAP1 POP PUSH2 0x775 DUP2 PUSH2 0x751 JUMP JUMPDEST SWAP3 SWAP2 POP POP JUMP JUMPDEST PUSH0 DUP1 REVERT JUMPDEST PUSH0 DUP1 REVERT JUMPDEST PUSH0 DUP1 REVERT JUMPDEST PUSH0 DUP1 DUP4 PUSH1 0x1F DUP5 ADD SLT PUSH2 0x79C JUMPI PUSH2 0x79B PUSH2 0x77B JUMP JUMPDEST JUMPDEST DUP3 CALLDATALOAD SWAP1 POP PUSH8 0xFFFFFFFFFFFFFFFF DUP2 GT ISZERO PUSH2 0x7B9 JUMPI PUSH2 0x7B8 PUSH2 0x77F JUMP JUMPDEST JUMPDEST PUSH1 0x20 DUP4 ADD SWAP2 POP DUP4 PUSH1 0x1 DUP3 MUL DUP4 ADD GT ISZERO PUSH2 0x7D5 JUMPI PUSH2 0x7D4 PUSH2 0x783 JUMP JUMPDEST JUMPDEST SWAP3 POP SWAP3 SWAP1 POP JUMP JUMPDEST PUSH0 DUP1 PUSH0 DUP1 PUSH0 DUP1 PUSH1 0x80 DUP8 DUP10 SUB SLT ISZERO PUSH2 0x7F6 JUMPI PUSH2 0x7F5 PUSH2 0x716 JUMP JUMPDEST JUMPDEST PUSH0 PUSH2 0x803 DUP10 DUP3 DUP11 ADD PUSH2 0x734 JUMP JUMPDEST SWAP7 POP POP PUSH1 0x20 PUSH2 0x814 DUP10 DUP3 DUP11 ADD PUSH2 0x767 JUMP JUMPDEST SWAP6 POP POP PUSH1 0x40 DUP8 ADD CALLDATALOAD PUSH8 0xFFFFFFFFFFFFFFFF DUP2 GT ISZERO PUSH2 0x835 JUMPI PUSH2 0x834 PUSH2 0x71A JUMP JUMPDEST JUMPDEST PUSH2 0x841 DUP10 DUP3 DUP11 ADD PUSH2 0x787 JUMP JUMPDEST SWAP5 POP SWAP5 POP POP PUSH1 0x60 DUP8 ADD CALLDATALOAD PUSH8 0xFFFFFFFFFFFFFFFF DUP2 GT ISZERO PUSH2 0x864 JUMPI PUSH2 0x863 PUSH2 0x71A JUMP JUMPDEST JUMPDEST PUSH2 0x870 DUP10 DUP3 DUP11 ADD PUSH2 0x787 JUMP JUMPDEST SWAP3 POP SWAP3 POP POP SWAP3 SWAP6 POP SWAP3 SWAP6 POP SWAP3 SWAP6 JUMP JUMPDEST PUSH0 DUP1 REVERT JUMPDEST PUSH0 PUSH1 0x1F NOT PUSH1 0x1F DUP4 ADD AND SWAP1 POP SWAP2 SWAP1 POP JUMP JUMPDEST PUSH32 0x4E487B7100000000000000000000000000000000000000000000000000000000 PUSH0 MSTORE PUSH1 0x41 PUSH1 0x4 MSTORE PUSH1 0x24 PUSH0 REVERT JUMPDEST PUSH2 0x8C9 DUP3 PUSH2 0x883 JUMP JUMPDEST DUP2 ADD DUP2 DUP2 LT PUSH8 0xFFFFFFFFFFFFFFFF DUP3 GT OR ISZERO PUSH2 0x8E8 JUMPI PUSH2 0x8E7 PUSH2 0x893 JUMP JUMPDEST JUMPDEST DUP1 PUSH1 0x40 MSTORE POP POP POP JUMP JUMPDEST PUSH0 PUSH2 0x8FA PUSH2 0x70D JUMP JUMPDEST SWAP1 POP PUSH2 0x906 DUP3 DUP3 PUSH2 0x8C0 JUMP JUMPDEST SWAP2 SWAP1 POP JUMP JUMPDEST PUSH0 PUSH8 0xFFFFFFFFFFFFFFFF DUP3 GT ISZERO PUSH2 0x925 JUMPI PUSH2 0x924 PUSH2 0x893 JUMP JUMPDEST JUMPDEST PUSH2 0x92E DUP3 PUSH2 0x883 JUMP JUMPDEST SWAP1 POP PUSH1 0x20 DUP2 ADD SWAP1 POP SWAP2 SWAP1 POP JUMP JUMPDEST DUP3 DUP2 DUP4 CALLDATACOPY PUSH0 DUP4 DUP4 ADD MSTORE POP POP POP JUMP JUMPDEST PUSH0 PUSH2 0x95B PUSH2 0x956 DUP5 PUSH2 0x90B JUMP JUMPDEST PUSH2 0x8F1 JUMP JUMPDEST SWAP1 POP DUP3 DUP2 MSTORE PUSH1 0x20 DUP2 ADD DUP5 DUP5 DUP5 ADD GT ISZERO PUSH2 0x977 JUMPI PUSH2 0x976 PUSH2 0x87F JUMP JUMPDEST JUMPDEST PUSH2 0x982 DUP5 DUP3 DUP6 PUSH2 0x93B JUMP JUMPDEST POP SWAP4 SWAP3 POP POP POP JUMP JUMPDEST PUSH0 DUP3 PUSH1 0x1F DUP4 ADD SLT PUSH2 0x99E JUMPI PUSH2 0x99D PUSH2 0x77B JUMP JUMPDEST JUMPDEST DUP2 CALLDATALOAD PUSH2 0x9AE DUP5 DUP3 PUSH1 0x20 DUP7 ADD PUSH2 0x949 JUMP JUMPDEST SWAP2 POP POP SWAP3 SWAP2 POP POP JUMP JUMPDEST PUSH0 PUSH1 0x20 DUP3 DUP5 SUB SLT ISZERO PUSH2 0x9CC JUMPI PUSH2 0x9CB PUSH2 0x716 JUMP JUMPDEST JUMPDEST PUSH0 DUP3 ADD CALLDATALOAD PUSH8 0xFFFFFFFFFFFFFFFF DUP2 GT ISZERO PUSH2 0x9E9 JUMPI PUSH2 0x9E8 PUSH2 0x71A JUMP JUMPDEST JUMPDEST PUSH2 0x9F5 DUP5 DUP3 DUP6 ADD PUSH2 0x98A JUMP JUMPDEST SWAP2 POP POP SWAP3 SWAP2 POP POP JUMP JUMPDEST PUSH0 DUP2 MLOAD SWAP1 POP SWAP2 SWAP1 POP JUMP JUMPDEST PUSH0 DUP3 DUP3 MSTORE PUSH1 0x20 DUP3 ADD SWAP1 POP SWAP3 SWAP2 POP POP JUMP JUMPDEST PUSH0 JUMPDEST DUP4 DUP2 LT ISZERO PUSH2 0xA35 JUMPI DUP1 DUP3 ADD MLOAD DUP2 DUP5 ADD MSTORE PUSH1 0x20 DUP2 ADD SWAP1 POP PUSH2 0xA1A JUMP JUMPDEST PUSH0 DUP5 DUP5 ADD MSTORE POP POP POP POP JUMP JUMPDEST PUSH0 PUSH2 0xA4A DUP3 PUSH2 0x9FE JUMP JUMPDEST PUSH2 0xA54 DUP2 DUP6 PUSH2 0xA08 JUMP JUMPDEST SWAP4 POP PUSH2 0xA64 DUP2 DUP6 PUSH1 0x20 DUP7 ADD PUSH2 0xA18 JUMP JUMPDEST PUSH2 0xA6D DUP2 PUSH2 0x883 JUMP JUMPDEST DUP5 ADD SWAP2 POP POP SWAP3 SWAP2 POP POP JUMP JUMPDEST PUSH0 PUSH1 0x20 DUP3 ADD SWAP1 POP DUP2 DUP2 SUB PUSH0 DUP4 ADD MSTORE PUSH2 0xA90 DUP2 DUP5 PUSH2 0xA40 JUMP JUMPDEST SWAP1 POP SWAP3 SWAP2 POP POP JUMP JUMPDEST PUSH2 0xAA1 DUP2 PUSH2 0x748 JUMP JUMPDEST DUP3 MSTORE POP POP JUMP JUMPDEST PUSH0 PUSH1 0x20 DUP3 ADD SWAP1 POP PUSH2 0xABA PUSH0 DUP4 ADD DUP5 PUSH2 0xA98 JUMP JUMPDEST SWAP3 SWAP2 POP POP JUMP JUMPDEST PUSH0 DUP1 PUSH1 0x40 DUP4 DUP6 SUB SLT ISZERO PUSH2 0xAD6 JUMPI PUSH2 0xAD5 PUSH2 0x716 JUMP JUMPDEST JUMPDEST PUSH0 PUSH2 0xAE3 DUP6 DUP3 DUP7 ADD PUSH2 0x734 JUMP JUMPDEST SWAP3 POP POP PUSH1 0x20 PUSH2 0xAF4 DUP6 DUP3 DUP7 ADD PUSH2 0x767 JUMP JUMPDEST SWAP2 POP POP SWAP3 POP SWAP3 SWAP1 POP JUMP JUMPDEST PUSH0 DUP2 SWAP1 POP SWAP2 SWAP1 POP JUMP JUMPDEST PUSH0 PUSH2 0xB21 PUSH2 0xB1C PUSH2 0xB17 DUP5 PUSH2 0x6B5 JUMP JUMPDEST PUSH2 0xAFE JUMP JUMPDEST PUSH2 0x6B5 JUMP JUMPDEST SWAP1 POP SWAP2 SWAP1 POP JUMP JUMPDEST PUSH0 PUSH2 0xB32 DUP3 PUSH2 0xB07 JUMP JUMPDEST SWAP1 POP SWAP2 SWAP1 POP JUMP JUMPDEST PUSH0 PUSH2 0xB43 DUP3 PUSH2 0xB28 JUMP JUMPDEST SWAP1 POP SWAP2 SWAP1 POP JUMP JUMPDEST PUSH2 0xB53 DUP2 PUSH2 0xB39 JUMP JUMPDEST DUP3 MSTORE POP POP JUMP JUMPDEST PUSH0 PUSH1 0x20 DUP3 ADD SWAP1 POP PUSH2 0xB6C PUSH0 DUP4 ADD DUP5 PUSH2 0xB4A JUMP JUMPDEST SWAP3 SWAP2 POP POP JUMP JUMPDEST PUSH32 0x4F6E6C79206F776E657200000000000000000000000000000000000000000000 PUSH0 DUP3 ADD MSTORE POP JUMP JUMPDEST PUSH0 PUSH2 0xBA6 PUSH1 0xA DUP4 PUSH2 0xA08 JUMP JUMPDEST SWAP2 POP PUSH2 0xBB1 DUP3 PUSH2 0xB72 JUMP JUMPDEST PUSH1 0x20 DUP3 ADD SWAP1 POP SWAP2 SWAP1 POP JUMP JUMPDEST PUSH0 PUSH1 0x20 DUP3 ADD SWAP1 POP DUP2 DUP2 SUB PUSH0 DUP4 ADD MSTORE PUSH2 0xBD3 DUP2 PUSH2 0xB9A JUMP JUMPDEST SWAP1 POP SWAP2 SWAP1 POP JUMP JUMPDEST PUSH0 PUSH1 0x60 DUP3 ADD SWAP1 POP PUSH2 0xBED PUSH0 DUP4 ADD DUP7 PUSH2 0x6E5 JUMP JUMPDEST PUSH2 0xBFA PUSH1 0x20 DUP4 ADD DUP6 PUSH2 0x6E5 JUMP JUMPDEST PUSH2 0xC07 PUSH1 0x40 DUP4 ADD DUP5 PUSH2 0xA98 JUMP JUMPDEST SWAP5 SWAP4 POP POP POP POP JUMP JUMPDEST PUSH0 DUP2 ISZERO ISZERO SWAP1 POP SWAP2 SWAP1 POP JUMP JUMPDEST PUSH2 0xC23 DUP2 PUSH2 0xC0F JUMP JUMPDEST DUP2 EQ PUSH2 0xC2D JUMPI PUSH0 DUP1 REVERT JUMPDEST POP JUMP JUMPDEST PUSH0 DUP2 MLOAD SWAP1 POP PUSH2 0xC3E DUP2 PUSH2 0xC1A JUMP JUMPDEST SWAP3 SWAP2 POP POP JUMP JUMPDEST PUSH0 PUSH1 0x20 DUP3 DUP5 SUB SLT ISZERO PUSH2 0xC59 JUMPI PUSH2 0xC58 PUSH2 0x716 JUMP JUMPDEST JUMPDEST PUSH0 PUSH2 0xC66 DUP5 DUP3 DUP6 ADD PUSH2 0xC30 JUMP JUMPDEST SWAP2 POP POP SWAP3 SWAP2 POP POP JUMP JUMPDEST PUSH32 0x5472616E7366657220746F20636F6E7472616374206661696C65640000000000 PUSH0 DUP3 ADD MSTORE POP JUMP JUMPDEST PUSH0 PUSH2 0xCA3 PUSH1 0x1B DUP4 PUSH2 0xA08 JUMP JUMPDEST SWAP2 POP PUSH2 0xCAE DUP3 PUSH2 0xC6F JUMP JUMPDEST PUSH1 0x20 DUP3 ADD SWAP1 POP SWAP2 SWAP1 POP JUMP JUMPDEST PUSH0 PUSH1 0x20 DUP3 ADD SWAP1 POP DUP2 DUP2 SUB PUSH0 DUP4 ADD MSTORE PUSH2 0xCD0 DUP2 PUSH2 0xC97 JUMP JUMPDEST SWAP1 POP SWAP2 SWAP1 POP JUMP JUMPDEST PUSH0 DUP2 SWAP1 POP SWAP3 SWAP2 POP POP JUMP JUMPDEST PUSH0 PUSH2 0xCEC DUP4 DUP6 PUSH2 0xCD7 JUMP JUMPDEST SWAP4 POP PUSH2 0xCF9 DUP4 DUP6 DUP5 PUSH2 0x93B JUMP JUMPDEST DUP3 DUP5 ADD SWAP1 POP SWAP4 SWAP3 POP POP POP JUMP JUMPDEST PUSH0 PUSH2 0xD11 DUP3 DUP5 DUP7 PUSH2 0xCE1 JUMP JUMPDEST SWAP2 POP DUP2 SWAP1 POP SWAP4 SWAP3 POP POP POP JUMP JUMPDEST PUSH0 DUP3 SWAP1 POP SWAP3 SWAP2 POP POP JUMP JUMPDEST PUSH32 0x4E487B7100000000000000000000000000000000000000000000000000000000 PUSH0 MSTORE PUSH1 0x22 PUSH1 0x4 MSTORE PUSH1 0x24 PUSH0 REVERT JUMPDEST PUSH0 PUSH1 0x2 DUP3 DIV SWAP1 POP PUSH1 0x1 DUP3 AND DUP1 PUSH2 0xD6B JUMPI PUSH1 0x7F DUP3 AND SWAP2 POP JUMPDEST PUSH1 0x20 DUP3 LT DUP2 SUB PUSH2 0xD7E JUMPI PUSH2 0xD7D PUSH2 0xD27 JUMP JUMPDEST JUMPDEST POP SWAP2 SWAP1 POP JUMP JUMPDEST PUSH0 DUP2 SWAP1 POP DUP2 PUSH0 MSTORE PUSH1 0x20 PUSH0 KECCAK256 SWAP1 POP SWAP2 SWAP1 POP JUMP JUMPDEST PUSH0 PUSH1 0x20 PUSH1 0x1F DUP4 ADD DIV SWAP1 POP SWAP2 SWAP1 POP JUMP JUMPDEST PUSH0 DUP3 DUP3 SHL SWAP1 POP SWAP3 SWAP2 POP POP JUMP JUMPDEST PUSH0 PUSH1 0x8 DUP4 MUL PUSH2 0xDE0 PUSH32 0xFFFFFFFFFFFFFFFFFFFFFFFFFFFFFFFFFFFFFFFFFFFFFFFFFFFFFFFFFFFFFFFF DUP3 PUSH2 0xDA5 JUMP JUMPDEST PUSH2 0xDEA DUP7 DUP4 PUSH2 0xDA5 JUMP JUMPDEST SWAP6 POP DUP1 NOT DUP5 AND SWAP4 POP DUP1 DUP7 AND DUP5 OR SWAP3 POP POP POP SWAP4 SWAP3 POP POP POP JUMP JUMPDEST PUSH0 PUSH2 0xE1C PUSH2 0xE17 PUSH2 0xE12 DUP5 PUSH2 0x748 JUMP JUMPDEST PUSH2 0xAFE JUMP JUMPDEST PUSH2 0x748 JUMP JUMPDEST SWAP1 POP SWAP2 SWAP1 POP JUMP JUMPDEST PUSH0 DUP2 SWAP1 POP SWAP2 SWAP1 POP JUMP JUMPDEST PUSH2 0xE35 DUP4 PUSH2 0xE02 JUMP JUMPDEST PUSH2 0xE49 PUSH2 0xE41 DUP3 PUSH2 0xE23 JUMP JUMPDEST DUP5 DUP5 SLOAD PUSH2 0xDB1 JUMP JUMPDEST DUP3 SSTORE POP POP POP POP JUMP JUMPDEST PUSH0 SWAP1 JUMP JUMPDEST PUSH2 0xE5D PUSH2 0xE51 JUMP JUMPDEST PUSH2 0xE68 DUP2 DUP5 DUP5 PUSH2 0xE2C JUMP JUMPDEST POP POP POP JUMP JUMPDEST JUMPDEST DUP2 DUP2 LT ISZERO PUSH2 0xE8B JUMPI PUSH2 0xE80 PUSH0 DUP3 PUSH2 0xE55 JUMP JUMPDEST PUSH1 0x1 DUP2 ADD SWAP1 POP PUSH2 0xE6E JUMP JUMPDEST POP POP JUMP JUMPDEST PUSH1 0x1F DUP3 GT ISZERO PUSH2 0xED0 JUMPI PUSH2 0xEA1 DUP2 PUSH2 0xD84 JUMP JUMPDEST PUSH2 0xEAA DUP5 PUSH2 0xD96 JUMP JUMPDEST DUP2 ADD PUSH1 0x20 DUP6 LT ISZERO PUSH2 0xEB9 JUMPI DUP2 SWAP1 POP JUMPDEST PUSH2 0xECD PUSH2 0xEC5 DUP6 PUSH2 0xD96 JUMP JUMPDEST DUP4 ADD DUP3 PUSH2 0xE6D JUMP JUMPDEST POP POP JUMPDEST POP POP POP JUMP JUMPDEST PUSH0 DUP3 DUP3 SHR SWAP1 POP SWAP3 SWAP2 POP POP JUMP JUMPDEST PUSH0 PUSH2 0xEF0 PUSH0 NOT DUP5 PUSH1 0x8 MUL PUSH2 0xED5 JUMP JUMPDEST NOT DUP1 DUP4 AND SWAP2 POP POP SWAP3 SWAP2 POP POP JUMP JUMPDEST PUSH0 PUSH2 0xF08 DUP4 DUP4 PUSH2 0xEE1 JUMP JUMPDEST SWAP2 POP DUP3 PUSH1 0x2 MUL DUP3 OR SWAP1 POP SWAP3 SWAP2 POP POP JUMP JUMPDEST PUSH2 0xF22 DUP4 DUP4 PUSH2 0xD1D JUMP JUMPDEST PUSH8 0xFFFFFFFFFFFFFFFF DUP2 GT ISZERO PUSH2 0xF3B JUMPI PUSH2 0xF3A PUSH2 0x893 JUMP JUMPDEST JUMPDEST PUSH2 0xF45 DUP3 SLOAD PUSH2 0xD54 JUMP JUMPDEST PUSH2 0xF50 DUP3 DUP3 DUP6 PUSH2 0xE8F JUMP JUMPDEST PUSH0 PUSH1 0x1F DUP4 GT PUSH1 0x1 DUP2 EQ PUSH2 0xF7D JUMPI PUSH0 DUP5 ISZERO PUSH2 0xF6B JUMPI DUP3 DUP8 ADD CALLDATALOAD SWAP1 POP JUMPDEST PUSH2 0xF75 DUP6 DUP3 PUSH2 0xEFD JUMP JUMPDEST DUP7 SSTORE POP PUSH2 0xFDC JUMP JUMPDEST PUSH1 0x1F NOT DUP5 AND PUSH2 0xF8B DUP7 PUSH2 0xD84 JUMP JUMPDEST PUSH0 JUMPDEST DUP3 DUP2 LT ISZERO PUSH2 0xFB2 JUMPI DUP5 DUP10 ADD CALLDATALOAD DUP3 SSTORE PUSH1 0x1 DUP3 ADD SWAP2 POP PUSH1 0x20 DUP6 ADD SWAP5 POP PUSH1 0x20 DUP2 ADD SWAP1 POP PUSH2 0xF8D JUMP JUMPDEST DUP7 DUP4 LT ISZERO PUSH2 0xFCF JUMPI DUP5 DUP10 ADD CALLDATALOAD PUSH2 0xFCB PUSH1 0x1F DUP10 AND DUP3 PUSH2 0xEE1 JUMP JUMPDEST DUP4 SSTORE POP JUMPDEST PUSH1 0x1 PUSH1 0x2 DUP9 MUL ADD DUP9 SSTORE POP POP POP JUMPDEST POP POP POP POP POP POP POP JUMP JUMPDEST PUSH32 0x7B66756E6374696F6E3A206465706F7369742C20616D6F756E743A2000000000 PUSH0 DUP3 ADD MSTORE POP JUMP JUMPDEST PUSH0 PUSH2 0x1019 PUSH1 0x1C DUP4 PUSH2 0xCD7 JUMP JUMPDEST SWAP2 POP PUSH2 0x1024 DUP3 PUSH2 0xFE5 JUMP JUMPDEST PUSH1 0x1C DUP3 ADD SWAP1 POP SWAP2 SWAP1 POP JUMP JUMPDEST PUSH0 DUP2 SWAP1 POP SWAP2 SWAP1 POP JUMP JUMPDEST PUSH2 0x1049 PUSH2 0x1044 DUP3 PUSH2 0x748 JUMP JUMPDEST PUSH2 0x102F JUMP JUMPDEST DUP3 MSTORE POP POP JUMP JUMPDEST PUSH32 0x2C207374617475733A20537563636573737D0000000000000000000000000000 PUSH0 DUP3 ADD MSTORE POP JUMP JUMPDEST PUSH0 PUSH2 0x1083 PUSH1 0x12 DUP4 PUSH2 0xCD7 JUMP JUMPDEST SWAP2 POP PUSH2 0x108E DUP3 PUSH2 0x104F JUMP JUMPDEST PUSH1 0x12 DUP3 ADD SWAP1 POP SWAP2 SWAP1 POP JUMP JUMPDEST PUSH0 PUSH2 0x10A3 DUP3 PUSH2 0x100D JUMP JUMPDEST SWAP2 POP PUSH2 0x10AF DUP3 DUP5 PUSH2 0x1038 JUMP JUMPDEST PUSH1 0x20 DUP3 ADD SWAP2 POP PUSH2 0x10BE DUP3 PUSH2 0x1077 JUMP JUMPDEST SWAP2 POP DUP2 SWAP1 POP SWAP3 SWAP2 POP POP JUMP JUMPDEST PUSH32 0x4F6E6C79207769746864726177616C206F776E65720000000000000000000000 PUSH0 DUP3 ADD MSTORE POP JUMP JUMPDEST PUSH0 PUSH2 0x10FD PUSH1 0x15 DUP4 PUSH2 0xA08 JUMP JUMPDEST SWAP2 POP PUSH2 0x1108 DUP3 PUSH2 0x10C9 JUMP JUMPDEST PUSH1 0x20 DUP3 ADD SWAP1 POP SWAP2 SWAP1 POP JUMP JUMPDEST PUSH0 PUSH1 0x20 DUP3 ADD SWAP1 POP DUP2 DUP2 SUB PUSH0 DUP4 ADD MSTORE PUSH2 0x112A DUP2 PUSH2 0x10F1 JUMP JUMPDEST SWAP1 POP SWAP2 SWAP1 POP JUMP JUMPDEST PUSH0 PUSH1 0x40 DUP3 ADD SWAP1 POP PUSH2 0x1144 PUSH0 DUP4 ADD DUP6 PUSH2 0x6E5 JUMP JUMPDEST PUSH2 0x1151 PUSH1 0x20 DUP4 ADD DUP5 PUSH2 0xA98 JUMP JUMPDEST SWAP4 SWAP3 POP POP POP JUMP JUMPDEST PUSH32 0x5472616E7366657220746F2075736572206661696C6564000000000000000000 PUSH0 DUP3 ADD MSTORE POP JUMP JUMPDEST PUSH0 PUSH2 0x118C PUSH1 0x17 DUP4 PUSH2 0xA08 JUMP JUMPDEST SWAP2 POP PUSH2 0x1197 DUP3 PUSH2 0x1158 JUMP JUMPDEST PUSH1 0x20 DUP3 ADD SWAP1 POP SWAP2 SWAP1 POP JUMP JUMPDEST PUSH0 PUSH1 0x20 DUP3 ADD SWAP1 POP DUP2 DUP2 SUB PUSH0 DUP4 ADD MSTORE PUSH2 0x11B9 DUP2 PUSH2 0x1180 JUMP JUMPDEST SWAP1 POP SWAP2 SWAP1 POP JUMP JUMPDEST PUSH32 0x7B66756E6374696F6E3A2077697468647261772C2072656365697665723A2000 PUSH0 DUP3 ADD MSTORE POP JUMP JUMPDEST PUSH0 PUSH2 0x11F4 PUSH1 0x1F DUP4 PUSH2 0xCD7 JUMP JUMPDEST SWAP2 POP PUSH2 0x11FF DUP3 PUSH2 0x11C0 JUMP JUMPDEST PUSH1 0x1F DUP3 ADD SWAP1 POP SWAP2 SWAP1 POP JUMP JUMPDEST PUSH0 DUP2 PUSH1 0x60 SHL SWAP1 POP SWAP2 SWAP1 POP JUMP JUMPDEST PUSH0 PUSH2 0x1220 DUP3 PUSH2 0x120A JUMP JUMPDEST SWAP1 POP SWAP2 SWAP1 POP JUMP JUMPDEST PUSH0 PUSH2 0x1231 DUP3 PUSH2 0x1216 JUMP JUMPDEST SWAP1 POP SWAP2 SWAP1 POP JUMP JUMPDEST PUSH2 0x1249 PUSH2 0x1244 DUP3 PUSH2 0x6D4 JUMP JUMPDEST PUSH2 0x1227 JUMP JUMPDEST DUP3 MSTORE POP POP JUMP JUMPDEST PUSH32 0x616D6F756E743A20000000000000000000000000000000000000000000000000 PUSH0 DUP3 ADD MSTORE POP JUMP JUMPDEST PUSH0 PUSH2 0x1283 PUSH1 0x8 DUP4 PUSH2 0xCD7 JUMP JUMPDEST SWAP2 POP PUSH2 0x128E DUP3 PUSH2 0x124F JUMP JUMPDEST PUSH1 0x8 DUP3 ADD SWAP1 POP SWAP2 SWAP1 POP JUMP JUMPDEST PUSH0 PUSH2 0x12A3 DUP3 PUSH2 0x11E8 JUMP JUMPDEST SWAP2 POP PUSH2 0x12AF DUP3 DUP6 PUSH2 0x1238 JUMP JUMPDEST PUSH1 0x14 DUP3 ADD SWAP2 POP PUSH2 0x12BE DUP3 PUSH2 0x1277 JUMP JUMPDEST SWAP2 POP PUSH2 0x12CA DUP3 DUP5 PUSH2 0x1038 JUMP JUMPDEST PUSH1 0x20 DUP3 ADD SWAP2 POP PUSH2 0x12D9 DUP3 PUSH2 0x1077 JUMP JUMPDEST SWAP2 POP DUP2 SWAP1 POP SWAP4 SWAP3 POP POP POP JUMP INVALID LOG2 PUSH5 0x6970667358 0x22 SLT KECCAK256 SUB PUSH21 0x58759DE3EB35DEC5F5535BF9B160DB4F4094A6884F MLOAD PUSH15 0xCAC794F121EBC364736F6C63430008 EQ STOP CALLER "
				},
				"gasEstimates": {
					"creation": {
						"codeDepositCost": "978200",
						"executionCost": "infinite",
						"totalCost": "infinite"
					},
					"external": {
						"deposit(address,uint256,string,string)": "infinite",
						"owner()": "2530",
						"signatures(string)": "infinite",
						"token()": "infinite",
						"transfers(string)": "infinite",
						"withdraw(address,uint256)": "infinite",
						"withdrawalOwner()": "2509"
					}
				},
				"methodIdentifiers": {
					"deposit(address,uint256,string,string)": "19e5c034",
					"owner()": "8da5cb5b",
					"signatures(string)": "441f36b5",
					"token()": "fc0c546a",
					"transfers(string)": "84a1c233",
					"withdraw(address,uint256)": "f3fef3a3",
					"withdrawalOwner()": "163f9b4f"
				}
			},
			"storageLayout": {
				"storage": [
					{
						"astId": 25,
						"contract": "CriptoXMC/transfer.sol:MainXM",
						"label": "token",
						"offset": 0,
						"slot": "0",
						"type": "t_contract(IERC20)22"
					},
					{
						"astId": 27,
						"contract": "CriptoXMC/transfer.sol:MainXM",
						"label": "owner",
						"offset": 0,
						"slot": "1",
						"type": "t_address"
					},
					{
						"astId": 29,
						"contract": "CriptoXMC/transfer.sol:MainXM",
						"label": "withdrawalOwner",
						"offset": 0,
						"slot": "2",
						"type": "t_address"
					},
					{
						"astId": 85,
						"contract": "CriptoXMC/transfer.sol:MainXM",
						"label": "transfers",
						"offset": 0,
						"slot": "3",
						"type": "t_mapping(t_string_memory_ptr,t_uint256)"
					},
					{
						"astId": 89,
						"contract": "CriptoXMC/transfer.sol:MainXM",
						"label": "signatures",
						"offset": 0,
						"slot": "4",
						"type": "t_mapping(t_string_memory_ptr,t_string_storage)"
					}
				],
				"types": {
					"t_address": {
						"encoding": "inplace",
						"label": "address",
						"numberOfBytes": "20"
					},
					"t_contract(IERC20)22": {
						"encoding": "inplace",
						"label": "contract IERC20",
						"numberOfBytes": "20"
					},
					"t_mapping(t_string_memory_ptr,t_string_storage)": {
						"encoding": "mapping",
						"key": "t_string_memory_ptr",
						"label": "mapping(string => string)",
						"numberOfBytes": "32",
						"value": "t_string_storage"
					},
					"t_mapping(t_string_memory_ptr,t_uint256)": {
						"encoding": "mapping",
						"key": "t_string_memory_ptr",
						"label": "mapping(string => uint256)",
						"numberOfBytes": "32",
						"value": "t_uint256"
					},
					"t_string_memory_ptr": {
						"encoding": "bytes",
						"label": "string",
						"numberOfBytes": "32"
					},
					"t_string_storage": {
						"encoding": "bytes",
						"label": "string",
						"numberOfBytes": "32"
					},
					"t_uint256": {
						"encoding": "inplace",
						"label": "uint256",
						"numberOfBytes": "32"
					}
				}
			},
			"userdoc": {
				"kind": "user",
				"methods": {},
				"version": 1
			}
		}
	}
}